:100000000C940C010C94BD0F0C9434010C9434012D
:100010000C9434010C9434010C9434010C941B1096
:100020000C9434010C9434010C9434010C9434017C
:100030000C9434010C9434010C947B0E0C94340118
:100040000C94120D0C9434010C9434010C94340172
:100050000C9434010C9434010C9434010C9434014C
:100060000C945C0D0C94340108000000BE922449ED
:10007000123EABAAAA2ABECDCCCC4C3E00000080DA
:10008000BEABAAAAAA3E00000000BF000000803F4D
:100090000000000000084178D3BB4387D1133D190D
:1000A0000E3CC3BD4282AD2B3E68EC8276BED98F3A
:1000B000E1A93E4C80EFFFBE01C4FF7F3F0000007E
:1000C000000000407A10F35A00A0724E1809001088
:1000D000A5D4E80000E87648170000E40B540200BD
:1000E00000CA9A3B000000E1F505000080969800E8
:1000F000000040420F000000A08601000000102711
:1001000000000000E80300000000640000000000A0
:100110000A00000000000100000000002C76D888D2
:10012000DC674F0823DFC1DFAE59E1B1B796E5E3E5
:10013000E453C63AE651997696E8E6C28426EB89FE
:100140008C9B62ED407C6FFCEFBC9C9F40F2BAA59B
:100150006FA5F490055A2AF75C936B6CF9676DC133
:100160001BFCE0E40D47FEF520E6B500D0ED902E37
:100170000300943577050080841E080000204E0A95
:10018000000000C80C333333330F986E12831141D3
:10019000EF8D2114893BE65516CFFEE6DB18D1849E
:1001A0004B381BF77C1D901DA4BBE42420328472C5
:1001B0005E228100C9F124ECA1E53D27000000008A
:1001C000240027002A0000000000250028002B0042
:1001D0000000000023002600290004040404040495
:1001E00004040202020202020303030303030102E6
:1001F00004081020408001020408102001020408B5
:1002000010200000000800020100000304070000A5
:10021000000000000000F41011241FBECFEFD8E052
:10022000DEBFCDBF12E0A0E0B1E0EEE2F0E402C03C
:1002300005900D92AE36B107D9F723E0AEE6B2E0F5
:1002400001C01D92AD3FB207E1F711E0CCE0D1E073
:1002500004C02197FE010E94231CCB30D107C9F7AF
:100260000E946B110C9415200C9400004F925F9229
:100270006F927F928F929F92AF92BF92CF92DF92B6
:10028000EF92FF924090C9035090CA036090CB0355
:100290007090CC0380EA481A8FE0580A6108710810
:1002A000A3019201C301B2010E94BF1B6B017C013B
:1002B000FCE0F594E794D794C794FA95D1F7E091D0
:1002C000C003A091AD03B091AE030E941B1C4B0173
:1002D0005C01ADE0B594A79497948794AA95D1F763
:1002E000A091B503B091B603A70196010E941B1C13
:1002F0009C01552737FD5095452F280D391D4A1D66
:100300005B1D2E5F3F4F4F4F5F4F82E055954795E6
:10031000379527958A95D1F730584F4F5F4FA09169
:10032000AF03B091B0030E94101C4B015C019FE031
:10033000B694A794979487949A95D1F7A091B70310
:10034000B091B803A70196010E941B1C6B017C01B0
:100350002BE0F594E794D794C7942A95D1F7A09110
:10036000AB03B091AC03A30192010E941B1C3BE0C4
:1003700095958795779567953A95D1F7C60ED71ECF
:10038000E81EF91E8091A9039091AA03092E000C82
:10039000AA0BBB0B42E0880F991FAA1FBB1F4A95EF
:1003A000D1F78C0D9D1DAE1DBF1D6C017D010E2E64
:1003B00004C0CC0CDD1CEE1CFF1C0A94D2F782E0BA
:1003C000C80ED11CE11CF11C52E0F594E794D794BF
:1003D000C7945A95D1F72091C1033091C20340913F
:1003E000C3035091C4032C193D094E095F0960E510
:1003F00073EC80E090E004C09595879577956795BC
:10040000EA95D2F70E94BF1B97FD4EC0660F771F7B
:10041000881F991FA50194010E94CF1B69017A01D1
:100420009927F7FC9A958F2D7E2D6D2D9B01AC01A0
:100430000E94BF1B9B01AC01AEEDBBE00E94101CF3
:100440004B015C01A3E4B3EEA70196010E941E1CC0
:10045000BC01992777FD9095892F4501BB2497FC16
:10046000B094AB2C680D791D8A1D9B1D6153714F93
:100470008F4F9F4F44E095958795779567954A955F
:10048000D1F76C0D7D1D8E1D9F1D0E94D419FF900C
:10049000EF90DF90CF90BF90AF909F908F907F9024
:1004A0006F905F904F900895A50194010E94CF1B1B
:1004B00069017A01CC0CDD1CEE1CFF1CB1CFCF9280
:1004C000DF92EF92FF92CF93DF93C7EAD3E08C8560
:1004D0009D852E8D3F8D48A159A1281B390B4109BF
:1004E0005109AA85BB850E94101C6B017C018FE01D
:1004F000F594E794D794C7948A95D1F76C897D8950
:10050000072E000C880B990B2BE0660F771F881FB6
:10051000991F2A95D1F72E893F89032E000C440B91
:10052000550B2C0D3D1D4E1D5F1D0E94F11BC20E73
:10053000D31EE41EF51ECAA2DBA2ECA2FDA2A701F7
:100540009601285F3F4F4F4F5F4FCA01B90134E01A
:1005500095958795779567953A95D1F70E94D41927
:100560002DEC3CEC4CEC5DE30E94B01ADF91CF9196
:10057000FF90EF90DF90CF90089581E00895089567
:100580000895AF92BF92CF92DF92EF92FF920F93B6
:100590001F93CF93DF936C017B018B01040F151F19
:1005A000EB015E01AE18BF08C017D10759F0699181
:1005B000D601ED91FC910190F081E02DC6010995E5
:1005C000892B79F7C501DF91CF911F910F91FF9092
:1005D000EF90DF90CF90BF90AF900895833081F07F
:1005E00028F4813099F08230A9F008958730A9F07D
:1005F0008830C9F08430B1F4809180008F7D03C0D1
:10060000809180008F7780938000089584B58F77E4
:1006100084BD089584B58F7DFBCF8091B0008F7726
:100620008093B00008958091B0008F7DF9CFCF9373
:10063000DF93282F30E0F901EE5FFD4F8491F9013F
:10064000E251FE4FD491F901E652FE4FC491CC2302
:10065000A1F081110E94EE02EC2FF0E0EE0FFF1FDF
:10066000E053FE4FA591B491EC91ED2381E090E031
:1006700009F480E0DF91CF91089580E090E0FACF17
:100680001F93CF93DF93282F30E0F901EE5FFD4FEA
:100690008491F901E251FE4FD491F901E652FE4FE7
:1006A000C491CC23A9F0162F81110E94EE02EC2FE9
:1006B000F0E0EE0FFF1FEA53FE4FA591B4918FB704
:1006C000F894EC91111108C0D095DE23DC938FBF14
:1006D000DF91CF911F910895DE2BF8CFCF93DF9359
:1006E00090E0FC01E251FE4F249186529E4FFC01A6
:1006F00084918823D1F090E0880F991FFC01E45485
:10070000FE4FA591B491FC01EA53FE4FC591D491DF
:1007100061110EC09FB7F8948C91E22FE0958E2363
:100720008C932881E223E8839FBFDF91CF910895C6
:100730008FB7F894EC91E22BEC938FBFF6CF1F9319
:10074000CF93DF93182FEB0161E00E946E03209797
:1007500039F460E0812FDF91CF911F910C94400319
:10076000CF3FD10511F461E0F5CFE12FF0E0EE5F6E
:10077000FD4FE491E33031F140F4E130B1F0E2308B
:10078000E1F0C038D1057CF7E4CFE73029F1E8305B
:1007900059F1E430B1F7809180008062809380004D
:1007A000D0938B00C0938A0004C084B5806884BD58
:1007B000C7BDDF91CF911F91089584B5806284BD3C
:1007C000C8BDF7CF80918000806880938000D0936F
:1007D0008900C0938800EDCF8091B000806880933D
:1007E000B000C093B300E5CF8091B00080628093E9
:1007F000B000C093B400DDCF3FB7F8948091CE0233
:100800009091CF02A091D002B091D10226B5A89BC1
:1008100005C02F3F19F00196A11DB11D3FBFBA2F92
:10082000A92F982F8827BC01CD01620F711D811D52
:10083000911D42E0660F771F881F991F4A95D1F7D7
:1008400008958F929F92AF92BF92CF92DF92EF92D4
:10085000FF924B015C010E94FC036B017C010E9432
:10086000FC036C197D098E099F09683E7340810560
:100870009105A8F321E0821A9108A108B10888EE39
:10088000C80E83E0D81EE11CF11C81149104A10460
:10089000B10429F7FF90EF90DF90CF90BF90AF9019
:1008A0009F908F9008950895BF92CF92DF92EF921C
:1008B000FF920F931F93CF93DF934530D8F4B42E5C
:1008C000062FEC0110E060E070E0CB01B116A9F05A
:1008D000CC24D62EE72EF82EE881F9810680F78108
:1008E000E02D602FCE0109959601282BC701B90193
:1008F0001F5FECCF60E070E0CB01DF91CF911F91E3
:100900000F91FF90EF90DF90CF90BF9008950895E2
:100910002091A602260F3327331F21323105ECF434
:1009200020917103FC0190E080E0243069F082E0C6
:100930000895A091A6022191AC014A575D4FA40FE2
:10094000B52FB11D2C930196861798F38091A602BE
:10095000680F6093A60280E0089581E008951092E8
:10096000710381E08093700310924B0361E082E198
:100970000E94400361E083E10E944003E9EBF0E064
:1009800080818E7F808380818D7F808388E48093C7
:10099000B80085E48093BC000895CF93DF9391E085
:1009A000909385028823B9F0C091B800D091BA0025
:1009B0008091BC008A7B8093BC0060E082E10E9451
:1009C000400360E083E10E9440030E94AF04D093A3
:1009D000BA00C093B800DF91CF9108958F929F9293
:1009E000AF92BF92CF92DF92EF92FF920F931F933D
:1009F000CF93DF93D0919A03D13208F0D7C0182F4C
:100A0000C09199030E94FC036B017C0180917103EA
:100A100081116BC082E080937103109370038FEF9C
:100A200080936F0310926E03D0936D03A9E7B3E038
:100A3000EDE4F3E080E0D81391C010924C03809174
:100A40004C03CC0FC82BC0934C0380914B038130D7
:100A500009F088C010924B030E94FC036B017C01DB
:100A600080914C038093BB00809173039091740339
:100A7000A0917503B0917603892B8A2B8B2BA1F063
:100A80000E94FC030091730310917403209175037D
:100A9000309176036C197D098E099F090617170797
:100AA0002807390708F442C08091BC0083FDD8CFE5
:100AB00085EC8093BC000E94FC036B017C0180915B
:100AC0007103823009F450C080916F038F3F09F4A5
:100AD0006FC080916F03803209F46CC080916F0306
:100AE000803309F469C084E026C08091730390913B
:100AF0007403A0917503B0917603892B8A2B8B2BFD
:100B000009F484CF0E94FC038090730390907403D7
:100B1000A0907503B09076036C197D098E099F092A
:100B200086169706A806B90608F070CF8091720362
:100B30000E94CD0485E01092780310929A031092DF
:100B40007703DF91CF911F910F91FF90EF90DF908E
:100B5000CF90BF90AF909F908F9008959D9191936B
:100B60008F5F69CF85EEA5CF809173039091740359
:100B7000A0917503B0917603892B8A2B8B2B09F4F6
:100B80009ECF0E94FC030091730310917403209187
:100B90007503309176036C197D098E099F0906173C
:100BA00017072807390708F08ACFC0CF81E0C3CFE5
:100BB00080E0C1CF82E0BFCF83E0BDCF1F93CF9352
:100BC000DF93FC01A6A1B7A1109721F1142FEC012E
:100BD00080A591E090937703809399031092780316
:100BE00010929A03ED91FC9111970190F081E02D04
:100BF000CD0109958EA19FA1DC01ED91FC910190A1
:100C0000F081E02D612F099581E0DF91CF911F9157
:100C10000C94EE04DF91CF911F910895CF92DF9253
:100C2000EF92FF920F931F93CF93DF93D82FC62F8E
:100C3000613208F098C00E94FC036B017C01809136
:100C4000710381116BC081E0809371038093700305
:100C50009FEF90936F0310926E039C0F90936D0320
:100C600080934C0380914C03DD0FD82BD0934C0321
:100C700080914B03813009F078C010924B030E94A1
:100C8000FC036B017C0180914C038093BB0080913D
:100C9000730390917403A0917503B0917603892B2F
:100CA0008A2B8B2BA1F00E94FC03009173031091FF
:100CB000740320917503309176036C197D098E09B8
:100CC0009F09061717072807390708F448C08091BD
:100CD000BC0083FDD8CF85EC8093BC000E94FC0350
:100CE0006B017C0180917103813009F440C08091D7
:100CF0006E038C1710F4C0916E03EDE4F3E0ABE2E9
:100D0000B3E080E08C1355C08C2FDF91CF911F9101
:100D10000F91FF90EF90DF90CF9008958091730333
:100D200090917403A0917503B0917603892B8A2B5F
:100D30008B2B09F484CF0E94FC0300917303109164
:100D4000740320917503309176036C197D098E0927
:100D50009F09061717072807390708F070CF8091F9
:100D600072030E94CD04C0E0CFCF85EEB5CF809155
:100D7000730390917403A0917503B0917603892B4E
:100D80008A2B8B2B09F4AECF0E94FC0300917303D6
:100D90001091740320917503309176036C197D09CD
:100DA0008E099F09061717072807390708F09ACFF9
:100DB000D6CF91919D938F5FA5CF0895E091D702F3
:100DC0008091D602E81730F4F0E0E55DFC4F8081B9
:100DD00090E008958FEF9FEF08959091D702809152
:100DE000D6022FEF3FEF981748F4E92FF0E0E55DCA
:100DF000FC4F208130E09F5F9093D702C901089596
:100E00008091D6029091D702891B990B0895CF92B9
:100E1000DF92EF92FF920F931F93CF93DF937C01AA
:100E2000CB018A0120917703222389F0EB016B012A
:100E3000C40ED51ECC15DD0569F06991D701ED9181
:100E4000FC910190F081E02DC7010995F3CF642F4B
:100E50000E948804C801DF91CF911F910F91FF90EC
:100E6000EF90DF90CF900895CF93DF931F92CDB78F
:100E7000DEB76983209177032223F9F020919A034A
:100E8000203258F021E030E0FC013383228390E0EF
:100E900080E00F90DF91CF91089580917803E82F43
:100EA000F0E0E758FC4F998190838F5F809378033F
:100EB00080939A0381E090E0ECCF61E0CE0101964F
:100EC0000E948804F7CFCF92DF92EF92FF920F93A8
:100ED0001F93CF93DF93EC01462FE881F9810484BF
:100EE000F585E02D61E070E009958C01CC88DD8806
:100EF000EE88FF880E94FC03688F798F8A8F9B8F12
:100F0000CC8EDD8EEE8EFF8E81E090E0012B11F015
:100F100090E080E0DF91CF911F910F91FF90EF90D3
:100F2000DF90CF9008958F929F92AF92BF92EF92F1
:100F3000FF921F93CF93DF93EC01162FE881F98185
:100F40000484F585E02D462F70E060E009957C0172
:100F500011501230D8F419861A8688889988AA8880
:100F6000BB880E94FC03688F798F8A8F9B8F8C8E41
:100F70009D8EAE8EBF8EC701DF91CF911F91FF90E6
:100F8000EF90BF90AF909F908F9008958C889D8830
:100F9000AE88BF88E6CF61E080ED93E00C949307C4
:100FA000DC0118968C911897481710F04FEF480FF6
:100FB0001B969C911B97992389F017969C911797E4
:100FC000691730F0691B4F5F4817D0F340E0F8CF46
:100FD00019966C9319971A964C931A97FD01E40F82
:100FE000F11D8485680F6068CD010C9493070F9301
:100FF0001F93CF93DF93EC010E9463078C018B85D5
:10100000882399F089858F5F89879F81891768F088
:1010100019868A858F5F8A879885891708F01A86CE
:101020004A8560E0CE010E94D007C801DF91CF91D0
:101030001F910F9108958DEF9FEF089590E080E04C
:10104000089580E480937C0080917A00806480938E
:101050007A0080917A0086FDFCCF90917800809193
:1010600079008927982789278233910588F0883C61
:10107000910580F0803921E0920770F0883522E0F8
:10108000920760F08032934058F484E08F5F0895B7
:1010900080E0FCCF81E0FACF82E0F8CF83E0F6CFAA
:1010A00080E008958091320190E0909376028093E1
:1010B0007502209175023091760282E390E0821BE6
:1010C000930B9093700280936F0208959093800227
:1010D00080937F0280917F0290918002892B11F092
:1010E0000000F8CF0895CF930E942108C09181029B
:1010F000C81303C080E0CF91089585E090E00E947E
:1011000066080E942108C817A9F380938102F3CFD3
:101110000F931F93CF938C01C62FFC0183A161E035
:10112000C0FF60E00E944003F80184A161E0C1FFBC
:1011300060E00E944003F80185A161E0C2FF60E029
:101140000E944003F80186A161E0C3FF60E0CF91F7
:101150001F910F910C944003FC0187A18F3F81F1F7
:1011600090A59E3F51F4662331F060E00E946E032B
:1011700090E080E0089561E0F9CF833041F02BEFFB
:10118000280F223020F027EF280F233068F470E07A
:10119000913019F40E949F03EBCF2FEF30E0A901AB
:1011A000461B570BBA01F6CF662331F0913031F46C
:1011B00061E00E944003DCCF9923D1F360E0F9CFD6
:1011C0008DEF9FEF0895609130018EEC689F602D48
:1011D0001124615080ED93E00E94AC088AE090E019
:1011E0000C946608EF92FF921F93CF93DF93EC016C
:1011F00061E088A10E946E0389A18F3F39F061E010
:101200000E946E0360E089A10E94400361E08AA110
:101210000E946E0360E08AA10E94400361E08BA1FE
:101220000E946E0361E08CA10E946E0361E08DA1BB
:101230000E946E0361E08EA10E946E031FA11F3FFA
:1012400061F188A5813029F560E0812F0E9440037B
:1012500060E0812F0E946E0361E0812F0E946E0387
:1012600061E0812F0E9440038FE090E00197F1F749
:10127000812F0E9417037C0160E0812F0E944003B0
:1012800060E0812F0E946E03EA94EF2811F08EEF48
:1012900088A761E08FA10E946E0390E080E0DF915B
:1012A000CF911F91FF90EF9008958DEF9FEF0895DC
:1012B0000895CF92DF92EF92FF920F931F93CF93F7
:1012C000DF93FC01A6A1B7A11097F1F14530E0F53D
:1012D000142FEC0180A591E09093770380939903FC
:1012E0001092780310929A03ED91FC91119701905E
:1012F000F081E02DCD01099580E00E94EE04612F80
:1013000088A50E940E061092D7028093D60200E0B4
:1013100060E070E0CB011017D1F0CC24D62EE72E80
:10132000F82E8EA19FA1DC01ED91FC910284F38542
:10133000E02D0995BC01990F880B990B6C297D292B
:101340008E299F290F5FE7CF60E070E0CB01DF912E
:10135000CF911F910F91FF90EF90DF90CF90089564
:10136000CF92DF92EF92FF926A017B01422F682FAA
:1013700087EA93E00E9459096C217D218E219F21EB
:10138000CC2059F020E04C2D50E0C0FC05C02F5F70
:101390006A01D594C794F7CFC22E04C0969587955D
:1013A00077956795CA94D2F7FF90EF90DF90CF9032
:1013B0000895CF93DF93EC018EA19FA1009741F197
:1013C00028A531E030937703209399031092780396
:1013D00010929A03DC01ED91FC910190F081E02DD7
:1013E000099580E00E94EE0461E088A50E940E0647
:1013F0001092D7028093D6028EA19FA1DC01ED91BD
:10140000FC910284F385E02D0995DF91CF91089539
:1014100080E0FBCFCF93DF93C62F682F87EA93E05E
:101420000E94D9098C2390E020E04C2F50E0C0FDB1
:1014300005C02F5FEA01D595C795F7CF02C09595F6
:1014400087952A95E2F7DF91CF91089560E284EFC6
:101450000E940A0A811136C08091BF038E3209F1C1
:10146000843381F523E04FEF5FEF6FEF70E086EF9D
:101470000E94B0094091C00328E030E0241B3109EC
:1014800004C095958795779567952A95D2F76093CF
:10149000C1037093C2038093C3039093C40381E09C
:1014A000089522E04FEF5FEF60E070E086EF0E946A
:1014B000B0096093C5037093C6038093C7039093EC
:1014C000C803EDCF80E00895CF93DF93D82FC62FC8
:1014D00064EF87EA93E00E94D9095D2F2C2F90E0FA
:1014E0006D2F70E0D0FD05C09F5F75956795D62F75
:1014F000F7CF01C0220F9A95EAF7482F42274523DC
:10150000482764EF87EA93E0DF91CF910C94DE05E2
:1015100060E284EF0E940A0A81110FC084E3809385
:10152000BF036091C00380E4689FB001112464632D
:101530008FEF0E94640A81E0089580E0089560E2E0
:1015400084EF0E940A0A811109C08EE28093BF03D2
:101550006EE28FE30E94640A81E0089580E00895BE
:101560004F925F926F927F928F929F92AF92BF92B3
:10157000EF92FF921F93CF93DF93EC017B01142F27
:1015800088A161E091E0E916F10409F060E00E94B1
:101590004003612F70E084E0759567958A95E1F7C7
:1015A000CE010E9488088C8C9D8CAE8CBF8C488CA0
:1015B000598C6A8C7B8C0E94FC036419750986091E
:1015C0009709681579058A059B05A8F361E08AA14A
:1015D0000E94400360E08AA10E94400382E0E81676
:1015E000F10469F0612F6F70CE010E94880861E0FC
:1015F0008AA10E94400360E08AA10E94400390E01B
:1016000080E0DF91CF911F91FF90EF90BF90AF905E
:101610009F908F907F906F905F904F9008958F92E2
:101620009F92AF92BF92CF92DF92EF92FF920F9371
:101630001F93CF93DF93FC0121A12F3F09F495C0A5
:101640008B01EC01C48CD58CE68CF78C808C918C52
:10165000A28CB38C0E94FC03681979098A099B0942
:101660006C157D058E059F05A8F360E08BA10E9497
:101670006E0360E08CA10E946E0360E08DA10E9469
:101680006E0360E08EA10E946E0361E001301105DF
:1016900009F060E088A10E94400361E089A10E94F6
:1016A000400361E08AA10E9440038BA10E941703BE
:1016B00010E1019709F010E08CA10E941703019737
:1016C00009F410628DA10E941703019709F41064B8
:1016D0008EA10E941703019709F4106860E08AA1A7
:1016E0000E94400361E08AA10E9440038BA10E94F6
:1016F0001703019709F411608CA10E941703019749
:1017000009F412608DA10E941703019709F4146077
:101710008EA10E941703019709F4186060E08AA166
:101720000E94400361E08BA10E946E0361E08CA1E6
:101730000E946E0361E08DA10E946E0361E08EA1A4
:101740000E946E0360E089A10E944003812F90E017
:10175000DF91CF911F910F91FF90EF90DF90CF908D
:10176000BF90AF909F908F9008958DEF9FEFF0CF37
:10177000EF92FF920F931F93CF93DF93C82F7B01BC
:1017800070E060E080ED93E00E940F0B8C010F771A
:10179000112797FD00E088E0C89FB0011124606424
:1017A00080ED93E00E9493070097E1F4E70188E061
:1017B000E80EF11C699180ED93E00E9463070197A8
:1017C00079F4CE15DF05B1F740E0602F80ED93E0AE
:1017D000DF91CF911F910F91FF90EF900C94D00764
:1017E0008FEF9FEFDF91CF911F910F91FF90EF90BF
:1017F0000895FC0101900020E9F73197AF01481BE3
:10180000590BBC0180ED93E00C94C1027F928F9242
:101810009F92AF92BF92CF92DF92EF92FF920F937F
:101820001F93CF93DF93D0910403C1E0C0930403CF
:101830000E94CB078AE090E00E94660841E060E0E9
:1018400080ED93E00E94D00789E891E00E94F90BB7
:10185000C0933401C12CD12C7601C0E00DEB11E016
:1018600082E1A82E83E0B82E9FE0992E88248394ED
:1018700023E2722E80913401882399F11092340171
:101880008091240390912503A0912603B091270312
:10189000C816D906EA06FB0640F4C0902403D0908F
:1018A0002503E0902603F0902703FF92EF92DF924A
:1018B000CF921F930F93BF92AF920E94741D40E08E
:1018C00065E080ED93E00E94D00782E193E00E9402
:1018D000F90B8DB79EB708960FB6F8949EBF0FBE52
:1018E0008DBFC13009F447C0F0F1C23009F450C0D7
:1018F0000E947308843009F052C01092840241E0C3
:1019000060E080ED93E00E94D00781E991E00E94C1
:10191000F90B1092820286E9809383028091820201
:10192000811104C00E9473088430C1F70E94CB0764
:101930008AE090E00E946608D093040381E08093DF
:1019400029031092280380933401DF91CF911F91D6
:101950000F91FF90EF90DF90CF90BF90AF909F904E
:101960008F907F90089580928402709283021092EB
:101970008202C1E0BDCF80918202882309F4B8CFF2
:10198000109284029092830210928202C2E0B0CF41
:1019900080918202882309F4ABCFC0E0A9CF8AE00E
:1019A00090E00E94660866CF0E945D1D0C94D41CD6
:1019B0000C94D41C85ED8093BC00809173039091AE
:1019C0007403A0917503B09176030796A11DB11D14
:1019D00023E0B695A795979587952A95D1F72091FD
:1019E000BC0024FD03C0109271030895409173035D
:1019F000509174036091750370917603452B462BCB
:101A0000472B69F30097A105B10541F025E32A951D
:101A1000F1F700000197A109B109E1CF80917203AC
:101A20000C94CD041F920F920FB60F9211242F9396
:101A30003F938F939F93AF93BF938091CA029091EE
:101A4000CB02A091CC02B091CD023091C90223E02B
:101A5000230F2D3758F50196A11DB11D2093C90202
:101A60008093CA029093CB02A093CC02B093CD0294
:101A70008091CE029091CF02A091D002B091D1027C
:101A80000196A11DB11D8093CE029093CF02A09329
:101A9000D002B093D102BF91AF919F918F913F91AE
:101AA0002F910F900FBE0F901F90189526E8230FCF
:101AB0000296A11DB11DD2CF1F920F920FB60F92A9
:101AC00011242F933F934F935F936F937F938F9343
:101AD0009F93AF93BF93EF93FF938091B900887F5B
:101AE000803609F44AC0F0F5883209F4A7C018F529
:101AF000803109F49BC0B8F4882309F4F9C0883018
:101B000009F494C0FF91EF91BF91AF919F918F9194
:101B10007F916F915F914F913F912F910F900FBEE9
:101B20000F901F901895883109F488C0803251F7C2
:101B300080936F0314C0803409F49DC040F4803357
:101B4000B9F38833F9F680936F0385ECB0C0803524
:101B500009F485C0883509F496C0883499F60E9446
:101B6000DA0CD0CF883909F48CC038F5883729F0E1
:101B700050F4883611F0803729F683E080937103A2
:101B80001092C80257C0883809F47BC0803919F018
:101B9000803809F0B7CF8091C802803208F071C058
:101BA000E091C80281E08E0F8093C8028091BB0053
:101BB000F0E0E855FD4F80833DC0803B39F0E0F414
:101BC000803A09F479C0883A09F09CCF84E0809388
:101BD00071031092A7021092A602E091D402F09134
:101BE000D50209958091A60281110FC081E08093F2
:101BF000A6021092860209C0803C09F4A6CF883C58
:101C000009F4A3CF883B09F07DCFE091A70281E0E2
:101C10008E0F8093A702F0E0EA57FD4F80818093FA
:101C2000BB009091A7028091A60229C080914C032D
:101C30008093BB0085EC8093BC0064CF90916E03D1
:101C400080916D03981758F5E0916E0381E08E0F37
:101C500080936E03F0E0E35BFC4F8081E9CFE0917D
:101C60006E0381E08E0F80936E038091BB00F0E0E5
:101C7000E35BFC4F808390916E0380916D03981716
:101C8000C8F285E8D8CFE0916E0381E08E0F809393
:101C90006E038091BB00F0E0E35BFC4F808380919A
:101CA000700381115CCF81E080934B0384EA8093C1
:101CB000BC001092710326CF85EC8093BC0010927B
:101CC00071038091C802803230F4E091C802F0E0E4
:101CD000E855FD4F10826091C80270E0E091D20299
:101CE000F091D30288EA92E009951092C8020ACFD7
:101CF00010926F0334CF1F920F920FB60F921124E0
:101D00002F933F934F935F936F937F938F939F9303
:101D1000AF93BF93EF93FF9380917F0290918002E6
:101D2000892B49F080917F029091800201979093D6
:101D3000800280937F0280917E028F5F8A3099F0CB
:101D400080937E02FF91EF91BF91AF919F918F9110
:101D50007F916F915F914F913F912F910F900FBEA7
:101D60000F901F90189510927E0280917D028F5FD8
:101D700080937D02843160F080910203909103038F
:101D8000449730F484E190E090930303809302033E
:101D900080918302882351F0809183028150809347
:101DA0008302811103C081E08093820280917C02D2
:101DB0008F5F843619F080937C02C4CF10927C022E
:101DC00010922403109225031092260310922703E9
:101DD00090E080E0FC01EE0FFF1FE852FD4F2081F4
:101DE0003181409124035091250360912603709125
:101DF0002703420F531F611D711D4093240350930D
:101E0000250360932603709327030196853191057E
:101E100009F7609124037091250380912603909126
:101E2000270323E030E040E050E00E94CF1B2093E6
:101E30002403309325034093260350932703809176
:101E4000240390912503A0912603B09127038034A9
:101E50009244AF40B10560F08FE392E4AFE0B0E0B0
:101E60008093240390932503A0932603B093270324
:101E7000409124035091250360912603709127031C
:101E80008091090390910A03A0910B03B0910C0378
:101E900084179507A607B70780F4809124039091D3
:101EA0002503A0912603B091270380930903909303
:101EB0000A03A0930B03B0930C03409124035091A9
:101EC000250360912603709127038091310190E0F2
:101ED000B0E0A0E0481759076A077B0720F181E0CE
:101EE00080932A0383E190E0FC01EE0FFF1FE8528C
:101EF000FD4F20813181FC01EE0FFF1FE652FD4FA7
:101F000031832083019780F71092D9021092D80272
:101F1000809108038F5F8C3388F48093080381E0FD
:101F2000809334010FCF10922A03809105038823F8
:101F3000C9F21092050310922903D4CF109208031E
:101F4000809107038F5F8C3318F480930703E7CFEA
:101F500010920703809106038F5F843618F48093F4
:101F60000603DDCF1092060310920E0310920F03AA
:101F70001092100310921103D2CF1F920F920FB63E
:101F80000F9211242F938F939F93AF93BF938091C0
:101F9000D8029091D902019649F08091D80290918F
:101FA000D90201969093D9028093D80280910E03B2
:101FB00090910F03A0911003B09111030196A11D00
:101FC000B11D80930E0390930F03A0931003B09361
:101FD00011038837984DA544B64060F087E798ED27
:101FE000A5E4B6E080930E0390930F03A093100333
:101FF000B09311038091020390910303449730F44E
:1020000084E190E0909303038093020380910403A2
:10201000811107C080917B02811103C081E0809310
:102020007B02BF91AF919F918F912F910F900FBE27
:102030000F901F9018951F920F920FB60F921124B8
:102040008F939F93AF93BF9380917A028130D1F1A8
:1020500060F18230F1F1833009F443C09091840241
:1020600080917702992309F4ACC0813009F45CC0F7
:1020700008F457C0823009F46CC0833009F487C07B
:1020800080917B02882309F4A3C0419A8091330197
:1020900080936E0210927B02BF91AF919F918F91BE
:1020A0000F900FBE0F901F901895809128038230DB
:1020B000A9F28091020390910303892B79F281E0C8
:1020C00080937A025B9A80917A028F5F80937A0282
:1020D000C5CF5B9883E690E0909379028093780275
:1020E000F2CF8091780290917902019790937902D2
:1020F00080937802892B09F0B1CF10927D028091F4
:10210000020390910303892B49F08091020390917F
:1021100003030197909303038093020310927A02C2
:102120009DCF81E080937702419A809175029091D2
:102130007602B0E0A0E08093710290937202A093C7
:102140007302B0937402809177028F5F809377025D
:1021500097CF8091710290917202A0917302B09119
:1021600074020197A109B1098093710290937202E0
:10217000A0937302B0937402892B8A2B8B2B09F0E6
:102180007FCF419880916F0290917002D2CF809161
:10219000710290917202A0917302B0917402019742
:1021A000A109B1098093710290937202A093730206
:1021B000B0937402892B8A2B8B2B09F061CF81E0BD
:1021C000C5CF882309F45CCF41981092770258CF8D
:1021D00080916E02882309F45FCF815080936E0254
:1021E00081115ACF419858CF0F931F93CF93DF930C
:1021F0000BE913E0E8011B821A8288EE93E0A0E06D
:10220000B0E08C839D83AE83BF838FE391E099839D
:102210008883C0EDD3E01B821A8281E691E0998326
:1022200088831F82188680ED97E0A0E0B0E0888B5D
:10223000998BAA8BBB8B86E290E0A0E0B0E08C8B00
:102240009D8BAE8BBF8B1C861D861E861F861B86B4
:102250000E94FC03688F798F8A8F9B8F1C8E1D8E46
:102260001E8E1F8E87E791E09983888388E088A37C
:1022700089E08AA38FEF89A384E08BA385E08CA3F8
:1022800086E08DA387E08EA38AE08FA318A6E7EAF5
:10229000F3E0108E118E128E138E148E158E168E04
:1022A000178E10A211A212A213A214A215A2A9EABB
:1022B000B3E086E1ED0119928A95E9F717A306A329
:1022C00087E780A781E591E091838083DF91CF91BB
:1022D0001F910F910895CF93DF93CDB7DEB7A097ED
:1022E0000FB6F894DEBF0FBECDBF789484B5826080
:1022F00084BD84B5816084BD85B5826085BD85B5AA
:10230000816085BD80916E00816080936E00109227
:1023100081008091810082608093810080918100A2
:102320008160809381008091800081608093800033
:102330008091B10084608093B1008091B000816091
:102340008093B00080917A00846080937A008091BD
:102350007A00826080937A0080917A008160809315
:102360007A0080917A00806880937A001092C10090
:10237000259A2D98539A5B98399A419852985A9A6F
:102380000E94520816BC82E084BD93E095BD9AEF8E
:1023900097BD90916E00926090936E001092B20083
:1023A0008093B0008093B10084E18093B30080916A
:1023B00070008260809370008091DC0381110CC0FA
:1023C0008091DD03811108C08091DE03811104C07A
:1023D0008091DF03882321F08091D7038F7E59F00D
:1023E0001092DC0380E48093DD0380E18093DE03C0
:1023F00080E58093DF0382E08093D80380E18093BF
:10240000D70364E670E080E090E00E94210410921F
:10241000D40380ED93E00E94F208892B09F059C0A3
:102420008091D803823028F08091D4038860809313
:10243000D40340E362E070E080ED93E00E94B00AD4
:1024400065E070E080E090E00E94210440E362E0FB
:1024500070E080ED93E00E94B00A61E070E080E0FF
:1024600090E00E94210440E362E070E080ED93E0A0
:102470000E94B00A61E070E080E090E00E942104D8
:102480008091D40384FD07C040E262E070E080EDFB
:1024900093E00E94B00A6091D403606280ED93E003
:1024A0000E94930784E08093D5036CE080ED93E075
:1024B0000E9493070E94CB0782E08093D60366E0D8
:1024C00080ED93E00E9493076FEF80ED93E00E9410
:1024D000AC080E94E30840E060E080ED93E00E94D9
:1024E000D00780EA91E00E94F90B41E060E080EDC6
:1024F00093E00E94D0078FEA91E00E94F90B1092BE
:10250000D7021092D6021092780310929A030E947A
:10251000AF048FEB92E09093D5028093D40280ECCD
:1025200092E09093D3028093D2026FEF80ED0E94ED
:102530000A0A853509F0CAC022E04FEF5FEF60E07C
:1025400070E08AEA0E94B00969837A838B839C8356
:1025500022E04FEF5FEF60E070E08CEA0E94B0098C
:102560006D837E838F83988722E04FEF5FEF60E07B
:1025700070E08EEA0E94B00969877A878B879C8712
:1025800022E04FEF5FEF60E070E080EB0E94B00967
:102590006D877E878F87988B22E04FEF5FEF60E03B
:1025A00070E082EB0E94B009698B7A8B8B8B9C8BDD
:1025B00022E04FEF5FEF60E070E084EB0E94B00933
:1025C0006D8B7E8B8F8B988F22E04FEF5FEF60E0FB
:1025D00070E086EB0E94B009698F7A8F8B8F9C8F99
:1025E00022E04FEF5FEF60E070E088EB0E94B009FF
:1025F0002B0122E04FEF5FEF60E070E08AEB0E947A
:10260000B0094B0122E04FEF5FEF60E070E08CEB30
:102610000E94B0096D8F7E8F8F8F98A322E04FEFBD
:102620005FEF60E070E08EEB0E94B00929813A8193
:102630003093AA032093A9032D813E813093AC03EC
:102640002093AB0329853A853093AE032093AD03E5
:102650002D853E853093B0032093AF0329893A89B5
:102660003093B2032093B1032D893E893093B40394
:102670002093B303298D3A8D3093B6032093B5038D
:102680005092B8034092B7039092BA038092B90374
:102690002D8D3E8D3093BC032093BB037093BE03FE
:1026A0006093BD0381E080930D0383E08093C003BA
:1026B0000E949F0A0E94880A8AE090E00E946608B1
:1026C0000E94260A8823C1F30E945F0288EE93E0ED
:1026D00090930303809302030E9466080E94CB0735
:1026E0008AE090E00E94660868E271E080E00E9463
:1026F000B80B60E271E081E00E94B80B68E171E024
:1027000082E00E94B80B60E171E083E00E94B80BA8
:1027100068E071E084E00E94B80B60E071E085E061
:102720000E94B80B83E08093690081E08DBB40E399
:10273000442E4AE2542E612C712C58E3252E52E08F
:10274000352E6BE5A62E62E0B62E36EF832E31E0F5
:10275000932E80912A03882331F0809129038111DF
:1027600002C00E94060C80913401882309F469C1DB
:102770001092340180912803813009F45FC008F47D
:1027800041C0823009F471C040E060E080ED93E028
:102790000E94D00782E193E00E94F90B8091280308
:1027A000813009F4CBC008F4AFC0823009F4DDC039
:1027B0008091280341E0823009F45BC168E080ED3C
:1027C00093E00E94D00782E193E00E94F90B41E080
:1027D00060E080ED93E00E94D00780912903882378
:1027E00009F41EC180910503882309F406C163E042
:1027F00080ED93E00E94F70763E080ED93E00E9494
:10280000F707FFC08091240390912503A091260330
:10281000B0912703BF93AF939F938F9388EB91E081
:102820009F938F9382E193E09F938F930E94741DF7
:102830000FB6F894DEBF0FBECDBFA6CF20910E031A
:1028400030910F034091100350911103A5E1B0E0C6
:102850000E94101CA30192010E94CF1B5F934F9313
:102860003F932F9387EC91E0DBCF80910D03811193
:1028700007C066ED71E082E193E00E946D1D84CF98
:102880000E94880A8823A9F38AE090E00E946608E3
:102890000E94260A8823C1F30E9436016B017C0145
:1028A00020E836EE45EC57E40E942A190E94681A87
:1028B000905823EC35EF44E051E40E94B01A20E038
:1028C00030E842E953E40E94B01A28E631E94DEEBF
:1028D0005CE30E942A1923EC35EF4CE151E40E949D
:1028E0002A190E949C197F936F9323EF3AEC45EFCE
:1028F0005BE3C701B6010E94B01A0E949C197F9346
:102900006F9387EE91E08CCF8091090390910A0339
:10291000A0910B03B0910C03BF93AF939F938F9340
:102920009F928F9282E193E09F938F930E94741DF8
:102930000FB6F894DEBF0FBECDBF3ACF809108032B
:102940001F928F93809107031F928F9380910603AC
:102950001F928F938DEF91E09F938F9382E193E08D
:102960009F938F930E94741DE3CF80910D0381117B
:1029700007C06CE072E082E193E00E946D1D18CF09
:102980000E949F0A8823A9F38AE090E00E946608CB
:102990000E94260A8823C1F320E030E048EC52E48C
:1029A000C701B6010E942A190E949C197F936F9358
:1029B00085E192E09F938F9382E193E09F938F93C1
:1029C0000E94741D0E945F020AE113E021E046E0CC
:1029D0000E949E166DE172E082E193E00E94621D0A
:1029E0006FE172E082E193E00E94621D0F900F9010
:1029F0000F900F900F900F90DBCE84EE91E00E942D
:102A0000F90B41E063E080ED93E00E94D0078091F4
:102A10000403882361F084EE91E00E94F90B11C059
:102A200060E080ED93E00E94F70761E0E6CE64E0AD
:102A300080ED93E00E94F70765E080ED93E00E944F
:102A4000F7070E947308833009F49FC0D0F48130E7
:102A500009F4E4C0823009F485C08AE090E00E9465
:102A6000660880E090E0892B09F473CE0E94000094
:102A70006CCE60E080ED93E00E94D00782E193E0AD
:102A8000CCCF843009F4B4C0853039F70E94CB072D
:102A90008AE090E00E94660881E08093340110E0B3
:102AA00080912A03882331F080912903811102C08B
:102AB0000E94060C80913401882309F441C01092D1
:102AC000340141E060E080ED93E00E94D00762E0D5
:102AD00080ED93E00E94F70741E062E080ED93E033
:102AE0000E94D007812F90E001969F938F9321E25F
:102AF00032E03F932F9322E133E03F932F930E94E4
:102B0000741D82E193E00E94F90B0F900F900F90DB
:102B10000F900F900F90113009F491C008F486C007
:102B2000123009F49FC0133009F4A3C040E060E004
:102B300080ED93E00E94D00782E193E00E94F90BC0
:102B40000E947308833009F4D9C008F099C081301D
:102B500009F4ACC0823009F4A2C08AE090E00E947F
:102B600066089ECF809128038F5F8093280383306F
:102B700040F01092280388EE93E090930303809333
:102B8000020381E08093340168CF80912803882379
:102B900089F08130B1F710920E0310920F0310925A
:102BA0001003109211031092080310920703109261
:102BB0000603E7CF90E080E0FC01EE0FFF1FE85234
:102BC000FD4F11821082019685319105A9F710926F
:102BD00024031092250310922603109227031092CB
:102BE000090310920A0310920B0310920C03C9CF31
:102BF0009091290380912A03882351F0913009F69E
:102C000081E090910503911180E080930503B9CF95
:102C100081E0911180E080932903B3CF81E090910E
:102C20000403911180E080930403ABCF80913301C2
:102C30001F928F9326E232E03F932F9306C080913C
:102C400032011F928F933F922F9222E133E03F9304
:102C50002F930E94741D0F900F900F900F900F9064
:102C60000F9064CF809131011F928F932AE432E05C
:102C7000E3CF809130011F928F93BF92AF92E5CF47
:102C80008430A1F0853009F068CF1F5F143070F0F8
:102C90000E94CB078AE090E00E94660872CF113054
:102CA00089F040F01230C1F01330F1F081E08093F0
:102CB000340153CF809133018530C0F78F5F80930B
:102CC0003301F4CF80913201853080F78F5F80939C
:102CD00032010E945208EACF809131018A3F30F7D9
:102CE000865F80933101E2CF80913001853018F406
:102CF0008F5F809330010E94E308D8CF113089F0B4
:102D000050F01230A1F0133089F680913001882301
:102D100091F38150EECF80913301823038F28150AF
:102D2000CECF80913201823008F28150D0CF809195
:102D30003101893208F4BACF8A50D3CFEF920F9382
:102D40001F93CF93DF93E80134E047FD34E1042E75
:102D5000000C550B57FF03C0519541955109E32EC7
:102D6000022F242FAE010E94BC16CE01DF91CF911D
:102D70001F910F91EF900895A9E0B0E0E2ECF6E129
:102D80000C94F9186A01F22EB02E102FFBE3AF2E2F
:102D9000A01608F41BE31F5F012F27E0AE014F5F71
:102DA0005F4F0E941B18BC018981982F9970913048
:102DB00009F43FC09BE2E1FC04C09E2D9170E0FC51
:102DC0003AC05E2D5071E82FE87083FF46C084E062
:102DD000911101C083E0EF2DE81B8F1508F0E0E0B2
:102DE000D6018E2F20E2552351F1992329F0D601E7
:102DF0009C93C60101966C0196012D5F3F4FE2FE48
:102E000024C08EE4D6018C9391E411969C93119783
:102E100012968C93D9018E2F90E281111BC0E20F84
:102E2000F32FF11D10828EEF9FEF2996ECE00C94AA
:102E300015199DE2C6CF90E2C4CF2D938150811128
:102E4000FCCFCE0ED11CE0E0D0CF8EE6D6018C9325
:102E500091E6DBCF9D938150E0CF482F447082FFF5
:102E60003DC084E0911101C083E08F1510F4EF2D77
:102E7000E81BD6018E2F20E2552309F1992329F072
:102E8000D6019C93C60101966C0196012D5F3F4FC0
:102E9000E2FE1BC089E4D6018C938EE411968C93DC
:102EA000119786E412968C93D9018E2F90E2882395
:102EB00009F4B5CF9D938150FACF2D9381508111A4
:102EC000FCCFCE0ED11CE0E0D9CF89E6D6018C93A1
:102ED0008EE611968C93119786E6E4CF9B0177FFDF
:102EE00002C030E020E0A1E0B0E0911102C0B0E00B
:102EF000A0E0F9013196AE0FBF1F8B2C912CBB20A7
:102F000009F461C05401EFEFAE1ABE0AAA0DBB1D51
:102F1000FA161B0619F014F04F2D4A1B511188C0E8
:102F2000E3FC59C07601A42FB0E2A1114FC0C40E3A
:102F3000D11C992309F45BC040E0D6011196F6013B
:102F400090836D01552309F448C0012F060F9A8123
:102F5000582F507184FF03C0913309F401501016AB
:102F60000CF047C0093008F008E0EEE2FE2E5B01ED
:102F7000A01AB10885019194819491082F3F3207DE
:102F800029F4D601FC92F60131966F01621773079E
:102F900094F1021713077CF5DB01A21BB30BAA24E3
:102FA000A394B12CAC0EBD1EAA0DBB1D11968C9125
:102FB00021503109D601119628153905F4F0F60192
:102FC00080836D01DBCFB12CA12CA0CFF701B19391
:102FD0007F01A150AACF9111B0CFD601942F50E319
:102FE00002C05D9391509111FCCFC40ED11C40E002
:102FF000ACCF01E0BACF80E3DBCF6217730731F4C7
:10300000963388F4953311F4552369F0F6018083E3
:10301000FD01842F90E2811108C0A40FB11D1C9204
:1030200090E080E002CF81E3F1CF91938150F3CF24
:10303000911183CF8ACF283008F027E03327DA01B7
:10304000990F311D87FD916000966105710539F476
:1030500032602E5F3D9330E32A95E1F708959F3F5C
:1030600030F080387105610509F03C5F3C5F3D93AD
:10307000913008F08068911DDF93CF931F930F93D9
:10308000FF92EF92192F987F9695E92F9695969536
:10309000E90FFF27E45EFE4F99273327EE24FF2434
:1030A000A701E70105900894079428F4360FE71E5E
:1030B000F81E491F511D660F771F881F991F069420
:1030C000A1F70590079428F4E70EF81E491F561F34
:1030D000C11D770F881F991F661F0694A1F70590E1
:1030E000079428F4F80E491F561FC71FD11D880FDB
:1030F000991F661F771F0694A1F70590079420F487
:10310000490F561FC71FD81F990F661F771F881FAB
:103110000694A9F784911095177041F0D695C7953C
:1031200057954795F794E7941A95C1F7E2ECF0E0CC
:1031300068941590159135916591959105907FE270
:103140007395E118F10A430B560BC90BD009C0F770
:10315000E10CF11E431F561FC91FD01D7EF47033B2
:1031600011F48A95E6CFE894015030F0080F0AF484
:103170000027021708F4202F2395022F7A3328F016
:1031800079E37D932A95E9F710C07D932A9589F616
:10319000069497956795379517951794E118F10A56
:1031A000430B560BC90BD00998F023957E9173956C
:1031B0007A3308F070E37C932013B8F77E91706146
:1031C0007D9330F0839571E37D9370E32A95E1F769
:1031D0001124EF90FF900F911F91CF91DF919927CC
:1031E00087FD909508952F923F924F925F926F9234
:1031F0007F928F929F92AF92BF92CF92DF92EF9287
:10320000FF920F931F93CF93DF93CDB7DEB7CA1B07
:10321000DB0B0FB6F894DEBF0FBECDBF09942A8832
:10322000398848885F846E847D848C849B84AA84DA
:10323000B984C884DF80EE80FD800C811B81AA8167
:10324000B981CE0FD11D0FB6F894DEBF0FBECDBF32
:10325000ED0108950E943E190C94261A0E941F1A2F
:1032600058F00E94181A40F029F45F3F29F00C949E
:103270000F1A51110C945A1A0C94151A0E94371AED
:1032800068F39923B1F3552391F3951B550BBB2795
:10329000AA2762177307840738F09F5F5F4F220FDA
:1032A000331F441FAA1FA9F335D00E2E3AF0E0E8D1
:1032B00032D091505040E695001CCAF72BD0FE2F1B
:1032C00029D0660F771F881FBB1F261737074807AF
:1032D000AB07B0E809F0BB0B802DBF01FF27935867
:1032E0005F4F3AF09E3F510578F00C940F1A0C9402
:1032F0005A1A5F3FE4F3983ED4F386957795679525
:10330000B795F7959F5FC9F7880F911D969587959B
:1033100097F90895E1E0660F771F881FBB1F6217BA
:1033200073078407BA0720F0621B730B840BBA0B78
:10333000EE1F88F7E09508950E94A3196894B111D3
:103340000C945A1A08950E943F1A88F09F5798F0DB
:10335000B92F9927B751B0F0E1F0660F771F881F9A
:10336000991F1AF0BA95C9F714C0B13091F00E94B4
:10337000591AB1E008950C94591A672F782F8827AD
:10338000B85F39F0B93FCCF3869577956795B395DB
:10339000D9F73EF490958095709561957F4F8F4F4A
:1033A0009F4F0895E89409C097FB3EF4909580954F
:1033B000709561957F4F8F4F9F4F9923A9F0F92FFB
:1033C00096E9BB279395F695879577956795B79579
:1033D000F111F8CFFAF4BB0F11F460FF1BC06F5F5F
:1033E0007F4F8F4F9F4F16C0882311F096E911C071
:1033F000772321F09EE8872F762F05C0662371F092
:1034000096E8862F70E060E02AF09A95660F771FA5
:10341000881FDAF7880F9695879597F9089597F999
:103420009F6780E870E060E008959FEF80EC08956A
:1034300000240A9416161706180609060895002493
:103440000A9412161306140605060895092E03940D
:10345000000C11F4882352F0BB0F40F4BF2B11F481
:1034600060FF04C06F5F7F4F8F4F9F4F089557FDE0
:103470009058440F551F59F05F3F71F04795880FE2
:1034800097FB991F61F09F3F79F087950895121679
:1034900013061406551FF2CF4695F1DF08C0161625
:1034A00017061806991FF1CF8695710561050894D6
:1034B0000895E894BB2766277727CB0197F90895ED
:1034C00016F00C948A1B0C94151A68940C940F1A1D
:1034D0000E943F1AA8F39923C1F3AEF3DF93CF9371
:1034E0001F930F93FF92C92FDD2788232AF021977E
:1034F000660F771F881FDAF720E030E040E85FEBC7
:103500009FE3883920F0803E38F021968F770E9423
:103510001E1BE8E6F0E004C00E941E1BE5E9F0E097
:103520000E94981B8B01BE01EC01FB2E6F577109A5
:103530007595771F880B990B0E94D41928E132E703
:1035400041E35FE30E94C31AAF2D9801AE01FF90E3
:103550000F911F91CF91DF910E94351B0C94261A79
:103560000E94C31A0C94261A0E94181A38F00E945E
:103570001F1A20F0952311F00C940F1A0C94151AB1
:1035800011240C945A1A0E94371A70F3959FC1F3B4
:10359000950F50E0551F629FF001729FBB27F00D01
:1035A000B11D639FAA27F00DB11DAA1F649F662756
:1035B000B00DA11D661F829F2227B00DA11D621FA5
:1035C000739FB00DA11D621F839FA00D611D221F5F
:1035D000749F3327A00D611D231F849F600D211D43
:1035E000822F762F6A2F11249F5750409AF0F1F0C6
:1035F00088234AF0EE0FFF1FBB1F661F771F881F2F
:1036000091505040A9F79E3F510580F00C940F1A3D
:103610000C945A1A5F3FE4F3983ED4F3869577955D
:103620006795B795F795E7959F5FC1F7FE2B880FD4
:10363000911D9695879597F908955058BB27AA270D
:103640000E94351B0C94261A0E94181A38F00E940A
:103650001F1A20F039F49F3F19F426F40C94151A20
:103660000EF4E095E7FB0C940F1AE92F0E94371A2D
:1036700058F3BA17620773078407950720F079F4A7
:10368000A6F50C94591A0EF4E0950B2EBA2FA02D26
:103690000B01B90190010C01CA01A0011124FF27FF
:1036A000591B99F0593F50F4503E68F11A16F040FA
:1036B000A22F232F342F4427585FF3CF46953795F9
:1036C0002795A795F0405395C9F77EF41F16BA0BBE
:1036D000620B730B840BBAF09150A1F0FF0FBB1F6C
:1036E000661F771F881FC2F70EC0BA0F621F731FB5
:1036F000841F48F4879577956795B795F7959E3F12
:1037000008F0B0CF9395880F08F09927EE0F9795A2
:10371000879508959F3F31F0915020F487957795D4
:103720006795B795880F911D9695879597F9089598
:10373000DF93CF931F930F93FF92EF92DF927B0162
:103740008C01689406C0DA2EEF010E94C31AFE01B4
:10375000E894A5912591359145915591A6F3EF01F6
:103760000E94351BFE019701A801DA9469F7DF90EA
:10377000EF90FF900F911F91CF91DF910895DB01A2
:103780008F939F930E94101CBF91AF91A29F800DB9
:10379000911DA39F900DB29F900D11240895A1E259
:1037A0001A2EAA1BBB1BFD010DC0AA1FBB1FEE1FBB
:1037B000FF1FA217B307E407F50720F0A21BB30B06
:1037C000E40BF50B661F771F881F991F1A9469F782
:1037D00060957095809590959B01AC01BD01CF01DE
:1037E0000895052E97FB1EF400940E94081C57FDB7
:1037F00007D00E94CF1B07FC03D04EF40C94081C8A
:1038000050954095309521953F4F4F4F5F4F08950C
:1038100090958095709561957F4F8F4F9F4F08953C
:103820000E94291CA59F900DB49F900DA49F800D10
:10383000911D11240895B7FF0C94101C0E94101CB8
:10384000821B930B0895EE0FFF1F0590F491E02D5E
:103850000994A29FB001B39FC001A39F700D811D69
:103860001124911DB29F700D811D1124911D089589
:103870000F931F93CF93DF938230910510F482E072
:1038800090E0E091FB03F091FC0330E020E0B0E039
:10389000A0E0309799F42115310509F44AC0281B9E
:1038A000390B24303105D8F58A819B81611571056A
:1038B00089F1FB0193838283FE0111C04081518114
:1038C0000281138148175907E0F04817590799F406
:1038D000109761F012960C93129713961C933296E0
:1038E000CF01DF91CF911F910F9108950093FB03BA
:1038F0001093FC03F4CF2115310551F04217530703
:1039000038F0A901DB019A01BD01DF01F801C1CF47
:10391000EF01F9CF9093FC038093FB03CDCFFE0121
:10392000E20FF31F81939193225031093983288349
:10393000D7CF2091F9033091FA03232B41F4209142
:103940003701309138013093FA032093F903209125
:103950003501309136012115310541F42DB73EB7BF
:103960004091390150913A01241B350BE091F90344
:10397000F091FA03E217F307A0F42E1B3F0B281770
:10398000390778F0AC014E5F5F4F2417350748F0D8
:103990004E0F5F1F5093FA034093F9038193919365
:1039A0009FCFF0E0E0E09CCFCF93DF930097E9F06A
:1039B000FC01329713821282A091FB03B091FC03A9
:1039C000ED0130E020E01097A1F420813181820FD9
:1039D000931F2091F9033091FA032817390709F052
:1039E00061C0F093FA03E093F903DF91CF9108955A
:1039F000EA01CE17DF07E8F54A815B819E01411598
:103A00005105B1F7E901FB83EA8349915991C40F4C
:103A1000D51FEC17FD0761F4808191810296840F18
:103A2000951FE90199838883828193819B838A838F
:103A3000F0E0E0E012968D919C9113970097B9F514
:103A40002D913C911197CD010296820F931F2091E9
:103A5000F9033091FA032817390739F6309751F5F1
:103A60001092FC031092FB03B093FA03A093F903A6
:103A7000BCCFD383C28340815181840F951FC81767
:103A8000D90761F44E5F5F4F88819981480F591FB4
:103A9000518340838A819B819383828321153105E1
:103AA00009F0B0CFF093FC03E093FB039ECFFD0140
:103AB000DC01C0CF13821282D7CF81E090E0F8946E
:103AC0000C941520FB01DC010D900020E9F7119703
:103AD00001900D920020E1F70895FB01DC010190B7
:103AE0000D920020E1F70895AEE0B0E0EAE7FDE1D5
:103AF0000C9401190D891E8986E08C831A83098331
:103B00008FEF9FE79E838D83AE01475E5F4F6F8986
:103B1000788DCE0101960E94971D2F813885020F66
:103B2000131FF80110822E96E4E00C941D19ABE0EF
:103B3000B0E0EDE9FDE10C94F3187C013B018A0152
:103B4000FC0117821682838181FFC8C1CE010196D4
:103B50005C01F7019381F30193FD859193FF8191BE
:103B60003F01882309F453C1853239F493FD8591CF
:103B700093FF81913F01853229F4B70190E00E94C3
:103B8000871FE7CF912C212C312CFFE1F31538F062
:103B90008B3211F190F4803209F1833229F137FC34
:103BA0003CC020ED280F2A3050F536FE20C08AE0B8
:103BB000989E200D1124922E06C08D3291F08033F4
:103BC00071F7689430F8F30193FD859193FF81912B
:103BD0003F018111DACF21C0689431F8689432F83E
:103BE000F2CF689433F8EFCF689434F8ECCFEAE082
:103BF0002E9E200D1124222E689435F8E4CF8E32AB
:103C000029F436FC04C1689436F8DDCF8C3619F4FB
:103C1000689437F8D8CF8836B1F2982F9F7D9554A5
:103C20009330E0F08336A1F18337C1F1833509F099
:103C300063C02801F2E04F0E511CF801C080D18012
:103C4000692D70E036FC02C06FEF7FEFC6010E9465
:103C5000711F4C01689437F882010AC00C5F1F4F36
:103C6000FFE3F98388248394912C6501E89437F865
:103C700033FE2DC0522C8114910471F5552009F4A6
:103C800068CFB70180E290E00E94871F5A94F6CF78
:103C9000F801808189830E5F1F4FE4CF2801F2E095
:103CA0004F0E511CF801C080D180692D70E036FCA8
:103CB00002C06FEF7FEFC6010E947C1F4C018201A2
:103CC000D5CFB70180E290E00E94871F2A94281484
:103CD000190409F0B0F7CECFF60137FC859137FE15
:103CE00081916F01B70190E00E94871F51105A9493
:103CF000F1E08F1A9108BFCF843619F0893609F0A8
:103D000077C0F80137FE6BC0608171818281938139
:103D10000C5F1F4FF32DFF763F2E97FF09C0909544
:103D20008095709561957F4F8F4F9F4F689437F8BE
:103D30002AE030E0A5010E94B71FC82ECA188C2CBB
:103D4000432C36FE0CC0E89440F8C91440F434FE0D
:103D500005C032FC03C0F32DFE7E4F2E892C44FE9D
:103D600095C0FE01EC0DF11D8081803309F087C004
:103D7000242D297E422E842D8870582E43FC95C018
:103D800040FE8FC09C2C821418F42C0C922C981896
:103D900044FE91C0B70180E390E00E94871F42FE7D
:103DA00009C088E790E041FE02C088E590E0B701D5
:103DB0000E94871FC91408F48AC0CA94D12C9FEFAF
:103DC000C91AD90ACA0CDB1CF60182916F01B7012E
:103DD00090E00E94871FAC14BD04B1F74FCF608103
:103DE0007181072E000C880B990B0E5F1F4F92CF2D
:103DF000D32CE894D4F82AE030E0853739F1232D2C
:103E0000297FD22E8F3601F148F48835A9F0F701C9
:103E1000868197812B96E2E10C940F19803749F047
:103E20008837A9F7D4FE02C06894D2F820E130E0C8
:103E30000DC06894D4F8F6CF34FE03C0822F86609C
:103E4000D82E20E132E002C028E030E0F801D7FEB1
:103E50000FC060817181828193810C5F1F4FA5012A
:103E60000E94B71FC82ECA183D2CE89437F867CFB8
:103E70006081718190E080E00E5F1F4FF0CF42FCC7
:103E800002C0839478CF8394839475CF842D8678F1
:103E900009F471CFF6CFB70180E290E00E94871F4E
:103EA00083948214C0F3512C73CF522C581882146F
:103EB00008F46ECFF8CF842D867809F47BCF8BE29F
:103EC00041FE80E247FC8DE2B70190E071CFB7017F
:103ED00080E390E00E94871F9A946CCF8FEF9FEF52
:103EE00099CFFC010590615070400110D8F7809582
:103EF00090958E0F9F1F0895FC01615070400190B6
:103F00000110D8F7809590958E0F9F1F08950F93FD
:103F10001F93CF93DF93182F092FEB018B8181FD26
:103F200009C01FEF0FEF812F902FDF91CF911F91CD
:103F30000F91089582FF14C02E813F818C819D8155
:103F4000281739073CF4E881F981CF01019699835C
:103F5000888310838E819F8101969F838E83E3CF18
:103F6000E885F985812F0995892BA1F3DACFFA012C
:103F7000AA27283051F1203181F1E8946F936E7FA8
:103F80006E5F7F4F8F4F9F4FAF4FB1E03ED0B4E099
:103F90003CD0670F781F891F9A1FA11D680F791FDA
:103FA0008A1F911DA11D6A0F711D811D911DA11DEB
:103FB00020D009F468943F912AE0269F11243019FB
:103FC000305D3193DEF6CF010895462F4770405D96
:103FD0004193B3E00FD0C9F7F6CF462F4F70405D45
:103FE0004A3318F0495D31FD4052419302D0A9F7A0
:103FF000EACFB4E0A6959795879577956795BA959A
:10400000C9F700976105710508959B01AC010A2E5F
:1040100006945795479537952795BA95C9F7620F36
:0E402000731F841F951FA01D0895F894FFCFF5
:10402E0000000E0A0A1B00000001030F0F0301001F
:10403E000000000000000015001F001F001F000000
:10404E000004120A0A12040000040E0E0E1F0400D1
:10405E0004320303010000FD038000000000003461
:10406E000707071E08DD060007ED06DE0600000046
:10407E00008704D80CBD02D9095909DE05000000DD
:10408E0000F707C1021E0858091E081B08D40C555C
:10409E0009550900000000F707C1021E085809F271
:1040AE00080F0BB00AAC0855095741524E694E47DE
:1040BE0000416C41524D2044695341626C4564008D
:1040CE0047456947455220434F554E74455200535C
:1040DE0074415274694E4700524174452025366C26
:1040EE00752075522F680044305345202020253608
:1040FE006C75207552006230305374203066662025
:10410E0020202020202000253464206D6D4867205B
:10411E00253464206D00202025366C750025303244
:10412E00753A253032753A25303275006E6F204261
:10413E004D313830002534642068506100DF004373
:10414E0000253031750042555A5A20564F4C554D68
:10415E004520202025327500414C41524D20564FAE
:10416E004C554D45202025327500414C41524D2075
:10417E004C4556454C202025337500425249474840
:0E418E00544E4553532020202025327500004A
:00000001FF
