:020000040000FA
:100000000C9421010C9459120C9449010C9449014F
:100010000C9449010C9449010C9449010C94B712B9
:100020000C9449010C9449010C9449010C94490128
:100030000C9449010C9449010C9449010C94490118
:100040000C94F0100C9449010C94BE100C94981070
:100050000C9449010C9449010C9449010C944901F8
:100060000C943A110C94490107634236B79BD8A708
:100070001A39685618AEBAAB558C1D3CB7CC5763CD
:10008000BD6DEDFD753EF6177231BF000000803F7B
:1000900008000000BE922449123EABAAAA2ABECD97
:1000A000CCCC4C3E00000080BEABAAAAAA3E000009
:1000B0000000BF000000803F000000000008417801
:1000C000D3BB4387D1133D190E3CC3BD4282AD2B38
:1000D0003E68EC8276BED98FE1A93E4C80EFFFBE30
:1000E00001C4FF7F3F000000000000407A10F35A77
:1000F00000A0724E18090010A5D4E80000E8764868
:10010000170000E40B54020000CA9A3B000000E113
:10011000F505000080969800000040420F000000A6
:10012000A08601000000102700000000E803000086
:1001300000006400000000000A0000000000010050
:10014000000000002C76D888DC674F0823DFC1DF71
:10015000AE59E1B1B796E5E3E453C63AE651997674
:1001600096E8E6C28426EB898C9B62ED407C6FFCAE
:10017000EFBC9C9F40F2BAA56FA5F490055A2AF7F0
:100180005C936B6CF9676DC11BFCE0E40D47FEF5F9
:1001900020E6B500D0ED902E030094357705008061
:1001A000841E080000204E0A000000C80C333333C0
:1001B000330F986E12831141EF8D2114893BE65560
:1001C00016CFFEE6DB18D1844B381BF77C1D901D43
:1001D000A4BBE424203284725E228100C9F124ECA5
:1001E000A1E53D2700000000240027002A000000B0
:1001F0000000250028002B0000000000230026003E
:100200002900040404040404040402020202020299
:1002100003030303030301020408102040800102CA
:100220000408102001020408102000000008000249
:100230000100000304070000000000000000D314C8
:10024000D31B11241FBECFEFD8E0DEBFCDBF12E01D
:10025000A0E0B1E0ECE3FDE402C005900D92A03C0B
:10026000B107D9F724E0A0ECB2E001C01D92A43F91
:10027000B207E1F711E0C0E2D1E004C02197FE012E
:100280000E948922CF31D107C9F70E9464150C94CE
:1002900091260C94000008950895FC01538D448D1F
:1002A000252F30E0842F90E0821B930B541710F021
:1002B000CF96089501970895FC01918D828D98172E
:1002C00061F0A28DAE0FBF2FB11D5D968C91928D06
:1002D0009F5F9F73928F90E008958FEF9FEF089537
:1002E000FC01918D828D981731F0828DE80FF11D00
:1002F000858D90E008958FEF9FEF0895FC01918D1B
:10030000228D892F90E0805C9F4F821B91098F7313
:1003100099270895FC01A48DA80FB92FB11DA35AE8
:10032000BF4F2C91848D90E001968F739927848F15
:10033000A689B7892C93A089B1898C918370806438
:100340008C93938D848D981306C00288F389E02DD9
:1003500080818F7D80830895EF92FF920F931F938A
:10036000CF93DF93EC0181E0888F9B8D8C8D981368
:100370001AC0E889F989808185FF15C09FB7F89474
:10038000EE89FF896083E889F989808183708064C0
:1003900080839FBF81E090E0DF91CF911F910F910B
:1003A000FF90EF900895F62E0B8D10E00F5F1F4F1A
:1003B0000F731127E02E8C8D8E110CC00FB607FC29
:1003C000FACFE889F989808185FFF5CFCE010E94B7
:1003D0008A01F1CFEB8DEC0FFD2FF11DE35AFF4F9A
:1003E000F0829FB7F8940B8FEA89FB898081806245
:1003F000CFCFCF93DF93EC01888D8823B9F0AA8902
:10040000BB89E889F9898C9185FD03C0808186FDCF
:100410000DC00FB607FCF7CF8C9185FFF2CF80811E
:1004200085FFEDCFCE010E948A01E9CFDF91CF9108
:10043000089585E094E00E947E0121E0892B09F473
:1004400020E0822F089580E090E0892B29F00E941F
:10045000190281110C9400000895AF92BF92CF92BF
:10046000DF92EF92FF920F931F93CF93DF936C0174
:100470007B018B01040F151FEB015E01AE18BF0855
:10048000C017D10759F06991D601ED91FC91019007
:10049000F081E02DC6010995892B79F7C501DF911F
:1004A000CF911F910F91FF90EF90DF90CF90BF9071
:1004B000AF900895833081F028F4813099F0823034
:1004C000A9F008958730A9F08830C9F08430B1F4DC
:1004D000809180008F7D03C0809180008F77809312
:1004E0008000089584B58F7784BD089584B58F7D8D
:1004F000FBCF8091B0008F778093B00008958091FA
:10050000B0008F7DF9CFCF93DF93282F30E0F90132
:10051000E65DFD4F8491F901EA5EFD4FD491F9014A
:10052000EE5FFD4FC491CC23A1F081110E945A02CD
:10053000EC2FF0E0EE0FFF1FE850FE4FA591B491B5
:10054000EC91ED2381E090E009F480E0DF91CF9120
:10055000089580E090E0FACF1F93CF93DF93282F88
:1005600030E0F901E65DFD4F8491F901EA5EFD4F4F
:10057000D491F901EE5FFD4FC491CC23A9F0162F61
:1005800081110E945A02EC2FF0E0EE0FFF1FE251A2
:10059000FE4FA591B4918FB7F894EC91111108C05A
:1005A000D095DE23DC938FBFDF91CF911F9108950B
:1005B000DE2BF8CFCF93DF9390E0FC01EA5EFD4F96
:1005C00024918E5F9D4FFC0184918823D1F090E0AF
:1005D000880F991FFC01EC51FE4FA591B491FC01CD
:1005E000E251FE4FC591D49161110EC09FB7F894AE
:1005F0008C91E22FE0958E238C932881E223E8836F
:100600009FBFDF91CF9108958FB7F894EC91E22BC3
:10061000EC938FBFF6CF1F93CF93DF93182FEB018F
:1006200061E00E94DA02209739F460E0812FDF91C7
:10063000CF911F910C94AC02CF3FD10511F461E032
:10064000F5CFE12FF0E0E65DFD4FE491E33031F1CD
:1006500040F4E130B1F0E230E1F0C038D1057CF790
:10066000E4CFE73029F1E83059F1E430B1F7809177
:100670008000806280938000D0938B00C0938A00BA
:1006800004C084B5806884BDC7BDDF91CF911F9140
:10069000089584B5806284BDC8BDF7CF8091800085
:1006A000806880938000D0938900C0938800EDCF4C
:1006B0008091B00080688093B000C093B300E5CF14
:1006C0008091B00080628093B000C093B400DDCF11
:1006D0003FB7F8948091220390912303A0912403C3
:1006E000B091250326B5A89B05C02F3F19F00196B0
:1006F000A11DB11D3FBFBA2FA92F982F8827BC017C
:10070000CD01620F711D811D911D42E0660F771FA3
:10071000881F991F4A95D1F708958F929F92AF92A3
:10072000BF92CF92DF92EF92FF924B015C010E9449
:1007300068036B017C010E9468036C197D098E09B6
:100740009F09683E734081059105A8F321E0821A54
:100750009108A108B10888EEC80E83E0D81EE11CFC
:10076000F11C81149104A104B10429F7FF90EF90CA
:10077000DF90CF90BF90AF909F908F900895089595
:100780002091FA02260F3327331F21323105ECF472
:100790002091DB03FC0190E080E0243069F082E0EE
:1007A0000895A091FA022191AC0146525D4FA40F29
:1007B000B52FB11D2C930196861798F38091FA02FC
:1007C000680F6093FA0280E0089581E00895109226
:1007D000DB0381E08093DA031092B50361E082E1EC
:1007E0000E94AC0261E083E10E94AC02E9EBF0E020
:1007F00080818E7F808380818D7F808388E4809359
:10080000B80085E48093BC00089510929403109280
:1008100093031092E203109204040E94E7038BE416
:1008200091E090939203809391038CE491E09093F4
:10083000900380938F030895CF93DF9391E090937B
:10084000D9028823B9F0C091B800D091BA00809144
:10085000BC008A7B8093BC0060E082E10E94AC0215
:1008600060E083E10E94AC020E94E703D093BA00EB
:10087000C093B800DF91CF9108958F929F92AF926D
:10088000BF92CF92DF92EF92FF920F931F93CF937D
:10089000DF93D0910404D13208F0D7C0182FC09153
:1008A00003040E9468036B017C018091DB038111CA
:1008B0006BC082E08093DB031093DA038FEF8093A9
:1008C000D9031092D803D093D703A3EEB3E0E7EB9C
:1008D000F3E080E0D81391C01092B6038091B60384
:1008E000CC0FC82BC093B6038091B503813009F0BB
:1008F00088C01092B5030E9468036B017C0180914F
:10090000B6038093BB008091DD039091DE03A0913C
:10091000DF03B091E003892B8A2B8B2BA1F00E947F
:1009200068030091DD031091DE032091DF03309115
:10093000E0036C197D098E099F0906171707280720
:10094000390708F442C08091BC0083FDD8CF85EC04
:100950008093BC000E9468036B017C018091DB03E3
:10096000823009F450C08091D9038F3F09F46FC0E1
:100970008091D903803209F46CC08091D90380330F
:1009800009F469C084E026C08091DD039091DE0304
:10099000A091DF03B091E003892B8A2B8B2B09F404
:1009A00084CF0E9468038090DD039090DE03A090C6
:1009B000DF03B090E0036C197D098E099F0986164C
:1009C0009706A806B90608F070CF8091DC030E9454
:1009D0001C0485E01092E203109204041092E103DB
:1009E000DF91CF911F910F91FF90EF90DF90CF900B
:1009F000BF90AF909F908F9008959D9191938F5F3E
:100A000069CF85EEA5CF8091DD039091DE03A091A3
:100A1000DF03B091E003892B8A2B8B2B09F49ECF47
:100A20000E9468030091DD031091DE032091DF0333
:100A30003091E0036C197D098E099F09061717078D
:100A40002807390708F08ACFC0CF81E0C3CF80E004
:100A5000C1CF82E0BFCF83E0BDCFCF93DF93EA0168
:100A6000DC0111968D919C91DC01ED91FC9102804D
:100A7000F381E02D0995C817D90729F481E00E9478
:100A80003D0491E0811190E0892FDF91CF9108958D
:100A90008F929F92AF92BF92CF92DF92EF92FF928E
:100AA0000F931F93CF93DF93D82FC62F142F61324C
:100AB00008F09CC00E9468036B017C018091DB03FD
:100AC00081116FC081E08093DB031093DA039FEF05
:100AD0009093D9031092D8039C0F9093D7038093DF
:100AE000B6038091B603DD0FD82BD093B603809167
:100AF000B503813009F07CC01092B5030E946803F1
:100B00006B017C018091B6038093BB008091DD0373
:100B10009091DE03A091DF03B091E003892B8A2B33
:100B20008B2BA1F00E9468030091DD031091DE037E
:100B30002091DF033091E0036C197D098E099F0934
:100B4000061717072807390708F44CC08091BC0026
:100B500083FDD8CF85EC8093BC000E9468036B01B5
:100B60007C018091DB03813009F444C08091D8037B
:100B70008C1710F4C091D803E7EBF3E0A5E9B3E0DC
:100B800080E08C1359C08C2FDF91CF911F910F9172
:100B9000FF90EF90DF90CF90BF90AF909F908F909D
:100BA00008958091DD039091DE03A091DF03B09161
:100BB000E003892B8A2B8B2B09F480CF0E946803DA
:100BC0008090DD039090DE03A090DF03B090E003FF
:100BD0006C197D098E099F0986169706A806B90625
:100BE00008F06CCF8091DC030E941C04C0E0CBCFE6
:100BF00085EEB1CF8091DD039091DE03A091DF03FC
:100C0000B091E003892B8A2B8B2B09F4AACF0E9489
:100C100068030091DD031091DE032091DF03309122
:100C2000E0036C197D098E099F090617170728072D
:100C3000390708F096CFD6CF91919D938F5FA1CFC2
:100C40000895E091940380919303E81730F4F0E065
:100C5000EB56FC4F808190E008958FEF9FEF089551
:100C600090919403809193032FEF3FEF981748F4EE
:100C7000E92FF0E0EB56FC4F208130E09F5F90932E
:100C80009403C90108958091930390919403891B63
:100C9000990B0895CF92DF92EF92FF920F931F93DB
:100CA000CF93DF937C01CB018A012091E1032223C2
:100CB00089F0EB016B01C40ED51ECC15DD0569F082
:100CC0006991D701ED91FC910190F081E02DC70170
:100CD0000995F3CF642F0E94C003C801DF91CF9123
:100CE0001F910F91FF90EF90DF90CF900895CF93D9
:100CF000DF931F92CDB7DEB769832091E1032223F2
:100D0000F9F020910404203258F021E030E0FC0199
:100D10003383228390E080E00F90DF91CF9108959C
:100D20008091E203E82FF0E0ED51FC4F9981908330
:100D30008F5F8093E2038093040481E090E0ECCF26
:100D400061E0CE0101960E94C003F7CF81E00C94D0
:100D50003D04CF93C82F81E08093E10387E7809320
:100D600003041092E2031092040464EF82EA94E018
:100D70000E9477066C2F82EA94E00E94770682EA4E
:100D800094E0CF910C94A606CF93DF93EC018B8176
:100D90008823A9F089819A81288131E03093E10389
:100DA000209303041092E203109204040E94A6060A
:100DB00091E0811190E0892FDF91CF9108950E94F9
:100DC000050481E08B83CE010E94C406982F811117
:100DD000E1CFF1CF08950895CF92DF92EF92FF9285
:100DE0000F931F93CF93DF93EC01462FE881F98196
:100DF0000484F585E02D61E070E009958C01CC88D4
:100E0000DD88EE88FF880E946803688F798F8A8F5B
:100E10009B8FCC8EDD8EEE8EFF8E81E090E0012BDD
:100E200011F090E080E0DF91CF911F910F91FF9042
:100E3000EF90DF90CF9008958F929F92AF92BF92E4
:100E4000EF92FF921F93CF93DF93EC01162FE8816F
:100E5000F9810484F585E02D462F70E060E0099566
:100E60007C0111501230D8F419861A868888998826
:100E7000AA88BB880E946803688F798F8A8F9B8FAE
:100E80008C8E9D8EAE8EBF8EC701DF91CF911F914C
:100E9000FF90EF90BF90AF909F908F9008958C88B7
:100EA0009D88AE88BF88E6CF61E087EC94E00C9423
:100EB0001C07DC0118968C911897481710F04FEF1B
:100EC000480F1B969C911B97992389F017969C912C
:100ED0001797691730F0691B4F5F4817D0F340E050
:100EE000F8CF19966C9319971A964C931A97FD019F
:100EF000E40FF11D8485680F6068CD010C941C0718
:100F00000F931F93CF93DF93EC010E94EC068C01AB
:100F10008B85882399F089858F5F89879F818917C1
:100F200068F019868A858F5F8A879885891708F007
:100F30001A864A8560E0CE010E945907C801DF91F8
:100F4000CF911F910F9108958DEF9FEF089590E03D
:100F500080E0089580E480937C0080917A00806432
:100F600080937A0080917A0086FDFCCF9091780082
:100F7000809179008927982789278233910588F005
:100F8000883C910580F0803921E0920770F0883527
:100F900022E0920760F08032934058F484E08F5F43
:100FA000089580E0FCCF81E0FACF82E0F8CF83E0C3
:100FB000F6CF80E008958091320190E09093CE02C8
:100FC0008093CD022091CD023091CE0282E390E059
:100FD000821B930B9093C8028093C702089590934D
:100FE000C4028093C3028091C3029091C402892BF2
:100FF00011F00000F8CF0895CF930E94AA07C09186
:10100000D502C81303C080E0CF91089585E090E039
:101010000E94EF070E94AA07C817A9F38093D50280
:10102000F3CF0F931F93CF938C01C62FFC0183A1A5
:1010300061E0C0FF60E00E94AC02F80184A161E0C1
:10104000C1FF60E00E94AC02F80185A161E0C2FF2F
:1010500060E00E94AC02F80186A161E0C3FF60E09D
:10106000CF911F910F910C94AC02FC0187A18F3F8F
:1010700081F190A59E3F51F4662331F060E00E941B
:10108000DA0290E080E0089561E0F9CF833041F02A
:101090002BEF280F223020F027EF280F233068F4A1
:1010A00070E0913019F40E940B03EBCF2FEF30E08A
:1010B000A901461B570BBA01F6CF662331F09130D8
:1010C00031F461E00E94AC02DCCF9923D1F360E0FF
:1010D000F9CF8DEF9FEF0895609130018EEC689FFE
:1010E000602D1124615087EC94E00E9435088AE05D
:1010F00090E00C94EF07EF92FF921F93CF93DF9352
:10110000EC0161E088A10E94DA0289A18F3F39F0E9
:1011100061E00E94DA0260E089A10E94AC0261E015
:101120008AA10E94DA0260E08AA10E94AC0261E01A
:101130008BA10E94DA0261E08CA10E94DA0261E0D8
:101140008DA10E94DA0261E08EA10E94DA021FA145
:101150001F3F61F188A5813029F560E0812F0E9451
:10116000AC0260E0812F0E94DA0261E0812F0E94D0
:10117000DA0261E0812F0E94AC028FE090E00197DB
:10118000F1F7812F0E9483027C0160E0812F0E9491
:10119000AC0260E0812F0E94DA02EA94EF2811F09D
:1011A0008EEF88A761E08FA10E94DA0290E080E0D4
:1011B000DF91CF911F91FF90EF9008958DEF9FEFFA
:1011C00008950895CF92DF92EF92FF920F931F93AD
:1011D000CF93DF93DC0114962D913C9124173507B2
:1011E00030F1EA016B017C0141E06C2FFC01808150
:1011F0000E94480510929403809393038C171D0658
:10120000B1F48601CC0DDD1DD70111968D919C9115
:10121000DC01ED91FC910284F385E02D0995F80144
:1012200081938F01CE17DF0779F781E001C080E05D
:10123000DF91CF911F910F91FF90EF90DF90CF90B2
:101240000895CF93DF931F92CDB7DEB741E050E012
:10125000BE016F5F7F4FFC01848595850E94E20887
:10126000882329F089810F90DF91CF9108958FEF26
:10127000FACF1F93CF93DF93EB0191E09093E103BB
:1012800097E7909303041092E20310920404682FEE
:1012900082EA94E00E94770682EA94E00E94A60621
:1012A00041E062E087E70E94480510929403809332
:1012B000930382EA94E00E943006182F82EA94E0B9
:1012C0000E94300620E0822B912B9983888382EA4A
:1012D00094E0DF91CF911F910C94A6060F931F937A
:1012E000CF93DF9300D0CDB7DEB78C018EE20E94A2
:1012F000A90665E070E080E090E00E948D03BE01E9
:101300006F5F7F4F86EF0E94390989819A81B0E033
:10131000A0E0F80180839183A283B3830F900F90A4
:10132000DF91CF911F910F9108950F931F93CF934A
:10133000DF9300D0CDB7DEB78B01BE016F5F7F4F6B
:101340000E94390989819A81F801918380830F90E5
:101350000F90DF91CF911F910F910895CF93DF935D
:10136000EB0191E09093E10397E7909303041092CF
:10137000E20310920404682F82EA94E00E94770648
:1013800082EA94E00E94A60641E061E087E70E94BD
:101390004805109294038093930382EA94E00E949C
:1013A0003006888382EA94E0DF91CF910C94A60600
:1013B0004F925F926F927F928F929F92AF92BF9265
:1013C000EF92FF921F93CF93DF93EC017B01142FD9
:1013D00088A161E091E0E916F10409F060E00E9463
:1013E000AC02612F70E084E0759567958A95E1F70E
:1013F000CE010E9411088C8C9D8CAE8CBF8C488CC9
:10140000598C6A8C7B8C0E94680364197509860963
:101410009709681579058A059B05A8F361E08AA1FB
:101420000E94AC0260E08AA10E94AC0282E0E81651
:10143000F10469F0612F6F70CE010E94110861E024
:101440008AA10E94AC0260E08AA10E94AC0290E0F6
:1014500080E0DF91CF911F91FF90EF90BF90AF9010
:101460009F908F907F906F905F904F9008958F9294
:101470009F92AF92BF92CF92DF92EF92FF920F9323
:101480001F93CF93DF93FC0121A12F3F09F495C057
:101490008B01EC01C48CD58CE68CF78C808C918C04
:1014A000A28CB38C0E946803681979098A099B0988
:1014B0006C157D058E059F05A8F360E08BA10E9449
:1014C000DA0260E08CA10E94DA0260E08DA10E9445
:1014D000DA0260E08EA10E94DA0261E001301105BB
:1014E00009F060E088A10E94AC0261E089A10E943D
:1014F000AC0261E08AA10E94AC028BA10E9483022F
:1015000010E1019709F010E08CA10E94830201977D
:1015100009F410628DA10E948302019709F41064FE
:101520008EA10E948302019709F4106860E08AA1ED
:101530000E94AC0261E08AA10E94AC028BA10E94D1
:101540008302019709F411608CA10E948302019724
:1015500009F412608DA10E948302019709F41460BE
:101560008EA10E948302019709F4186060E08AA1AD
:101570000E94AC0261E08BA10E94DA0261E08CA1C2
:101580000E94DA0261E08DA10E94DA0261E08EA180
:101590000E94DA0260E089A10E94AC02812F90E0F3
:1015A000DF91CF911F910F91FF90EF90DF90CF903F
:1015B000BF90AF909F908F9008958DEF9FEFF0CFE9
:1015C000EF92FF920F931F93CF93DF93C82F7B016E
:1015D00070E060E087EC94E00E94370A8C010F779E
:1015E000112797FD00E088E0C89FB00111246064D6
:1015F00087EC94E00E941C070097E1F4E70188E083
:10160000E80EF11C699187EC94E00E94EC060197CA
:1016100079F4CE15DF05B1F740E0602F87EC94E058
:10162000DF91CF911F910F91FF90EF900C9459078C
:101630008FEF9FEFDF91CF911F910F91FF90EF9070
:101640000895FC0101900020E9F73197AF01481B94
:10165000590BBC0187EC94E00C942D024F925F92E1
:101660006F927F92AF92BF92CF92DF92EF92FF92F2
:101670000F931F93CF93DF93CDB7DEB729970FB6A4
:10168000F894DEBF0FBECDBF2FB7F89440901E0375
:1016900050901F0360902003709021032FBFC090D3
:1016A0003D01D0903E01E0903F01CF82D886E9868F
:1016B000DC011C96ED91FC912481358123303105AC
:1016C000B8F4B12C8B2D29960FB6F894DEBF0FBE5F
:1016D000CDBFDF91CF911F910F91FF90EF90DF90E1
:1016E000CF90BF90AF907F906F905F904F90089594
:1016F0006A017B018C01808191E09093E1038093EA
:1017000003041092E2031092040443E050E0BE018F
:10171000695F7F4FCF010E942D05882391F2C80198
:101720000E94210987FF07C06AE070E080E090E036
:101730000E948D03F4CF46E050E0BE016F5F7F4F03
:10174000F801848595850E94E208B82E882309F463
:10175000B8CF6A817B81762767277627CB01B0E0F7
:10176000A0E09C01AD0184E0220F331F441F551FF0
:101770008A95D1F7AC808A2D90E064E095958795A5
:101780006A95E1F7092E000CAA0BBB0BBC01CD0139
:10179000622B732B842B952B0E94A51F20E030E039
:1017A00048EC52E40E94332020E030E040E855E36A
:1017B0000E943320D80114966D937D938D939C9352
:1017C00017976A2D6F7070E090E080E0982F872F58
:1017D000762F66272D81622B982F872F762F6627ED
:1017E0002E81622B0E94A51F20E030E048E453E4E4
:1017F0000E94332020E030E040E855E30E9433208F
:1018000020E030E048E452E40E94901EF80160833A
:10181000718382839383C114D10481F1F6013496DC
:1018200080E2DF011D928A95E9F784E290E0A0E072
:10183000B0E0F60180839183A283B383D8011A9626
:101840008D919C91B0E0A0E084839583A683B783BB
:101850008DE090E0A0E0B0E080879187A287B38719
:10186000408A518A628A738AF80180819181A281BB
:10187000B381F601848B958BA68BB78BE114F104B1
:1018800009F420CFF701349680E2DF011D928A959A
:10189000E9F784E290E0A0E0B0E0F7018083918373
:1018A000A283B383D80118968D919C91B0E0A0E0FB
:1018B00084839583A683B7838DE090E0A0E0B0E0B9
:1018C00080879187A287B387408A518A628A738A08
:1018D000F80184819581A681B781F701848B958B6E
:1018E000A68BB78BEFCEAB0170E060E0FC01858189
:1018F00096810E942E0B81E0089550E040E0FC01AB
:10190000858196810E942E0B81E008953F924F922F
:101910005F926F927F928F929F92AF92BF92CF927F
:10192000DF92EF92FF920F931F93CF93DF93CDB788
:10193000DEB72B970FB6F894DEBF0FBECDBF8B017D
:10194000FB01349620E2DF011D922A95E9F744E27B
:1019500050E060E070E0F80140835183628373835C
:10196000FC0183819481A581B681F80184839583EC
:10197000A683B78386E090E0A0E0B0E080879187FF
:10198000A287B387108A118A128A138A19821A824F
:101990001B821C82CE0101960E946E0930902603A4
:1019A000832D8295880F880F807C8C5C0E94A9060D
:1019B000B1E068E070E080E090E03B1689F065E01F
:1019C00070E080E090E03B1658F0E2E06EE070E0FE
:1019D00080E090E03E1621F06AE170E080E090E067
:1019E0000E948D03BE016B5F7F4F86EF0E94390915
:1019F000CD80DE80F12CE12CFE2CED2CDC2CCC24D7
:101A0000BE01695F7F4F88EF0E94AE098F81A701F9
:101A10009601280F311D411D511D288739874A879E
:101A20005B87809131039091320329813A814B8108
:101A30005C81281B390B41095109A0912F03B091FA
:101A400030030E9476224B015C01AFE0B594A7946D
:101A500097948794AA95D1F76091390370913A03CE
:101A6000072E000C880B990BBBE0660F771F881FB1
:101A7000991FBA95D1F720913B0330913C03032E77
:101A8000000C440B550B280D391D4A1D5B1D0E948F
:101A90005722820E931EA41EB51E30EA831A3FE021
:101AA000930AA108B108A5019401C501B4010E94DF
:101AB00025222B013C018CE0759467945794479440
:101AC0008A95D1F7A0912B03B0912C030E9481221B
:101AD0006B017C019DE0F594E794D794C7949A95A7
:101AE000D1F7A0913303B0913403A30192010E9476
:101AF00081229C01552737FD5095452F2C0D3D1D0A
:101B00004E1D5F1D2E5F3F4F4F4F5F4F62E055955B
:101B10004795379527956A95D1F730584F4F5F4FC6
:101B2000A0912D03B0912E030E9476226B017C01BF
:101B30007FE0F694E794D794C7947A95D1F788E03C
:101B400090E083199109288539854A855B8504C011
:101B500055954795379527958A95D2F728873987E0
:101B60004A875B87A0913503B0913603A3019201A8
:101B70000E9481222B013C01EBE0759467945794FD
:101B80004794EA95D1F7A0912903B0912A03A501C2
:101B900094010E948122FBE0959587957795679542
:101BA000FA95D1F7460E571E681E791E80912703BD
:101BB00090912803092E000CAA0BBB0B22E0880F82
:101BC000991FAA1FBB1F2A95D1F7840D951DA61D2D
:101BD000B71D2C013D01032C04C0440C551C661C90
:101BE000771C0A94D2F732E0430E511C611C711C21
:101BF00032E075946794579447943A95D1F72885C5
:101C000039854A855B85241935094609570960E5F8
:101C100073EC80E090E004C0959587957795679583
:101C20003A94D2F70E94252297FD67C0660F771F6E
:101C3000881F991FA70196010E94352269017A0128
:101C40009927F7FC9A958F2D7E2D6D2D9B01AC0168
:101C50000E9425229B01AC01AEEDBBE00E947622E2
:101C60004B015C01A3E4B3EEA70196010E9484221C
:101C7000BC01992777FD9095892F4501BB2497FCDE
:101C8000B094AB2C680D791D8A1D9B1D6153714F5B
:101C90008F4F9F4F44E095958795779567954A9527
:101CA000D1F76C0D7D1D8E1D9F1D0E94A71F20E08A
:101CB00030E048EC52E40E94FD1ED80154966D932A
:101CC0007D938D939C93579781E02B960FB6F89454
:101CD000DEBF0FBECDBFDF91CF911F910F91FF905F
:101CE000EF90DF90CF90BF90AF909F908F907F90BC
:101CF0006F905F904F903F900895A70196010E94CA
:101D0000352269017A01CC0CDD1CEE1CFF1C98CF3A
:101D10007F928F929F92AF92BF92CF92DF92EF927B
:101D2000FF920F931F93CF93DF93D0916903C1E08C
:101D3000C09369030E9454078AE090E00E94EF0775
:101D400041E060E087EC94E00E9459078AEB91E063
:101D50000E94210BC0933601C12CD12C7601C0E02A
:101D600009E012E087E7A82E83E0B82E9FE0992EC5
:101D70008824839423E2722E80913601882399F17E
:101D8000109236018091890390918A03A0918B0370
:101D9000B0918C03C816D906EA06FB0640F4C09041
:101DA0008903D0908A03E0908B03F0908C03FF921C
:101DB000EF92DF92CF921F930F93BF92AF920E9448
:101DC000F02340E065E087EC94E00E94590787E744
:101DD00093E00E94210B8DB79EB708960FB6F8943A
:101DE0009EBF0FBE8DBFC13009F447C0F0F1C230B5
:101DF00009F450C00E94FC07843009F052C01092D0
:101E0000D80241E060E087EC94E00E94590782EC40
:101E100091E00E94210B1092D60286E98093D702AE
:101E20008091D602811104C00E94FC078430C1F762
:101E30000E9454078AE090E00E94EF07D093690364
:101E400081E080938D031092350180933601DF91FC
:101E5000CF911F910F91FF90EF90DF90CF90BF90A7
:101E6000AF909F908F907F9008958092D80270924B
:101E7000D7021092D602C1E0BDCF8091D60288234E
:101E800009F4B8CF1092D8029092D7021092D602DD
:101E9000C2E0B0CF8091D602882309F4ABCFC0E076
:101EA000A9CF8AE090E00E94EF0766CF0C943A2316
:101EB0000C943A230C943A230E94C3230F931F934C
:101EC000CF93DF938C01EB0188E2FB0111928A959D
:101ED000E9F74BE050E061ED71E0CE010E94E123B3
:101EE0001B8681E090E0A0E0B0E08C879D87AE8704
:101EF000BF87F80183819481092E000CAA0BBB0BCC
:101F0000888B998BAA8BBB8B8DE090E0A0E0B0E032
:101F10008C8B9D8BAE8BBF8B1CA21DA21EA21FA201
:101F200080E090E0A0E2B2EC8C8F9D8FAE8FBF8FEF
:101F300080E090E0AAEAB2E4888F998FAA8FBB8FE5
:101F40008AE999E9A9E9BEE388A399A3AAA3BBA357
:101F5000DF91CF911F910F9108950F931F93CF930E
:101F6000DF938C01EB0188E2FB0111928A95E9F77E
:101F70004BE050E069ED71E0CE010E94E1231B8649
:101F800081E090E0A0E0B0E08C879D87AE87BF87BE
:101F9000F80183819481092E000CAA0BBB0B888B5E
:101FA000998BAA8BBB8B8CE090E0A0E0B0E08C8B8F
:101FB0009D8BAE8BBF8B1CA21DA21EA21FA21C8ECE
:101FC0001D8E1E8E1F8E80E090E0A8ECB2E4888FFC
:101FD000998FAA8FBB8F80E090E0A0E0B0E488A347
:101FE00099A3AAA3BBA3DF91CF911F910F9108954D
:101FF0000F931F93CF93DF938C01EB0188E2FB01DA
:1020000011928A95E9F74BE050E061EE71E0CE0164
:102010000E94E1231B8681E090E0A0E0B0E08C8785
:102020009D87AE87BF87F80183819481A581B681A2
:10203000888B998BAA8BBB8B86E090E0A0E0B0E008
:102040008C8B9D8BAE8BBF8B1CA21DA21EA21FA2D0
:1020500080E090E8A9E8B4E4888F998FAA8FBB8FBD
:1020600080E090E0A6E9B3E48C8F9D8FAE8FBF8FA8
:102070008AE097EDA3E2BCE388A399A3AAA3BBA33C
:10208000DF91CF911F910F91089585ED8093BC0052
:102090008091DD039091DE03A091DF03B091E00316
:1020A0000796A11DB11D23E0B695A7959795879535
:1020B0002A95D1F72091BC0024FD03C01092DB03C8
:1020C00008954091DD035091DE036091DF0370912C
:1020D000E003452B462B472B69F30097A105B1057B
:1020E00041F025E32A95F1F700000197A109B10914
:1020F000E1CF8091DC030C941C040C94431EFF92EE
:102100000F931F93CF93DF93EC01F62E0881198173
:10211000C8010E94431EF81621F06F2DC8010E94CD
:102120004B1ECE01DF91CF911F910F91FF9008952B
:102130001F920F920FB60F9211242F933F934F933C
:102140005F936F937F938F939F93AF93BF93EF931F
:10215000FF9385E094E00E948A01FF91EF91BF9187
:10216000AF919F918F917F916F915F914F913F912F
:102170002F910F900FBE0F901F9018951F920F92E6
:102180000FB60F9211242F938F939F93EF93FF938A
:10219000E0911504F09116048081E0911B04F09108
:1021A0001C0482FD1BC0908180911E048F5F8F7381
:1021B00020911F04821741F0E0911E04F0E0EB5FD4
:1021C000FB4F958F80931E04FF91EF919F918F910C
:1021D0002F910F900FBE0F901F9018958081F4CF14
:1021E0001F920F920FB60F9211242F933F938F934C
:1021F0009F93AF93BF9380911E0390911F03A09173
:102200002003B091210330911D0323E0230F2D37CC
:1022100058F50196A11DB11D20931D0380931E0347
:1022200090931F03A0932003B09321038091220376
:1022300090912303A0912403B09125030196A11D41
:10224000B11D8093220390932303A0932403B093A2
:102250002503BF91AF919F918F913F912F910F9047
:102260000FBE0F901F90189526E8230F0296A11D10
:10227000B11DD2CF1F920F920FB60F9211242F9340
:102280003F934F935F936F937F938F939F93AF93FE
:10229000BF93EF93FF938091B900887F803609F454
:1022A0004AC0F0F5883209F4A7C018F5803109F466
:1022B0009BC0B8F4882309F4F9C0883009F494C0AD
:1022C000FF91EF91BF91AF919F918F917F916F910E
:1022D0005F914F913F912F910F900FBE0F901F90E4
:1022E0001895883109F488C0803251F78093D9035A
:1022F00014C0803409F49DC040F48033B9F38833AE
:10230000F9F68093D90385ECB0C0803509F485C017
:10231000883509F496C0883499F60E944510D0CFCC
:10232000883909F48CC038F5883729F050F488369C
:1023300011F0803729F683E08093DB0310921C03B1
:1023400057C0883809F47BC0803919F0803809F00B
:10235000B7CF80911C03803208F071C0E0911C035C
:1023600081E08E0F80931C038091BB00F0E0E4506D
:10237000FD4F80833DC0803B39F0E0F4803A09F4A2
:1023800079C0883A09F09CCF84E08093DB031092F7
:10239000FB021092FA02E0919103F09192030995E9
:1023A0008091FA0281110FC081E08093FA021092AD
:1023B000DA0209C0803C09F4A6CF883C09F4A3CF17
:1023C000883B09F07DCFE091FB0281E08E0F809386
:1023D000FB02F0E0E652FD4F80818093BB009091BC
:1023E000FB028091FA0229C08091B6038093BB0062
:1023F00085EC8093BC0064CF9091D8038091D70383
:10240000981758F5E091D80381E08E0F8093D80398
:10241000F0E0E954FC4F8081E9CFE091D80381E0FE
:102420008E0F8093D8038091BB00F0E0E954FC4FFD
:1024300080839091D8038091D7039817C8F285E8DC
:10244000D8CFE091D80381E08E0F8093D80380919C
:10245000BB00F0E0E954FC4F80838091DA038111E6
:102460005CCF81E08093B50384EA8093BC00109236
:10247000DB0326CF85EC8093BC001092DB038091B8
:102480001C03803230F4E0911C03F0E0E450FD4F77
:10249000108260911C0370E0E0918F03F091900333
:1024A0008CEF92E0099510921C030ACF1092D90389
:1024B00034CF1F920F920FB60F9211242F938F9348
:1024C0009F93AF93BF9380913D0390913E030196FC
:1024D00049F080913D0390913E03019690933E0315
:1024E00080933D038091730390917403A0917503D1
:1024F000B09176030196A11DB11D80937303909353
:102500007403A0937503B09376038837984DA54460
:10251000B64060F087E798EDA5E4B6E080937303DA
:1025200090937403A0937503B0937603809167032F
:1025300090916803449730F484E190E090936803AD
:102540008093670380916903811107C08091D40251
:10255000811103C081E08093D402BF91AF919F911C
:102560008F912F910F900FBE0F901F9018951F9273
:102570000F920FB60F9211242F933F934F935F93B7
:102580006F937F938F939F93AF93BF93EF93FF933B
:102590008091D302813009F44CC0E8F1823009F413
:1025A0004FC0833009F454C09091D8028091CF027B
:1025B000992309F4BDC0813009F46DC008F468C0E6
:1025C000823009F47DC0833009F498C08091D40230
:1025D000882309F4B4C0419A809133018093C602E4
:1025E0001092D4028091C5028F5F843609F4B3C083
:1025F0008093C502FF91EF91BF91AF919F918F9111
:102600007F916F915F914F913F912F910F900FBEEE
:102610000F901F90189580913501823029F280919A
:10262000670390916803892B09F4BECF81E0809302
:10263000D3025B9A8091D3028F5F8093D302B4CF91
:102640005B9883E690E09093D2028093D102F2CF20
:102650008091D1029091D20201979093D2028093FF
:10266000D102892B09F0A0CF1092D002809167038C
:1026700090916803892B49F08091670390916803DA
:10268000019790936803809367031092D3028CCFD5
:1026900081E08093CF02419A8091CD029091CE0249
:1026A000B0E0A0E08093C9029093CA02A093CB024D
:1026B000B093CC028091CF028F5F8093CF0286CF00
:1026C0008091C9029091CA02A091CB02B091CC0234
:1026D0000197A109B1098093C9029093CA02A093FE
:1026E000CB02B093CC02892B8A2B8B2B09F06ECFB7
:1026F00041988091C7029091C802D2CF8091C902BF
:102700009091CA02A091CB02B091CC020197A1098D
:10271000B1098093C9029093CA02A093CB02B093EF
:10272000CC02892B8A2B8B2B09F050CF81E0C5CFAF
:10273000882309F44BCF41981092CF0247CF809164
:10274000C602882309F44ECF81508093C6028111BE
:1027500049CF419847CF1092C5028091C302909112
:10276000C402892B49F08091C3029091C402019761
:102770009093C4028093C3028091C2028F5F8A301B
:1027800019F08093C20236CF1092C2028091D0021B
:102790008F5F8093D002843160F0809167039091C5
:1027A0006803449730F484E190E090936803809349
:1027B00067038091D702882351F08091D70281501E
:1027C0008093D702811103C081E08093D60280916B
:1027D000C1028F5F843619F08093C1020BCF109233
:1027E000C1021092890310928A0310928B031092F7
:1027F0008C0390E080E0FC01EE0FFF1FE35CFC4FD8
:10280000208131814091890350918A0360918B032B
:1028100070918C03420F531F611D711D40938903FA
:1028200050938A0360938B0370938C0301968531D8
:10283000910509F785E18093C00260918903709149
:102840008A0380918B0390918C0323E030E040E079
:1028500050E00E9435222093890330938A034093ED
:102860008B0350938C038091890390918A03A091EC
:102870008B03B0918C0380349244AF40B10560F07B
:102880008FE392E4AFE0B0E08093890390938A03F2
:10289000A0938B03B0938C034091890350918A03DA
:1028A00060918B0370918C0380916E0390916F0304
:1028B000A0917003B091710384179507A607B7071D
:1028C00080F48091890390918A03A0918B03B09149
:1028D0008C0380936E0390936F03A0937003B09367
:1028E00071034091890350918A0360918B03709129
:1028F0008C038091310190E0B0E0A0E048175907C7
:102900006A077B0730F181E080938E0383E190E0DA
:10291000FC01EE0FFF1FE35CFC4F20813181FC01C5
:10292000EE0FFF1FE15CFC4F31832083019780F79E
:102930001092C00210923E0310923D0380916D03ED
:102940008F5F8C3388F480936D0381E08093360130
:1029500051CE10928E0380916A038823B9F21092AF
:102960006A0310928D03D2CF10926D0380916C0395
:102970008F5F8C3318F480936C03E7CF10926C0355
:1029800080916B038F5F843618F480936B03DDCFE7
:1029900010926B03109273031092740310927503DC
:1029A00010927603D2CFCF93DF93E5E0F4E0138269
:1029B000128288EE93E0A0E0B0E084839583A68342
:1029C000B78320E631E03183208325EC30E0358782
:1029D000248724EC30E03787268720EC30E0318BE9
:1029E000208B21EC30E0338B228B22EC30E0358BD6
:1029F000248B26EC30E0378B268B118E128E138EB3
:102A0000148EE2EAF4E01382128284839583A68313
:102A1000B78382E791E091838083C7ECD4E01B8287
:102A20001A8282E991E0998388831F82188680ED5B
:102A300097E0A0E0B0E0888B998BAA8BBB8B86E2F5
:102A400090E0A0E0B0E08C8B9D8BAE8BBF8B1C86A2
:102A50001D861E861F861B860E946803688F798FDD
:102A60008A8F9B8F1C8E1D8E1E8E1F8E88EA91E092
:102A70009983888388E088A389E08AA38FEF89A35C
:102A800084E08BA385E08CA386E08DA387E08EA3F2
:102A90008AE08FA318A6E0ECF4E084E891E091834B
:102AA000808384EC97E2A0E0B0E083839483A583E5
:102AB000B683EEEAF4E01586148617861686118A28
:102AC000108ADF91CF910895CF93DF93CDB7DEB712
:102AD000CA54D1090FB6F894DEBF0FBECDBF7894AB
:102AE00084B5826084BD84B5816084BD85B5826013
:102AF00085BD85B5816085BD80916E0081608093C4
:102B00006E0010928100809181008260809381002C
:102B1000809181008160809381008091800081603C
:102B2000809380008091B10084608093B100809197
:102B3000B00081608093B00080917A0084608093BF
:102B40007A0080917A00826080937A0080917A0086
:102B5000816080937A0080917A00806880937A0007
:102B60001092C100259A2D98539A5B98399A4198F2
:102B700052985A9A0E94DB071092B20012E010930A
:102B8000B0001093B10084E18093B3008091700095
:102B900082608093700090E080E00E947D108093BE
:102BA0003501833010F01093350181E090E00E94F0
:102BB0007D1080938D0382E090E00E947D108093D1
:102BC000690383E090E00E947D108093330181507F
:102BD000853018F085E08093330184E090E00E9416
:102BE0007D10809332018150853018F085E080930C
:102BF000320185E090E00E947D108093310188527F
:102C0000833D18F082E38093310186E090E00E94DA
:102C10007D1080933001863018F084E0809330017D
:102C20008091D30481110CC08091D404811108C01B
:102C30008091D504811104C08091D604882321F0AD
:102C40008091CE048F7E59F01092D30480E480935B
:102C5000D40480E18093D50480E58093D60482E09B
:102C60008093CF0480E18093CE0464E670E080E03E
:102C700090E00E948D031092CB0487EC94E00E94B8
:102C80007B08892B09F059C08091CF04823028F04D
:102C90008091CB0488608093CB0440E362E070E0D5
:102CA00087EC94E00E94D80965E070E080E090E055
:102CB0000E948D0340E362E070E087EC94E00E94A4
:102CC000D80961E070E080E090E00E948D0340E36D
:102CD00062E070E087EC94E00E94D80961E070E067
:102CE00080E090E00E948D038091CB0484FD07C0BA
:102CF00040E262E070E087EC94E00E94D8096091C5
:102D0000CB04606287EC94E00E941C0784E080930F
:102D1000CC046CE087EC94E00E941C070E945407EE
:102D200082E08093CD0466E087EC94E00E941C076B
:102D30006FEF87EC94E00E9435080E946C0840E039
:102D400060E087EC94E00E94590788EE91E00E94D1
:102D5000210B41E060E087EC94E00E94590787EF87
:102D600091E00E94210B0E940504BE016F5F7F4F1E
:102D700080ED0E94AE098981853509F046C083E067
:102D80008093260367E273E08AEA0E94950969E26C
:102D900073E08CEA0E9495096BE273E08EEA0E9470
:102DA00095096DE273E080EB0E9439096FE273E0F0
:102DB00082EB0E94390961E373E084EB0E943909D8
:102DC00063E373E086EB0E94950965E373E088EBAB
:102DD0000E94950967E373E08AEB0E94950969E315
:102DE00073E08CEB0E9495096BE373E08EEB0E941D
:102DF000950980917203816080937203BE016F5FB9
:102E00007F4F80EC94E00E94860C64E170E080E0EB
:102E100090E00E948D038091BA049091BB040097CA
:102E200011F00E943A2386E090E00E949E228C01DD
:102E300088E3F801808382EA94E09283818313829D
:102E400080E290E0958384831093BB040093BA04DE
:102E50000E940504FF24F394F801F382C8010E9444
:102E6000C406882309F488C08AEB89838091BA0458
:102E70009091BB04FC0124813581232B09F47CC093
:102E80002081F092E103209303041092E203109258
:102E9000040441E050E0BE016F5F7F4F0E942D05AA
:102EA000882309F469C064E170E080E090E00E944A
:102EB0008D0381EE898388E08A831B828091BA0426
:102EC0009091BB04FC01248135812330310508F445
:102ED00053C02081F092E103209303041092E20397
:102EE0001092040443E050E0BE016F5F7F4F0E94E8
:102EF0002D05882309F440C08EEA94E00E94210940
:102F000087FF07C06AE070E080E090E00E948D03D8
:102F1000F3CF8EEA94E00E94210983FF2DC087E061
:102F200090E00E949E22FC0182E591E091838083E3
:102F300080E290E1948383830EEA14E01683058394
:102F4000F093BF04E093BE0487E090E00E949E22CD
:102F5000FC0184E491E09183808381E290E1948399
:102F6000838316830583F093BD04E093BC048091B2
:102F7000720382608093720380913501823031F058
:102F800088EE93E0909368038093670388EE93E064
:102F90000E94EF070E9454078AE090E00E94EF072A
:102FA00068E271E080E00E94E00A60E271E081E0A6
:102FB0000E94E00A68E171E082E00E94E00A60E1BC
:102FC00071E083E00E94E00A68E071E084E00E9422
:102FD000E00A60E071E085E00E94E00A83E080930F
:102FE000690081E08DBB70E3472E7AE2572E612C99
:102FF000712CEAE88E2EE2E09E2E6CE9A62E62E0AD
:10300000B62E80918E03882331F080918D0381113B
:1030100002C00E94880E80913601882309F465C0A1
:103020001092360180913501813009F498C008F47E
:103030007AC0823009F4AAC040E060E087EC94E0F6
:103040000E94590787E793E00E94210B8091350188
:10305000813009F4FCC008F4DEC0823009F40EC1EE
:103060008091350141E0823009F4D8C168E087ECF5
:1030700094E00E94590787E793E00E94210B48E003
:1030800050E060E270E087E793E00E94C8238091FF
:103090008D03882309F4B5C180916A03882309F45C
:1030A000AEC183E0809378038093770380916903B6
:1030B000882309F4ACC180E280937B0380937A0378
:1030C00041E060E087EC94E00E94590748E050E05E
:1030D00067E773E087EC94E00E942D028091340151
:1030E000815009F4A5C1809334010E94FC0783300C
:1030F00009F482C208F0F9C1813009F4C6C28230F5
:1031000009F467C28AE090E00E94EF0780E090E057
:10311000892B09F476CF0E941902882309F471CF14
:103120000E9400006ACF8091890390918A03A09148
:103130008B03B0918C03BF93AF939F938F9384E0E5
:1031400092E09F938F9387E793E09F938F930E94E2
:10315000F0230FB6F894DEBF0FBECDBF6DCF209128
:103160007303309174034091750350917603A5E188
:10317000B0E00E947622A30192010E9435225F9363
:103180004F933F932F9383E192E0DBCF80917203C3
:1031900080FF3AC0BE016B5D7F4F80EC94E00E94DF
:1031A000860CC9ACDAACEBACFCAC20E030E54DE70A
:1031B00054E4C701B6010E94FD1E21E03EED42E449
:1031C0005EE30E94A0209B01AC0160E070E080E81B
:1031D0009FE30E94901E20E03AE24DE257E40E94F5
:1031E00033200E946F1F7F936F932EE836E040E4F8
:1031F0005FE3C701B6010E9433200E946F1F7F93D7
:103200006F9382E292E09DCF61E372E087E793E003
:103210000E94DA2311CF80916E0390916F03A091E9
:103220007003B0917103BF93AF939F938F9382E428
:1032300092E09F938F9387E793E09F938F930E94F1
:10324000F0230FB6F894DEBF0FBECDBF09CF80913B
:103250006D031F928F9380916C031F928F938091C7
:103260006B031F928F9389E492E09F938F9387E77C
:1032700093E09F938F930E94F023E3CF809172039A
:1032800081FF30C0AE014F5F5F4FBE016B5D7F4F6E
:103290008EEA94E00E942E0B69AD7AAD8BAD9CADA9
:1032A00007E713E021E045E00E94EE1B68E572E0CD
:1032B000C8010E94CF236D897E898F89988D0FE781
:1032C00013E021E046E00E94EE1B6CE572E087E728
:1032D00093E00E94CF236EE572E087E793E00E94BF
:1032E000CF23BECE80FF84C0CE0101960E946E091E
:1032F000809131039091320329813A814B815C8125
:10330000281B390B41095109A0912F03B0913003BB
:103310000E9476226B017C013FE0F594E794D794FC
:10332000C7943A95D1F76091390370913A03072E0B
:10333000000C880B990B4BE0660F771F881F991FB5
:103340004A95D1F720913B0330913C03032E000CAA
:10335000440B550B2C0D3D1D4E1D5F1D0E94572229
:10336000CA01B9016C0D7D1D8E1D9F1D685F7F4FC9
:103370008F4F9F4F54E095958795779567955A9510
:10338000D1F70E94A71F6B017C0169AD7AAD8BADAF
:103390009CAD0E946F1F7F936F9380E692E09F9396
:1033A0008F9387E793E09F938F930E94F02320E011
:1033B00030E040E251E4C701B6010E94FD1E0FE774
:1033C00013E021E046E00E94EE1B6CE572E087E727
:1033D00093E00E94CF236EE572E087E793E00E94BE
:1033E000CF230F900F900F900F900F900F9038CE2B
:1033F00068E672E087E793E00E94DA2331CE80E24C
:1034000051CE1092770381E0809378034FCE84E011
:1034100080937A0385E080937B0352CE60E087EC53
:1034200094E00E94590787E793E00E94210B56CE53
:1034300085E080933401609135012B961FAE1EAE5E
:103440002B97CE01875B9F4F0E947F1060918D0369
:1034500081E090E02B969FAF8EAF2B97CE01875BDC
:103460009F4F0E947F106091690382E090E02B964D
:103470009FAF8EAF2B97CE01875B9F4F0E947F102F
:103480006091330183E090E02B969FAF8EAF2B9736
:10349000CE01875B9F4F0E947F106091320184E0D4
:1034A00090E02B969FAF8EAF2B97CE01875B9F4FFF
:1034B0000E947F106091310185E090E02B969FAFD4
:1034C0008EAF2B97CE01875B9F4F0E947F1060913C
:1034D000300186E090E02B969FAF8EAF2B97CE0108
:1034E000875B9F4F0E947F1000CE843009F4B7C0E5
:1034F000853009F007CE0E9454078AE090E00E94D0
:10350000EF0781E08093360110E087E7E82E83E043
:10351000F82E80918E03882331F080918D038111E4
:1035200002C00E94880E80913601882309F43FC0B2
:103530001092360141E060E087EC94E00E94590768
:1035400062E087EC94E00E94800741E062E087EC53
:1035500094E00E945907812F90E001969F938F93EA
:10356000E3E7F2E0FF93EF93FF92EF920E94F023E4
:1035700087E793E00E94210B0F900F900F900F9020
:103580000F900F90113009F491C008F486C01230EA
:1035900009F49DC0133009F4A1C040E060E087EC5D
:1035A00094E00E94590787E793E00E94210B0E9454
:1035B000FC07833009F4D7C008F097C0813009F4C4
:1035C000AAC0823009F4A0C08AE090E00E94EF0710
:1035D000A0CF809135018F5F80933501833040F01B
:1035E0001092350188EE93E090936803809367030F
:1035F00081E08093360186CD80913501882389F062
:103600008130B1F710927303109274031092750316
:103610001092760310926D0310926C0310926B035C
:10362000E7CF90E080E0FC01EE0FFF1FE35CFC4F72
:1036300011821082019685319105A9F710928903B4
:1036400010928A0310928B0310928C0310926E03D7
:1036500010926F031092700310927103C9CF909172
:103660008D0380918E03882351F0913009F681E01B
:1036700090916A03911180E080936A03B9CF81E051
:10368000911180E080938D03B3CF81E09091690325
:10369000911180E080936903ABCF809133011F9239
:1036A0008F9388E792E09F938F9306C080913201B9
:1036B0001F928F939F928F92FF92EF920E94F0231E
:1036C0000F900F900F900F900F900F9066CF8091FA
:1036D00031011F928F93BF92AF92EECF8091300154
:1036E0001F928F938DEA92E0DECF8430A1F0853077
:1036F00009F06ACF1F5F143070F00E9454078AE00F
:1037000090E00E94EF0774CF113089F040F0123042
:10371000C1F01330F1F081E08093360155CF8091F4
:1037200033018530C0F78F5F80933301F4CF8091F0
:103730003201853080F78F5F809332010E94DB0772
:10374000EACF809131018A3F30F7865F8093310163
:10375000E2CF80913001853018F48F5F8093300183
:103760000E946C08D8CF113089F050F01230A1F0CF
:10377000133089F680913001882391F38150EECF88
:1037800080913301823038F28150CECF8091320166
:10379000823008F28150D0CF80913101893208F413
:1037A000BACF8A50D3CF8091BC049091BD040097CA
:1037B00039F0DC01ED91FC910280F381E02D099557
:1037C0008091BE049091BF04009739F0DC01ED9127
:1037D000FC910280F381E02D09940895EF920F93FC
:1037E0001F93CF93DF93E80134E047FD34E1042ECB
:1037F000000C550B57FF03C0519541955109E32E1D
:10380000022F242FAE010E940C1CCE01DF91CF911C
:103810001F910F91EF900895A9E0B0E0E2E1FCE183
:103820000C945F1E6A01F22EB02E102FFBE3AF2E18
:10383000A01608F41BE31F5F012F27E0AE014F5FC6
:103840005F4F0E946B1DBC018981982F9970913048
:1038500009F43FC09BE2E1FC04C09E2D9170E0FCA6
:103860003AC05E2D5071E82FE87083FF46C084E0B7
:10387000911101C083E0EF2DE81B8F1508F0E0E007
:10388000D6018E2F20E2552351F1992329F0D6013C
:103890009C93C60101966C0196012D5F3F4FE2FE9D
:1038A00024C08EE4D6018C9391E411969C931197D9
:1038B00012968C93D9018E2F90E281111BC0E20FDA
:1038C000F32FF11D10828EEF9FEF2996ECE00C9400
:1038D0007B1E9DE2C6CF90E2C4CF2D938150811113
:1038E000FCCFCE0ED11CE0E0D0CF8EE6D6018C937B
:1038F00091E6DBCF9D938150E0CF482F447082FF4B
:103900003DC084E0911101C083E08F1510F4EF2DCC
:10391000E81BD6018E2F20E2552309F1992329F0C7
:10392000D6019C93C60101966C0196012D5F3F4F15
:10393000E2FE1BC089E4D6018C938EE411968C9331
:10394000119786E412968C93D9018E2F90E28823EA
:1039500009F4B5CF9D938150FACF2D9381508111F9
:10396000FCCFCE0ED11CE0E0D9CF89E6D6018C93F6
:103970008EE611968C93119786E6E4CF9B0177FF34
:1039800002C030E020E0A1E0B0E0911102C0B0E060
:10399000A0E0F9013196AE0FBF1F8B2C912CBB20FC
:1039A00009F461C05401EFEFAE1ABE0AAA0DBB1DA7
:1039B000FA161B0619F014F04F2D4A1B511188C03E
:1039C000E3FC59C07601A42FB0E2A1114FC0C40E90
:1039D000D11C992309F45BC040E0D6011196F60191
:1039E00090836D01552309F448C0012F060F9A8179
:1039F000582F507184FF03C0913309F40150101601
:103A00000CF047C0093008F008E0EEE2FE2E5B0142
:103A1000A01AB10885019194819491082F3F320733
:103A200029F4D601FC92F60131966F0162177307F3
:103A300094F1021713077CF5DB01A21BB30BAA2438
:103A4000A394B12CAC0EBD1EAA0DBB1D11968C917A
:103A500021503109D601119628153905F4F0F601E7
:103A600080836D01DBCFB12CA12CA0CFF701B193E6
:103A70007F01A150AACF9111B0CFD601942F50E36E
:103A800002C05D9391509111FCCFC40ED11C40E057
:103A9000ACCF01E0BACF80E3DBCF6217730731F41C
:103AA000963388F4953311F4552369F0F601808339
:103AB000FD01842F90E2811108C0A40FB11D1C925A
:103AC00090E080E002CF81E3F1CF91938150F3CF7A
:103AD000911183CF8ACF283008F027E03327DA010D
:103AE000990F311D87FD916000966105710539F4CC
:103AF00032602E5F3D9330E32A95E1F708959F3FB2
:103B000030F080387105610509F03C5F3C5F3D9302
:103B1000913008F08068911DDF93CF931F930F932E
:103B2000FF92EF92192F987F9695E92F969596958B
:103B3000E90FFF27EC5BFE4F99273327EE24FF2484
:103B4000A701E70105900894079428F4360FE71EB3
:103B5000F81E491F511D660F771F881F991F069475
:103B6000A1F70590079428F4E70EF81E491F561F89
:103B7000C11D770F881F991F661F0694A1F7059036
:103B8000079428F4F80E491F561FC71FD11D880F30
:103B9000991F661F771F0694A1F70590079420F4DC
:103BA000490F561FC71FD81F990F661F771F881F01
:103BB0000694A9F784911095177041F0D695C79592
:103BC00057954795F794E7941A95C1F7EAEEF0E018
:103BD00068941590159135916591959105907FE2C6
:103BE0007395E118F10A430B560BC90BD009C0F7C6
:103BF000E10CF11E431F561FC91FD01D7EF4703308
:103C000011F48A95E6CFE894015030F0080F0AF4D9
:103C10000027021708F4202F2395022F7A3328F06B
:103C200079E37D932A95E9F710C07D932A9589F66B
:103C3000069497956795379517951794E118F10AAB
:103C4000430B560BC90BD00998F023957E917395C1
:103C50007A3308F070E37C932013B8F77E9170619B
:103C60007D9330F0839571E37D9370E32A95E1F7BE
:103C70001124EF90FF900F911F91CF91DF91992721
:103C800087FD90950895F999FECF92BD81BDF89A70
:103C9000992780B50895262FF999FECF1FBA92BDB6
:103CA00081BD20BD0FB6F894FA9AF99A0FBE01961D
:103CB00008952F923F924F925F926F927F928F92D0
:103CC0009F92AF92BF92CF92DF92EF92FF920F93AB
:103CD0001F93CF93DF93CDB7DEB7CA1BDB0B0FB6B5
:103CE000F894DEBF0FBECDBF09942A883988488872
:103CF0005F846E847D848C849B84AA84B984C88408
:103D0000DF80EE80FD800C811B81AA81B981CE0FFE
:103D1000D11D0FB6F894DEBF0FBECDBFED010895E3
:103D20005058BB27AA270E94A81E0C94F91F0E9476
:103D3000EB1F38F00E94F21F20F039F49F3F19F476
:103D400026F40C94E81F0EF4E095E7FB0C94E21FB8
:103D5000E92F0E940A2058F3BA17620773078407F5
:103D6000950720F079F4A6F50C942C200EF4E0953C
:103D70000B2EBA2FA02D0B01B90190010C01CA0125
:103D8000A0011124FF27591B99F0593F50F4503ED0
:103D900068F11A16F040A22F232F342F4427585FC2
:103DA000F3CF469537952795A795F0405395C9F7DA
:103DB0007EF41F16BA0B620B730B840BBAF0915092
:103DC000A1F0FF0FBB1F661F771F881FC2F70EC031
:103DD000BA0F621F731F841F48F487957795679504
:103DE000B795F7959E3F08F0B0CF9395880F08F0F0
:103DF0009927EE0F9795879508950E94111F0C94AF
:103E0000F91F0E94F21F58F00E94EB1F40F029F4A6
:103E10005F3F29F00C94E21F51110C942D200C945B
:103E2000E81F0E940A2068F39923B1F3552391F308
:103E3000951B550BBB27AA2762177307840738F019
:103E40009F5F5F4F220F331F441FAA1FA9F335D076
:103E50000E2E3AF0E0E832D091505040E695001C2A
:103E6000CAF72BD0FE2F29D0660F771F881FBB1FE4
:103E7000261737074807AB07B0E809F0BB0B802DC2
:103E8000BF01FF2793585F4F3AF09E3F510578F0EE
:103E90000C94E21F0C942D205F3FE4F3983ED4F382
:103EA000869577956795B795F7959F5FC9F7880FC2
:103EB000911D9695879597F90895E1E0660F771F14
:103EC000881FBB1F621773078407BA0720F0621BA5
:103ED000730B840BBA0BEE1F88F7E09508950E94D0
:103EE000761F6894B1110C942D2008950E94122021
:103EF00088F09F5798F0B92F9927B751B0F0E1F0AB
:103F0000660F771F881F991F1AF0BA95C9F714C05A
:103F1000B13091F00E942C20B1E008950C942C2037
:103F2000672F782F8827B85F39F0B93FCCF3869593
:103F300077956795B395D9F73EF4909580957095F0
:103F400061957F4F8F4F9F4F0895E89409C097FB6D
:103F50003EF490958095709561957F4F8F4F9F4F60
:103F60009923A9F0F92F96E9BB279395F6958795A4
:103F700077956795B795F111F8CFFAF4BB0F11F467
:103F800060FF1BC06F5F7F4F8F4F9F4F16C088230E
:103F900011F096E911C0772321F09EE8872F762F44
:103FA00005C0662371F096E8862F70E060E02AF085
:103FB0009A95660F771F881FDAF7880F9695879571
:103FC00097F9089597F99F6780E870E060E0089599
:103FD0009FEF80EC089500240A9416161706180621
:103FE0000906089500240A941216130614060506FD
:103FF0000895092E0394000C11F4882352F0BB0F8E
:1040000040F4BF2B11F460FF04C06F5F7F4F8F4FF0
:104010009F4F089557FD9058440F551F59F05F3F2B
:1040200071F04795880F97FB991F61F09F3F79F0DA
:1040300087950895121613061406551FF2CF46955C
:10404000F1DF08C0161617061806991FF1CF8695DE
:104050007105610508940895E894BB2766277727C2
:10406000CB0197F908950E9446200C94F91F0E94F5
:10407000EB1F38F00E94F21F20F0952311F00C94F2
:10408000E21F0C94E81F11240C942D200E940A209A
:1040900070F3959FC1F3950F50E0551F629FF0019B
:1040A000729FBB27F00DB11D639FAA27F00DB11DB4
:1040B000AA1F649F6627B00DA11D661F829F22273D
:1040C000B00DA11D621F739FB00DA11D621F839FC4
:1040D000A00D611D221F749F3327A00D611D231F9A
:1040E000849F600D211D822F762F6A2F11249F57E8
:1040F00050409AF0F1F088234AF0EE0FFF1FBB1FEB
:10410000661F771F881F91505040A9F79E3F5105A9
:1041100080F00C94E21F0C942D205F3FE4F3983E56
:10412000D4F3869577956795B795F795E7959F5F53
:10413000C1F7FE2B880F911D9695879597F90895E5
:10414000FA01EE0FFF1F309621053105A1F161152F
:10415000710561F48038BFE39B0749F1689490389A
:10416000810561F08038BFEF9B0741F099234AF544
:10417000FF3FE1053105210519F1E8940894E79521
:10418000D901AA2329F4AB2FBE2FF85FD0F310C0BA
:10419000FF5F70F4A695E0F7F73950F019F0FF3A99
:1041A00038F49F779F930DD00F9007FC9058089597
:1041B00046F00C94E81F60E070E080E89FE308950B
:1041C0004FE79F775F934F933F932F930E949B21DD
:1041D0002F913F914F915F910E9433200C94F820D2
:1041E00029F416F00C94E21F0C942C200C94E81F78
:1041F0000E941220A8F39638A0F707F80F92E894CF
:104200002BE33AEA48EB5FE70E9449200F920F92B6
:104210000F924DB75EB70F920E94E321E8E6F0E0FF
:104220000E942A214F915F91EF91FF91E595EE1F3A
:10423000FF1F49F0FE57E0684427EE0F441FFA9530
:10424000E1F74195550B0E945D210F9007FE0C94FC
:1042500051210895DF93CF931F930F93FF92EF9215
:10426000DF927B018C01689406C0DA2EEF010E9478
:104270004620FE01E894A5912591359145915591EF
:10428000A6F3EF010E94A81EFE019701A801DA948F
:1042900069F7DF90EF90FF900F911F91CF91DF9121
:1042A00008959B01AC0160E070E080E89FE30C940E
:1042B000FD1E0C94E21F0C9417220E941220D8F3CA
:1042C0009923C9F3940F511DA3F39150504094F0DA
:1042D00059F0882332F0660F771F881F91505040A5
:1042E000C1F79E3F51052CF7880F911D9695879534
:1042F00097F908955F3FACF0983E9CF0BB278695F8
:1043000077956795B79508F4B1609395C1F7BB0FA2
:1043100058F711F460FFE8CF6F5F7F4F8F4F9F4FCB
:10432000E3CF0C942D2016F00C9417220C94E81F68
:1043300068940C94E21F0E941220A8F39923C1F301
:10434000AEF3DF93CF931F930F93FF92C92FDD2717
:1043500088232AF02197660F771F881FDAF720E05D
:1043600030E040E85FEB9FE3883920F0803E38F092
:1043700021968F770E94911EE0E9F0E004C00E9430
:10438000911EEDEBF0E00E942A218B01BE01EC01B1
:10439000FB2E6F5771097595771F880B990B0E943B
:1043A000A71F28E132E741E35FE30E944620AF2DDB
:1043B0009801AE01FF900F911F91CF91DF910E9464
:1043C000A81E0C94F91FFA01DC01AA0FBB1F9B0168
:1043D000AC01BF5728F4222733274427507820C048
:1043E000B75190F4AB2F0024469537952795011CC3
:1043F000A395D2F3002071F0220F331F441FB39511
:10440000DAF30ED00C94901E61307105A0E88A0793
:10441000B94630F49B01AC0166277727882790784E
:10442000309621F0208331834283538308959F3F48
:1044300031F0915020F4879577956795B795880F5F
:10444000911D9695879597F90895DB018F939F931A
:104450000E947622BF91AF91A29F800D911DA39FD4
:10446000900DB29F900D11240895A1E21A2EAA1B5F
:10447000BB1BFD010DC0AA1FBB1FEE1FFF1FA21714
:10448000B307E407F50720F0A21BB30BE40BF50B11
:10449000661F771F881F991F1A9469F7609570959A
:1044A000809590959B01AC01BD01CF010895052E2B
:1044B00097FB1EF400940E946E2257FD07D00E94C5
:1044C000352207FC03D04EF40C946E225095409593
:1044D000309521953F4F4F4F5F4F089590958095B0
:1044E000709561957F4F8F4F9F4F08950E948F2247
:1044F000A59F900DB49F900DA49F800D911D112438
:104500000895B7FF0C9476220E947622821B930BAB
:104510000895EE0FFF1F0590F491E02D0994A29FDE
:10452000B001B39FC001A39F700D811D1124911D87
:10453000B29F700D811D1124911D08950F931F933B
:10454000CF93DF938230910510F482E090E0E09108
:10455000F204F091F30430E020E0B0E0A0E0309706
:1045600099F42115310509F44AC0281B390B243070
:104570003105D8F58A819B816115710589F1FB01AF
:1045800093838283FE0111C0408151810281138196
:1045900048175907E0F04817590799F4109761F048
:1045A00012960C93129713961C933296CF01DF91BB
:1045B000CF911F910F9108950093F2041093F3048B
:1045C000F4CF2115310551F04217530738F0A901F6
:1045D000DB019A01BD01DF01F801C1CFEF01F9CF85
:1045E0009093F3048093F204CDCFFE01E20FF31F0A
:1045F000819391932250310939832883D7CF209119
:10460000F0043091F104232B41F4209139013091D1
:104610003A013093F1042093F00420913701309156
:1046200038012115310541F42DB73EB740913B01CA
:1046300050913C01241B350BE091F004F091F10402
:10464000E217F307A0F42E1B3F0B2817390778F069
:10465000AC014E5F5F4F2417350748F04E0F5F1FC8
:104660005093F1044093F004819391939FCFF0E035
:10467000E0E09CCFCF93DF930097E9F0FC01329705
:1046800013821282A091F204B091F304ED0130E0A4
:1046900020E01097A1F420813181820F931F209197
:1046A000F0043091F1042817390709F061C0F09344
:1046B000F104E093F004DF91CF910895EA01CE1761
:1046C000DF07E8F54A815B819E0141155105B1F78D
:1046D000E901FB83EA8349915991C40FD51FEC1777
:1046E000FD0761F4808191810296840F951FE90195
:1046F00099838883828193819B838A83F0E0E0E0C1
:1047000012968D919C9113970097B9F52D913C913C
:104710001197CD010296820F931F2091F0043091E2
:10472000F1042817390739F6309751F51092F30440
:104730001092F204B093F104A093F004BCCFD383A1
:10474000C28340815181840F951FC817D90761F436
:104750004E5F5F4F88819981480F591F5183408375
:104760008A819B81938382832115310509F0B0CF23
:10477000F093F304E093F2049ECFFD01DC01C0CF7F
:1047800013821282D7CF81E090E0F8940C949126A6
:10479000DC0101C06D9341505040E0F70895FB01EA
:1047A000DC010D900020E9F7119701900D92002097
:1047B000E1F70895FB01DC0101900D920020E1F783
:1047C0000895FB01DC014150504048F001900D92EA
:1047D0000020C9F701C01D9241505040E0F70895F4
:1047E000AEE0B0E0E6EFF3E20C94671E0D891E899F
:1047F00086E08C831A8309838FEF9FE79E838D83E6
:10480000AE01475E5F4F6F89788DCE0101960E94A1
:1048100013242F813885020F131FF80110822E9662
:10482000E4E00C94831EABE0B0E0E9E1F4E20C9428
:10483000591E7C013B018A01FC011782168283818B
:1048400081FFC8C1CE0101965C01F7019381F3019C
:1048500093FD859193FF81913F01882309F453C112
:10486000853239F493FD859193FF81913F01853223
:1048700029F4B70190E00E940326E7CF912C212C68
:10488000312CFFE1F31538F08B3211F190F48032C6
:1048900009F1833229F137FC3CC020ED280F2A3082
:1048A00050F536FE20C08AE0989E200D1124922EED
:1048B00006C08D3291F0803371F7689430F8F301BF
:1048C00093FD859193FF81913F018111DACF21C042
:1048D000689431F8689432F8F2CF689433F8EFCFE7
:1048E000689434F8ECCFEAE02E9E200D1124222E9D
:1048F000689435F8E4CF8E3229F436FC04C168940C
:1049000036F8DDCF8C3619F4689437F8D8CF88366E
:10491000B1F2982F9F7D95549330E0F08336A1F14A
:104920008337C1F1833509F063C02801F2E04F0EEF
:10493000511CF801C080D180692D70E036FC02C0A6
:104940006FEF7FEFC6010E94ED254C01689437F8A8
:1049500082010AC00C5F1F4FFFE3F9838824839410
:10496000912C6501E89437F833FE2DC0522C811448
:10497000910471F5552009F468CFB70180E290E009
:104980000E9403265A94F6CFF801808189830E5F36
:104990001F4FE4CF2801F2E04F0E511CF801C080F8
:1049A000D180692D70E036FC02C06FEF7FEFC60149
:1049B0000E94F8254C018201D5CFB70180E290E03A
:1049C0000E9403262A942814190409F0B0F7CECFC8
:1049D000F60137FC859137FE81916F01B70190E0B8
:1049E0000E94032651105A94F1E08F1A9108BFCF0C
:1049F000843619F0893609F077C0F80137FE6BC0AC
:104A000060817181828193810C5F1F4FF32DFF764E
:104A10003F2E97FF09C090958095709561957F4FC7
:104A20008F4F9F4F689437F82AE030E0A5010E942D
:104A30003326C82ECA188C2C432C36FE0CC0E894A2
:104A400040F8C91440F434FE05C032FC03C0F32D15
:104A5000FE7E4F2E892C44FE95C0FE01EC0DF11D0B
:104A60008081803309F087C0242D297E422E842D39
:104A70008870582E43FC95C040FE8FC09C2C821439
:104A800018F42C0C922C981844FE91C0B70180E3C6
:104A900090E00E94032642FE09C088E790E041FEB4
:104AA00002C088E590E0B7010E940326C91408F40B
:104AB0008AC0CA94D12C9FEFC91AD90ACA0CDB1C30
:104AC000F60182916F01B70190E00E940326AC14B9
:104AD000BD04B1F74FCF60817181072E000C880BA8
:104AE000990B0E5F1F4F92CFD32CE894D4F82AE095
:104AF00030E0853739F1232D297FD22E8F3601F111
:104B000048F48835A9F0F701868197812B96E2E178
:104B10000C94751E803749F08837A9F7D4FE02C07F
:104B20006894D2F820E130E00DC06894D4F8F6CF54
:104B300034FE03C0822F8660D82E20E132E002C00E
:104B400028E030E0F801D7FE0FC0608171818281DA
:104B500093810C5F1F4FA5010E943326C82ECA18EF
:104B60003D2CE89437F867CF6081718190E080E058
:104B70000E5F1F4FF0CF42FC02C0839478CF839426
:104B8000839475CF842D867809F471CFF6CFB70161
:104B900080E290E00E94032683948214C0F3512C9B
:104BA00073CF522C5818821408F46ECFF8CF842D8E
:104BB000867809F47BCF8BE241FE80E247FC8DE2F0
:104BC000B70190E071CFB70180E390E00E94032627
:104BD0009A946CCF8FEF9FEF99CFFC0105906150B5
:104BE00070400110D8F7809590958E0F9F1F089503
:104BF000FC016150704001900110D8F780959095AC
:104C00008E0F9F1F08950F931F93CF93DF93182F3D
:104C1000092FEB018B8181FD09C01FEF0FEF812F61
:104C2000902FDF91CF911F910F91089582FF14C0B3
:104C30002E813F818C819D81281739073CF4E881C2
:104C4000F981CF0101969983888310838E819F819A
:104C500001969F838E83E3CFE885F985812F09959F
:104C6000892BA1F3DACFFA01AA27283051F120319C
:104C700081F1E8946F936E7F6E5F7F4F8F4F9F4FF0
:104C8000AF4FB1E03ED0B4E03CD0670F781F891F32
:104C90009A1FA11D680F791F8A1F911DA11D6A0F00
:104CA000711D811D911DA11D20D009F468943F91B3
:104CB0002AE0269F11243019305D3193DEF6CF01B2
:104CC0000895462F4770405D4193B3E00FD0C9F778
:104CD000F6CF462F4F70405D4A3318F0495D31FDE5
:104CE0004052419302D0A9F7EACFB4E0A695979538
:104CF000879577956795BA95C9F70097610571050E
:104D000008959B01AC010A2E069457954795379557
:104D10002795BA95C9F7620F731F841F951FA01DB1
:104D2000089511E0C0E2D1E004C0FE010E94892292
:104D30002196C132D107C9F7F894FFCF00000E0ABF
:104D40000A1B00000001030F0F0301000000000018
:104D500000000015001F001F001F00000004120AC1
:104D60000A12040000040E0E0E1F04000432030396
:104D70000502010000F4048000AC330000000000D4
:104D8000BF03580FEB06730C5E0F00000000BF035B
:104D9000560FEB067D0CAD0F00000000AC012D029C
:104DA0004D01F9017E015C017001000000007706F1
:104DB0004A06A70720064306300621060000000029
:104DC000EA065A0FEB06860CF80F00000000800779
:104DD0002D02A707E108A707A4075C0FDE08DE087D
:104DE0000000000080072D02A707E1087B08370AB2
:104DF000D8093508DE085741524E694E4700416CCC
:104E000041524D2044695341626C4564004148540D
:104E100078305F540041485478305F4800424D502C
:104E20003038350047456947455220434F554E7449
:104E3000455200322E31205374415274694E47005E
:104E4000524174452025366C752075522F680044F8
:104E500030534520202025366C75207552002534AE
:104E600064206D6D486720253464206D0062303009
:104E7000537420306666202020202020200020202F
:104E800025366C7500253032753A253032753A2555
:104E90003032750025724800DF004300253464205D
:104EA000685061006E6F2073656E736F72730025BA
:104EB0003031750042555A5A20564F4C554D4520B9
:104EC000202025327500414C41524D20564F4C5503
:104ED0004D45202025327500414C41524D204C4516
:104EE00056454C2020253375004252494748544EC0
:0C4EF0004553532020202025327500007F
:107E0000112484B714BE81FFF0D085E080938100F7
:107E100082E08093C00088E18093C10086E0809377
:107E2000C20080E18093C4008EE0C9D0259A86E02C
:107E300020E33CEF91E0309385002093840096BBD3
:107E4000B09BFECF1D9AA8958150A9F7CC24DD24C4
:107E500088248394B5E0AB2EA1E19A2EF3E0BF2EE7
:107E6000A2D0813461F49FD0082FAFD0023811F036
:107E7000013811F484E001C083E08DD089C08234E0
:107E800011F484E103C0853419F485E0A6D080C0E4
:107E9000853579F488D0E82EFF2485D0082F10E0AE
:107EA000102F00270E291F29000F111F8ED06801E7
:107EB0006FC0863521F484E090D080E0DECF843638
:107EC00009F040C070D06FD0082F6DD080E0C81688
:107ED00080E7D80618F4F601B7BEE895C0E0D1E017
:107EE00062D089930C17E1F7F0E0CF16F0E7DF06D8
:107EF00018F0F601B7BEE89568D007B600FCFDCFD4
:107F0000A601A0E0B1E02C9130E011968C91119780
:107F100090E0982F8827822B932B1296FA010C0160
:107F200087BEE89511244E5F5F4FF1E0A038BF0790
:107F300051F7F601A7BEE89507B600FCFDCF97BE46
:107F4000E89526C08437B1F42ED02DD0F82E2BD052
:107F50003CD0F601EF2C8F010F5F1F4F84911BD097
:107F6000EA94F801C1F70894C11CD11CFA94CF0C13
:107F7000D11C0EC0853739F428D08EE10CD085E9AC
:107F80000AD08FE07ACF813511F488E018D01DD067
:107F900080E101D065CF982F8091C00085FFFCCF94
:107FA0009093C60008958091C00087FFFCCF809118
:107FB000C00084FD01C0A8958091C6000895E0E648
:107FC000F0E098E1908380830895EDDF803219F02E
:107FD00088E0F5DFFFCF84E1DECF1F93182FE3DFCA
:107FE0001150E9F7F2DF1F91089580E0E8DFEE27F6
:047FF000FF270994CA
:027FFE00040479
:00000001FF
