:020000040000FA
:100000000C940D010C941A140C9435010C943501C8
:100010000C9435010C9435010C9435010C94781432
:100020000C9435010C9435010C9435010C94350178
:100030000C9435010C9435010C9481120C9435010B
:100040000C9418110C9435010C94E6100C94C0100B
:100050000C9435010C9435010C9435010C94350148
:100060000C9462110C94350108000000BE922449E2
:10007000123EABAAAA2ABECDCCCC4C3E00000080DA
:10008000BEABAAAAAA3E00000000BF000000803F4D
:100090000000000000084178D3BB4387D1133D190D
:1000A0000E3CC3BD4282AD2B3E68EC8276BED98F3A
:1000B000E1A93E4C80EFFFBE01C4FF7F3F0000007E
:1000C000000000407A10F35A00A0724E1809001088
:1000D000A5D4E80000E87648170000E40B540200BD
:1000E00000CA9A3B000000E1F505000080969800E8
:1000F000000040420F000000A08601000000102711
:1001000000000000E80300000000640000000000A0
:100110000A00000000000100000000002C76D888D2
:10012000DC674F0823DFC1DFAE59E1B1B796E5E3E5
:10013000E453C63AE651997696E8E6C28426EB89FE
:100140008C9B62ED407C6FFCEFBC9C9F40F2BAA59B
:100150006FA5F490055A2AF75C936B6CF9676DC133
:100160001BFCE0E40D47FEF520E6B500D0ED902E37
:100170000300943577050080841E080000204E0A95
:10018000000000C80C333333330F986E12831141D3
:10019000EF8D2114893BE65516CFFEE6DB18D1849E
:1001A0004B381BF77C1D901DA4BBE42420328472C5
:1001B0005E228100C9F124ECA1E53D27000000008A
:1001C000240027002A0000000000250028002B0042
:1001D0000000000023002600290004040404040495
:1001E00004040202020202020303030303030102E6
:1001F00004081020408001020408102001020408B5
:1002000010200000000800020100000304070000A5
:100210000000000000005115741C11241FBECFEF18
:10022000D8E0DEBFCDBF12E0A0E0B1E0EEE7FCE435
:1002300002C005900D92A63BB107D9F724E0A6EBCA
:10024000B2E001C01D92A43FB207E1F711E0CCE09B
:10025000D1E004C02197FE010E942A22CB30D107B1
:10026000C9F70E94F8150C9432260C9400000895EA
:1002700008954F925F926F927F928F929F92AF926A
:10028000BF92CF92DF92EF92FF924090C0045090C5
:10029000C1046090C2047090C30480EA481A8FE0E1
:1002A000580A61087108A3019201C301B2010E94BA
:1002B000C6216B017C01FCE0F594E794D794C794C8
:1002C000FA95D1F7E091B704A091A404B091A504E8
:1002D0000E9422224B015C01ADE0B594A794979453
:1002E0008794AA95D1F7A091AC04B091AD04A70171
:1002F00096010E9422229C01552737FD5095452FDB
:10030000280D391D4A1D5B1D2E5F3F4F4F4F5F4F1C
:1003100082E055954795379527958A95D1F73058BE
:100320004F4F5F4FA091A604B091A7040E941722DF
:100330004B015C019FE0B694A794979487949A959B
:10034000D1F7A091AE04B091AF04A70196010E942D
:1003500022226B017C012BE0F594E794D794C7949B
:100360002A95D1F7A091A204B091A304A301920110
:100370000E9422223BE095958795779567953A955F
:10038000D1F7C60ED71EE81EF91E8091A0049091E9
:10039000A104092E000CAA0BBB0B42E0880F991F89
:1003A000AA1FBB1F4A95D1F78C0D9D1DAE1DBF1D09
:1003B0006C017D010E2E04C0CC0CDD1CEE1CFF1C5C
:1003C0000A94D2F782E0C80ED11CE11CF11C52E065
:1003D000F594E794D794C7945A95D1F72091B8042F
:1003E0003091B9044091BA045091BB042C193D09D5
:1003F0004E095F0960E573EC80E090E004C09595DC
:10040000879577956795EA95D2F70E94C62197FD63
:100410004EC0660F771F881F991FA50194010E9487
:10042000D62169017A019927F7FC9A958F2D7E2DA7
:100430006D2D9B01AC010E94C6219B01AC01AEED6C
:10044000BBE00E9417224B015C01A3E4B3EEA701BD
:1004500096010E942522BC01992777FD9095892F4E
:100460004501BB2497FCB094AB2C680D791D8A1D07
:100470009B1D6153714F8F4F9F4F44E0959587951A
:10048000779567954A95D1F76C0D7D1D8E1D9F1D43
:100490000E944820FF90EF90DF90CF90BF90AF90E8
:1004A0009F908F907F906F905F904F900895A501DF
:1004B00094010E94D62169017A01CC0CDD1CEE1C4E
:1004C000FF1CB1CFCF92DF92EF92FF92CF93DF93D9
:1004D000CEE9D4E08C859D852E8D3F8D48A159A114
:1004E000281B390B41095109AA85BB850E94172297
:1004F0006B017C018FE0F594E794D794C7948A95BB
:10050000D1F76C897D89072E000C880B990B2BE0A5
:10051000660F771F881F991F2A95D1F72E893F896B
:10052000032E000C440B550B2C0D3D1D4E1D5F1D65
:100530000E94F821C20ED31EE41EF51ECAA2DBA241
:10054000ECA2FDA2A7019601285F3F4F4F4F5F4FDE
:10055000CA01B90134E095958795779567953A95E5
:10056000D1F70E9448202DEC3CEC4CEC5DE30E945E
:100570002421DF91CF91FF90EF90DF90CF900895ED
:10058000FC01538D448D252F30E0842F90E0821B99
:10059000930B541710F0CF96089501970895FC011E
:1005A000918D828D981761F0A28DAE0FBF2FB11D76
:1005B0005D968C91928D9F5F9F73928F90E00895CE
:1005C0008FEF9FEF0895FC01918D828D981731F088
:1005D000828DE80FF11D858D90E008958FEF9FEFDC
:1005E0000895FC01918D228D892F90E0805C9F4FB2
:1005F000821B91098F7399270895FC01A48DA80F80
:10060000B92FB11DA35ABF4F2C91848D90E0019654
:100610008F739927848FA689B7892C93A089B18974
:100620008C91837080648C93938D848D981306C015
:100630000288F389E02D80818F7D80830895EF9279
:10064000FF920F931F93CF93DF93EC0181E0888F8C
:100650009B8D8C8D98131AC0E889F989808185FF5C
:1006600015C09FB7F894EE89FF896083E889F989FE
:1006700080818370806480839FBF81E090E0DF9100
:10068000CF911F910F91FF90EF900895F62E0B8D53
:1006900010E00F5F1F4F0F731127E02E8C8D8E110E
:1006A0000CC00FB607FCFACFE889F989808185FF75
:1006B000F5CFCE010E94FD02F1CFEB8DEC0FFD2FA7
:1006C000F11DE35AFF4FF0829FB7F8940B8FEA8930
:1006D000FB8980818062CFCFCF93DF93EC01888D3F
:1006E0008823B9F0AA89BB89E889F9898C9185FDAD
:1006F00003C0808186FD0DC00FB607FCF7CF8C913B
:1007000085FFF2CF808185FFEDCFCE010E94FD02F3
:10071000E9CFDF91CF91089583EE93E00E94F1023B
:1007200021E0892B09F420E0822F089580E090E0F9
:10073000892B29F00E948C0381110C9400000895EC
:1007400081E00895AF92BF92CF92DF92EF92FF9235
:100750000F931F93CF93DF936C017B018B01040FE9
:10076000151FEB015E01AE18BF08C017D10759F085
:100770006991D601ED91FC910190F081E02DC601C7
:100780000995892B79F7C501DF91CF911F910F91C1
:10079000FF90EF90DF90CF90BF90AF90089583309F
:1007A00081F028F4813099F08230A9F008958730E3
:1007B000A9F08830C9F08430B1F4809180008F7D39
:1007C00003C0809180008F7780938000089584B566
:1007D0008F7784BD089584B58F7DFBCF8091B00065
:1007E0008F778093B00008958091B0008F7DF9CF0E
:1007F000CF93DF93282F30E0F901EE5FFD4F849116
:10080000F901E251FE4FD491F901E652FE4FC49135
:10081000CC23A1F081110E94CF03EC2FF0E0EE0F6A
:10082000FF1FE053FE4FA591B491EC91ED2381E0C1
:1008300090E009F480E0DF91CF91089580E090E0AE
:10084000FACF1F93CF93DF93282F30E0F901EE5FAB
:10085000FD4F8491F901E251FE4FD491F901E65226
:10086000FE4FC491CC23A9F0162F81110E94CF0313
:10087000EC2FF0E0EE0FFF1FEA53FE4FA591B4916D
:100880008FB7F894EC91111108C0D095DE23DC935A
:100890008FBFDF91CF911F910895DE2BF8CFCF93BB
:1008A000DF9390E0FC01E251FE4F249186529E4F6F
:1008B000FC0184918823D1F090E0880F991FFC01FE
:1008C000E454FE4FA591B491FC01EA53FE4FC5914B
:1008D000D49161110EC09FB7F8948C91E22FE095EE
:1008E0008E238C932881E223E8839FBFDF91CF91F1
:1008F00008958FB7F894EC91E22BEC938FBFF6CF6D
:100900001F93CF93DF93182FEB0161E00E944F04F8
:10091000209739F460E0812FDF91CF911F910C94E3
:100920002104CF3FD10511F461E0F5CFE12FF0E0D4
:10093000EE5FFD4FE491E33031F140F4E130B1F08E
:10094000E230E1F0C038D1057CF7E4CFE73029F19F
:10095000E83059F1E430B1F78091800080628093F3
:100960008000D0938B00C0938A0004C084B5806857
:1009700084BDC7BDDF91CF911F91089584B580627A
:1009800084BDC8BDF7CF80918000806880938000CF
:10099000D0938900C0938800EDCF8091B00080682B
:1009A0008093B000C093B300E5CF8091B000806227
:1009B0008093B000C093B400DDCF3FB7F89480912E
:1009C000170390911803A0911903B0911A0326B54B
:1009D000A89B05C02F3F19F00196A11DB11D3FBF77
:1009E000BA2FA92F982F8827BC01CD01620F711D46
:1009F000811D911D42E0660F771F881F991F4A9540
:100A0000D1F708958F929F92AF92BF92CF92DF92CB
:100A1000EF92FF924B015C010E94DD046B017C01AF
:100A20000E94DD046C197D098E099F09683E7340A0
:100A300081059105A8F321E0821A9108A108B10867
:100A400088EEC80E83E0D81EE11CF11C81149104CD
:100A5000A104B10429F7FF90EF90DF90CF90BF90F1
:100A6000AF909F908F900895089508950895BF9234
:100A7000CF92DF92EF92FF920F931F93CF93DF936A
:100A80004530D8F4B42E062FEC0110E060E070E0A1
:100A9000CB01B116A9F0CC24D62EE72EF82EE88192
:100AA000F9810680F781E02D602FCE01099596012E
:100AB000282BC701B9011F5FECCF60E070E0CB01CC
:100AC000DF91CF911F910F91FF90EF90DF90CF902A
:100AD000BF90089508952091EF02260F3327331F0A
:100AE00021323105ECF42091B903FC0190E080E063
:100AF000243069F082E00895A091EF022191AC01C9
:100B000041535D4FA40FB52FB11D2C93019686174D
:100B100098F38091EF02680F6093EF0280E00895F0
:100B200081E008951092B90381E08093B803109298
:100B3000930361E082E10E94210461E083E10E946D
:100B40002104E9EBF0E080818E7F808380818D7FBE
:100B5000808388E48093B80085E48093BC00089586
:100B600010927203109271031092C0031092E2036C
:100B70000E94920587E391E09093700380936F0346
:100B800088E391E090936E0380936D030895CF9373
:100B9000DF9391E09093CE028823B9F0C091B80022
:100BA000D091BA008091BC008A7B8093BC0060E049
:100BB00082E10E94210460E083E10E9421040E94FE
:100BC0009205D093BA00C093B800DF91CF910895F9
:100BD0008F929F92AF92BF92CF92DF92EF92FF924D
:100BE0000F931F93CF93DF93D091E203D13208F09C
:100BF000D7C0182FC091E1030E94DD046B017C0176
:100C00008091B90381116BC082E08093B903109386
:100C1000B8038FEF8093B7031092B603D093B50358
:100C2000A1ECB3E0E5E9F3E080E0D81391C01092C5
:100C3000940380919403CC0FC82BC09394038091AC
:100C40009303813009F088C0109293030E94DD0461
:100C50006B017C01809194038093BB008091BB0366
:100C60009091BC03A091BD03B091BE03892B8A2B48
:100C70008B2BA1F00E94DD040091BB031091BC03FB
:100C80002091BD033091BE036C197D098E099F0927
:100C9000061717072807390708F442C08091BC00DF
:100CA00083FDD8CF85EC8093BC000E94DD046B01EE
:100CB0007C018091B903823009F450C08091B70360
:100CC0008F3F09F46FC08091B703803209F46CC084
:100CD0008091B703803309F469C084E026C0809115
:100CE000BB039091BC03A091BD03B091BE03892BBF
:100CF0008A2B8B2B09F484CF0E94DD048090BB03E8
:100D00009090BC03A090BD03B090BE036C197D0908
:100D10008E099F0986169706A806B90608F070CFB7
:100D20008091BA030E94C70585E01092C00310921B
:100D3000E2031092BF03DF91CF911F910F91FF90BB
:100D4000EF90DF90CF90BF90AF909F908F900895DD
:100D50009D9191938F5F69CF85EEA5CF8091BB0365
:100D60009091BC03A091BD03B091BE03892B8A2B47
:100D70008B2B09F49ECF0E94DD040091BB031091E0
:100D8000BC032091BD033091BE036C197D098E090F
:100D90009F09061717072807390708F08ACFC0CF21
:100DA00081E0C3CF80E0C1CF82E0BFCF83E0BDCF81
:100DB000CF93DF93EA01DC0111968D919C91DC01C8
:100DC000ED91FC910280F381E02D0995C817D907B8
:100DD00029F481E00E94E80591E0811190E0892FDB
:100DE000DF91CF9108951F93CF93DF93FC01A6A1CC
:100DF000B7A1109721F1142FEC0180A591E09093F9
:100E0000BF038093E1031092C0031092E203ED91BF
:100E1000FC9111970190F081E02DCD0109958EA1F3
:100E20009FA1DC01ED91FC910190F081E02D612FFB
:100E3000099581E0DF91CF911F910C94E805DF9136
:100E4000CF911F910895CF93DF93EC018B8188237D
:100E5000A1F0888191E09093BF038093E103109209
:100E6000C0031092E20381E00E94E80591E0811145
:100E700090E0892FDF91CF9108950E94B00581E025
:100E80008B83CE010E942307982F8111E2CFF1CFEF
:100E90008F929F92AF92BF92CF92DF92EF92FF928A
:100EA0000F931F93CF93DF93D82FC62F142F613248
:100EB00008F09CC00E94DD046B017C018091B903A5
:100EC00081116FC081E08093B9031093B8039FEF45
:100ED0009093B7031092B6039C0F9093B503809341
:100EE000940380919403DD0FD82BD09394038091C9
:100EF0009303813009F07CC0109293030E94DD04BB
:100F00006B017C01809194038093BB008091BB03B3
:100F10009091BC03A091BD03B091BE03892B8A2B95
:100F20008B2BA1F00E94DD040091BB031091BC0348
:100F30002091BD033091BE036C197D098E099F0974
:100F4000061717072807390708F44CC08091BC0022
:100F500083FDD8CF85EC8093BC000E94DD046B013B
:100F60007C018091B903813009F444C08091B603BB
:100F70008C1710F4C091B603E5E9F3E0A3E7B3E002
:100F800080E08C1359C08C2FDF91CF911F910F916E
:100F9000FF90EF90DF90CF90BF90AF909F908F9099
:100FA00008958091BB039091BC03A091BD03B091C3
:100FB000BE03892B8A2B8B2B09F480CF0E94DD0482
:100FC0008090BB039090BC03A090BD03B090BE0383
:100FD0006C197D098E099F0986169706A806B90621
:100FE00008F06CCF8091BA030E94C705C0E0CBCF58
:100FF00085EEB1CF8091BB039091BC03A091BD035E
:10100000B091BE03892B8A2B8B2B09F4AACF0E94A7
:10101000DD040091BB031091BC032091BD0330910E
:10102000BE036C197D098E099F090617170728074B
:10103000390708F096CFD6CF91919D938F5FA1CFBE
:101040000895E091720380917103E81730F4F0E0A5
:10105000ED58FC4F808190E008958FEF9FEF089549
:1010600090917203809171032FEF3FEF981748F42E
:10107000E92FF0E0ED58FC4F208130E09F5F909326
:101080007203C90108958091710390917203891BC5
:10109000990B0895CF92DF92EF92FF920F931F93D7
:1010A000CF93DF937C01CB018A012091BF032223E0
:1010B00089F0EB016B01C40ED51ECC15DD0569F07E
:1010C0006991D701ED91FC910190F081E02DC7016C
:1010D0000995F3CF642F0E946B05C801DF91CF9172
:1010E0001F910F91FF90EF90DF90CF900895CF93D5
:1010F000DF931F92CDB7DEB769832091BF03222310
:10110000F9F02091E203203258F021E030E0FC01B8
:101110003383228390E080E00F90DF91CF91089598
:101120008091C003E82FF0E0EF53FC4F998190834A
:101130008F5F8093C0038093E20381E090E0ECCF67
:1011400061E0CE0101960E946B05F7CFCF92DF924E
:10115000EF92FF920F931F93CF93DF93EC01462FF3
:10116000E881F9810484F585E02D61E070E009955E
:101170008C01CC88DD88EE88FF880E94DD04688FB2
:10118000798F8A8F9B8FCC8EDD8EEE8EFF8E81E0E5
:1011900090E0012B11F090E080E0DF91CF911F9162
:1011A0000F91FF90EF90DF90CF9008958F929F92D4
:1011B000AF92BF92EF92FF921F93CF93DF93EC0118
:1011C000162FE881F9810484F585E02D462F70E023
:1011D00060E009957C0111501230D8F419861A8606
:1011E00088889988AA88BB880E94DD04688F798FD7
:1011F0008A8F9B8F8C8E9D8EAE8EBF8EC701DF91A6
:10120000CF911F91FF90EF90BF90AF909F908F90E4
:1012100008958C889D88AE88BF88E6CF61E087EC12
:1012200094E00C94D608DC0118968C911897481716
:1012300010F04FEF480F1B969C911B97992389F054
:1012400017969C911797691730F0691B4F5F4817E5
:10125000D0F340E0F8CF19966C9319971A964C93F7
:101260001A97FD01E40FF11D8485680F6068CD01B8
:101270000C94D6080F931F93CF93DF93EC010E9439
:10128000A6088C018B85882399F089858F5F8987D3
:101290009F81891768F019868A858F5F8A8798856C
:1012A000891708F01A864A8560E0CE010E9413096A
:1012B000C801DF91CF911F910F9108958DEF9FEF9E
:1012C000089590E080E0089580E480937C00809110
:1012D0007A00806480937A0080917A0086FDFCCF4A
:1012E0009091780080917900892798278927823307
:1012F000910588F0883C910580F0803921E09207C3
:1013000070F0883522E0920760F08032934058F404
:1013100084E08F5F089580E0FCCF81E0FACF82E027
:10132000F8CF83E0F6CF80E008958091320190E01D
:101330009093BE028093BD022091BD023091BE0207
:1013400082E390E0821B930B9093B8028093B702E4
:1013500008959093C9028093C8028091C802909129
:10136000C902892B11F00000F8CF0895CF930E9495
:101370006409C091CA02C81303C080E0CF910895E8
:1013800085E090E00E94A9090E946409C817A9F3AA
:101390008093CA02F3CF0F931F93CF938C01C62F74
:1013A000FC0183A161E0C0FF60E00E942104F8011C
:1013B00084A161E0C1FF60E00E942104F80185A1E1
:1013C00061E0C2FF60E00E942104F80186A161E0B3
:1013D000C3FF60E0CF911F910F910C942104FC0199
:1013E00087A18F3F81F190A59E3F51F4662331F094
:1013F00060E00E944F0490E080E0089561E0F9CF42
:10140000833041F02BEF280F223020F027EF280FF8
:10141000233068F470E0913019F40E948004EBCF1F
:101420002FEF30E0A901461B570BBA01F6CF662318
:1014300031F0913031F461E00E942104DCCF992336
:10144000D1F360E0F9CF8DEF9FEF08956091300107
:101450008EEC689F602D1124615087EC94E00E940F
:10146000EF098AE090E00C94A909EF92FF921F9394
:10147000CF93DF93EC0161E088A10E944F0489A122
:101480008F3F39F061E00E944F0460E089A10E9423
:10149000210461E08AA10E944F0460E08AA10E94B9
:1014A000210461E08BA10E944F0461E08CA10E94A5
:1014B0004F0461E08DA10E944F0461E08EA10E9463
:1014C0004F041FA11F3F61F188A5813029F560E01D
:1014D000812F0E94210460E0812F0E944F0461E06F
:1014E000812F0E944F0461E0812F0E9421048FE030
:1014F00090E00197F1F7812F0E94F8037C0160E0F2
:10150000812F0E94210460E0812F0E944F04EA9401
:10151000EF2811F08EEF88A761E08FA10E944F04A1
:1015200090E080E0DF91CF911F91FF90EF900895C0
:101530008DEF9FEF08950895CF92DF92EF92FF9283
:101540000F931F93CF93DF93DC0114962D913C9161
:101550002417350730F1EA016B017C0141E06C2F63
:10156000FC0180810E9448071092720380937103EE
:101570008C171D06B1F48601CC0DDD1DD701119627
:101580008D919C91DC01ED91FC910284F385E02D1D
:101590000995F80181938F01CE17DF0779F781E074
:1015A00001C080E0DF91CF911F910F91FF90EF90EC
:1015B000DF90CF900895CF93DF931F92CDB7DEB722
:1015C00041E050E0BE016F5F7F4FFC01848595854F
:1015D0000E949C0A882329F089810F90DF91CF9186
:1015E00008958FEFFACFCF92DF92EF92FF920F9391
:1015F0001F93CF93DF93FC01A6A1B7A1109709F425
:101600003FC04530E8F5142FEC0180A591E09093A0
:10161000BF038093E1031092C0031092E203ED91A7
:10162000FC9111970190F081E02DCD01099580E0AA
:101630000E94E80541E0612F88A50E9448071092AA
:1016400072038093710300E060E070E0CB0110173B
:10165000D1F0CC24D62EE72EF82E8EA19FA1DC014E
:10166000ED91FC910284F385E02D0995BC01990F61
:10167000880B990B6C297D298E299F290F5FE7CF55
:1016800060E070E0CB01DF91CF911F910F91FF904F
:10169000EF90DF90CF900895CF92DF92EF92FF927C
:1016A0006A017B01422F682F8EE994E00E94F30AC1
:1016B0006C217D218E219F21CC2059F020E04C2DE2
:1016C00050E0C0FC05C02F5F6A01D594C794F7CFE6
:1016D000C22E04C09695879577956795CA94D2F7E0
:1016E000FF90EF90DF90CF900895CF93DF93EC01C0
:1016F0008EA19FA1009749F128A531E03093BF0347
:101700002093E1031092C0031092E203DC01ED91FB
:10171000FC910190F081E02D099580E00E94E805A0
:1017200041E061E088A50E9448071092720380930F
:1017300071038EA19FA1DC01ED91FC910284F385E0
:10174000E02D0995DF91CF91089580E0FBCFCF93F5
:10175000DF93C62F682F8EE994E00E94750B8C23CF
:1017600090E020E04C2F50E0C0FD05C02F5FEA0163
:10177000D595C795F7CF02C0959587952A95E2F73D
:10178000DF91CF91089560E284EF0E94A70B811151
:1017900036C08091B6048E3209F1843381F523E09E
:1017A0004FEF5FEF6FEF70E086EF0E944C0B4091C0
:1017B000B70428E030E0241B310904C095958795D3
:1017C000779567952A95D2F76093B8047093B9041A
:1017D0008093BA049093BB0481E0089522E04FEF18
:1017E0005FEF60E070E086EF0E944C0B6093BC04FA
:1017F0007093BD048093BE049093BF04EDCF80E04E
:101800000895CF93DF93D82FC62F64EF8EE994E02D
:101810000E94750B5D2F2C2F90E06D2F70E0D0FD96
:1018200005C09F5F75956795D62FF7CF01C0220F32
:101830009A95EAF7482F42274523482764EF8EE917
:1018400094E0DF91CF910C94F30660E284EF0E9464
:10185000A70B81110FC084E38093B6046091B70495
:1018600080E4689FB001112464638FEF0E94010C33
:1018700081E0089580E0089560E284EF0E94A70B64
:10188000811109C08EE28093B6046EE28FE30E945C
:10189000010C81E0089580E008954F925F926F926D
:1018A0007F928F929F92AF92BF92EF92FF921F937F
:1018B000CF93DF93EC017B01142F88A161E091E0CD
:1018C000E916F10409F060E00E942104612F70E044
:1018D00084E0759567958A95E1F7CE010E94CB0962
:1018E0008C8C9D8CAE8CBF8C488C598C6A8C7B8C7C
:1018F0000E94DD0464197509860997096815790540
:101900008A059B05A8F361E08AA10E94210460E09A
:101910008AA10E94210482E0E816F10469F0612F97
:101920006F70CE010E94CB0961E08AA10E94210460
:1019300060E08AA10E94210490E080E0DF91CF91D5
:101940001F91FF90EF90BF90AF909F908F907F90EE
:101950006F905F904F9008958F929F92AF92BF9239
:10196000CF92DF92EF92FF920F931F93CF93DF936B
:10197000FC0121A12F3F09F495C08B01EC01C48C1F
:10198000D58CE68CF78C808C918CA28CB38C0E94C9
:10199000DD04681979098A099B096C157D058E0596
:1019A0009F05A8F360E08BA10E944F0460E08CA12A
:1019B0000E944F0460E08DA10E944F0460E08EA160
:1019C0000E944F0461E00130110509F060E088A138
:1019D0000E94210461E089A10E94210461E08AA1A2
:1019E0000E9421048BA10E94F80310E1019709F0E5
:1019F00010E08CA10E94F803019709F410628DA1F8
:101A00000E94F803019709F410648EA10E94F80364
:101A1000019709F4106860E08AA10E94210461E046
:101A20008AA10E9421048BA10E94F803019709F466
:101A300011608CA10E94F803019709F412608DA136
:101A40000E94F803019709F414608EA10E94F80324
:101A5000019709F4186060E08AA10E94210461E006
:101A60008BA10E944F0461E08CA10E944F0461E0B1
:101A70008DA10E944F0461E08EA10E944F0460E09E
:101A800089A10E942104812F90E0DF91CF911F91C5
:101A90000F91FF90EF90DF90CF90BF90AF909F900D
:101AA0008F9008958DEF9FEFF0CFEF92FF920F93FD
:101AB0001F93CF93DF93C82F7B0170E060E087EC2A
:101AC00094E00E94AC0C8C010F77112797FD00E089
:101AD00088E0C89FB0011124606487EC94E00E9404
:101AE000D6080097E1F4E70188E0E80EF11C69915F
:101AF00087EC94E00E94A608019779F4CE15DF05E3
:101B0000B1F740E0602F87EC94E0DF91CF911F9117
:101B10000F91FF90EF900C9413098FEF9FEFDF91DF
:101B2000CF911F910F91FF90EF900895FC010190CC
:101B30000020E9F73197AF01481B590BBC0187EC36
:101B400094E00C94A2034F925F926F927F92AF92B7
:101B5000BF92CF92DF92EF92FF920F931F93CF939A
:101B6000DF93CDB7DEB729970FB6F894DEBF0FBE6F
:101B7000CDBF2FB7F894409013035090140360909A
:101B80001503709016032FBFC0903C01D0903D010B
:101B9000E0903E01CF82D886E986DC011C96ED916B
:101BA000FC912481358123303105B8F4B12C8B2D83
:101BB00029960FB6F894DEBF0FBECDBFDF91CF914F
:101BC0001F910F91FF90EF90DF90CF90BF90AF905B
:101BD0007F906F905F904F9008956A017B018C0118
:101BE000808191E09093BF038093E1031092C00342
:101BF0001092E20343E050E0BE01695F7F4FCF01E6
:101C00000E94D806882391F2C8010E94DB0A87FF50
:101C100007C06AE070E080E090E00E940205F4CF27
:101C200046E050E0BE016F5F7F4FF80184859585E7
:101C30000E949C0AB82E882309F4B8CF6A817B8160
:101C4000762767277627CB01B0E0A0E09C01AD01A5
:101C500084E0220F331F441F551F8A95D1F7AC80B3
:101C60008A2D90E064E0959587956A95E1F7092EB5
:101C7000000CAA0BBB0BBC01CD01622B732B842B78
:101C8000952B0E94462020E030E048EC52E40E9470
:101C9000242120E030E040E855E30E942421D801CF
:101CA00014966D937D938D939C9317976A2D6F7007
:101CB00070E090E080E0982F872F762F66272D81A7
:101CC000622B982F872F762F66272E81622B0E94FA
:101CD000462020E030E048E453E40E94242120E044
:101CE00030E040E855E30E94242120E030E048E461
:101CF00052E40E94311FF8016083718382839383D1
:101D0000C114D10481F1F601349680E2DF011D9205
:101D10008A95E9F784E290E0A0E0B0E0F6018083E4
:101D20009183A283B383D8011A968D919C91B0E0E0
:101D3000A0E084839583A683B7838DE090E0A0E044
:101D4000B0E080879187A287B387408A518A628AF0
:101D5000738AF80180819181A281B381F601848B1D
:101D6000958BA68BB78BE114F10409F420CFF70112
:101D7000349680E2DF011D928A95E9F784E290E0D3
:101D8000A0E0B0E0F70180839183A283B383D80100
:101D900018968D919C91B0E0A0E084839583A683F2
:101DA000B7838DE090E0A0E0B0E080879187A287C4
:101DB000B387408A518A628A738AF8018481958147
:101DC000A681B781F701848B958BA68BB78BEFCE5D
:101DD000AB0170E060E0FC01858196810E94A30D5B
:101DE00081E0089550E040E0FC01858196810E94E9
:101DF000A30D81E008957F928F929F92AF92BF9240
:101E0000CF92DF92EF92FF920F931F93CF93DF93C6
:101E1000D0914703C1E0C09347030E940E098AE0B6
:101E200090E00E94A90941E060E087EC94E00E9404
:101E300013098BEB91E00E94960DC0933501C12CE4
:101E4000D12C7601C0E00FEF11E085E5A82E83E0EC
:101E5000B82E9FE0992E8824839423E2722E8091DD
:101E60003501882399F11092350180916703909193
:101E70006803A0916903B0916A03C816D906EA06FF
:101E8000FB0640F4C0906703D0906803E0906903BC
:101E9000F0906A03FF92EF92DF92CF921F930F931D
:101EA000BF92AF920E94912340E065E087EC94E0FE
:101EB0000E94130985E593E00E94960D8DB79EB7A9
:101EC00008960FB6F8949EBF0FBE8DBFC13009F4BF
:101ED00047C0F0F1C23009F450C00E94B609843006
:101EE00009F052C01092CD0241E060E087EC94E02E
:101EF0000E94130983EC91E00E94960D1092CB0290
:101F000086E98093CC028091CB02811104C00E94AB
:101F1000B6098430C1F70E940E098AE090E00E9461
:101F2000A909D093470381E080936B031092340199
:101F300080933501DF91CF911F910F91FF90EF902A
:101F4000DF90CF90BF90AF909F908F907F9008953B
:101F50008092CD027092CC021092CB02C1E0BDCF34
:101F60008091CB02882309F4B8CF1092CD029092D1
:101F7000CC021092CB02C2E0B0CF8091CB0288237A
:101F800009F4ABCFC0E0A9CF8AE090E00E94A90994
:101F900066CF0C94DB220C94DB220C94DB220C9495
:101FA000DB220E9464230F931F93CF93DF938C0156
:101FB000EB0188E2FB0111928A95E9F74BE050E0D2
:101FC00062ED71E0CE010E9482231B8681E090E0E9
:101FD000A0E0B0E08C879D87AE87BF87F801838142
:101FE0009481092E000CAA0BBB0B888B998BAA8BB2
:101FF000BB8B8DE090E0A0E0B0E08C8B9D8BAE8B36
:10200000BF8B1CA21DA21EA21FA280E090E0A0E236
:10201000B2EC8C8F9D8FAE8FBF8F80E090E0AAEAEC
:10202000B2E4888F998FAA8FBB8F8AE999E9A9E9D1
:10203000BEE388A399A3AAA3BBA3DF91CF911F916D
:102040000F9108950F931F93CF93DF938C01EB01B2
:1020500088E2FB0111928A95E9F74BE050E06AEDC6
:1020600071E0CE010E9482231B8681E090E0A0E017
:10207000B0E08C879D87AE87BF87F801838194810C
:10208000092E000CAA0BBB0B888B998BAA8BBB8BE0
:102090008CE090E0A0E0B0E08C8B9D8BAE8BBF8B92
:1020A0001CA21DA21EA21FA21C8E1D8E1E8E1F8E84
:1020B00080E090E0A8ECB2E4888F998FAA8FBB8F64
:1020C00080E090E0A0E0B0E488A399A3AAA3BBA31A
:1020D000DF91CF911F910F91089585ED8093BC0002
:1020E0008091BB039091BC03A091BD03B091BE034E
:1020F0000796A11DB11D23E0B695A79597958795E5
:102100002A95D1F72091BC0024FD03C01092B90399
:1021100008954091BB035091BC036091BD03709141
:10212000BE03452B462B472B69F30097A105B1054C
:1021300041F025E32A95F1F700000197A109B109C3
:10214000E1CF8091BA030C94C7050C94E41EFF9272
:102150000F931F93CF93DF93EC01F62E0881198123
:10216000C8010E94E41EF81621F06F2DC8010E94DC
:10217000EC1ECE01DF91CF911F910F91FF9008953A
:102180001F920F920FB60F9211242F933F934F93EC
:102190005F936F937F938F939F93AF93BF93EF93CF
:1021A000FF9383EE93E00E94FD02FF91EF91BF91B8
:1021B000AF919F918F917F916F915F914F913F91DF
:1021C0002F910F900FBE0F901F9018951F920F9296
:1021D0000FB60F9211242F938F939F93EF93FF933A
:1021E000E091F303F091F4038081E091F903F09121
:1021F000FA0382FD1BC090818091FC038F5F8F7377
:102200002091FD03821741F0E091FC03F0E0ED51D5
:10221000FC4F958F8093FC03FF91EF919F918F91DD
:102220002F910F900FBE0F901F9018958081F4CFC3
:102230001F920F920FB60F9211242F933F938F93FB
:102240009F93AF93BF938091130390911403A09138
:102250001503B09116033091120323E0230F2D379D
:1022600058F50196A11DB11D20931203809313030D
:1022700090931403A0931503B09316038091170352
:1022800090911803A0911903B0911A030196A11D12
:10229000B11D8093170390931803A0931903B09373
:1022A0001A03BF91AF919F918F913F912F910F9002
:1022B0000FBE0F901F90189526E8230F0296A11DC0
:1022C000B11DD2CF1F920F920FB60F9211242F93F0
:1022D0003F934F935F936F937F938F939F93AF93AE
:1022E000BF93EF93FF938091B900887F803609F404
:1022F0004AC0F0F5883209F4A7C018F5803109F416
:102300009BC0B8F4882309F4F9C0883009F494C05C
:10231000FF91EF91BF91AF919F918F917F916F91BD
:102320005F914F913F912F910F900FBE0F901F9093
:102330001895883109F488C0803251F78093B7032B
:1023400014C0803409F49DC040F48033B9F388335D
:10235000F9F68093B70385ECB0C0803509F485C0E9
:10236000883509F496C0883499F60E946D10D0CF54
:10237000883909F48CC038F5883729F050F488364C
:1023800011F0803729F683E08093B903109211038E
:1023900057C0883809F47BC0803919F0803809F0BB
:1023A000B7CF80911103803208F071C0E091110322
:1023B00081E08E0F809311038091BB00F0E0EF501D
:1023C000FD4F80833DC0803B39F0E0F4803A09F452
:1023D00079C0883A09F09CCF84E08093B9031092C9
:1023E000F0021092EF02E0916F03F09170030995F3
:1023F0008091EF0281110FC081E08093EF02109273
:10240000CF0209C0803C09F4A6CF883C09F4A3CFD1
:10241000883B09F07DCFE091F00281E08E0F809340
:10242000F002F0E0E153FD4F80818093BB0090917A
:10243000F0028091EF0229C0809194038093BB0049
:1024400085EC8093BC0064CF9091B6038091B50376
:10245000981758F5E091B60381E08E0F8093B6038C
:10246000F0E0EB56FC4F8081E9CFE091B60381E0CC
:102470008E0F8093B6038091BB00F0E0EB56FC4FCB
:1024800080839091B6038091B5039817C8F285E8D0
:10249000D8CFE091B60381E08E0F8093B603809190
:1024A000BB00F0E0EB56FC4F80838091B8038111B4
:1024B0005CCF81E08093930384EA8093BC00109208
:1024C000B90326CF85EC8093BC001092B9038091AC
:1024D0001103803230F4E0911103F0E0EF50FD4F32
:1024E00010826091110370E0E0916D03F0916E0332
:1024F00081EF92E00995109211030ACF1092B70371
:1025000034CF1F920F920FB60F9211242F933F9347
:102510004F935F936F937F938F939F93AF93BF93EB
:10252000EF93FF93CF93DF9300D0CDB7DEB78091C9
:10253000C8029091C902892B49F08091C8029091FC
:10254000C90201979093C9028093C8028091C70283
:102550008F5F8A30B9F08093C7020F900F90DF91A0
:10256000CF91FF91EF91BF91AF919F918F917F910B
:102570006F915F914F913F912F910F900FBE0F90F0
:102580001F9018951092C7028091C6028F5F8093AA
:10259000C602843160F080914503909146034497D0
:1025A00030F484E190E0909346038093450380915A
:1025B000CC02882351F08091CC0281508093CC02D0
:1025C000811103C081E08093CB028091C5028F5FAF
:1025D000843619F08093C502C0CF1092C5021092C4
:1025E0006703109268031092690310926A0390E0E7
:1025F00080E0FC01EE0FFF1FE55EFC4F2081318182
:1026000040916703509168036091690370916A0378
:10261000420F531F611D711D409367035093680360
:102620006093690370936A0301968531910509F7F8
:1026300060916703709168038091690390916A03C8
:1026400023E030E040E050E00E94D6212093670371
:10265000309368034093690350936A038091670342
:1026600090916803A0916903B0916A038034924409
:10267000AF40B10560F08FE392E4AFE0B0E080934B
:10268000670390936803A0936903B0936A03409132
:102690006703509168036091690370916A038091A8
:1026A0004C0390914D03A0914E03B0914F038417BA
:1026B0009507A607B70780F4809167039091680398
:1026C000A0916903B0916A0380934C0390934D03EA
:1026D000A0934E03B0934F0340916703509168035A
:1026E0006091690370916A038091310190E0B0E0DC
:1026F000A0E0481759076A077B0758F181E08093EB
:102700006C0383E190E0FC01EE0FFF1FE55EFC4FE0
:1027100020813181FC01EE0FFF1FE35EFC4F31830E
:102720002083019780F710921C0310921B03809165
:102730004B038F5F8C33C0F480934B0381E0809315
:1027400035018091C4028F5F853069F18093C402A6
:1027500004CF10926C0380914803882391F2109269
:10276000480310926B03CDCF10924B0380914A0324
:102770008F5F8C3318F480934A03E0CF10924A03A2
:10278000809149038F5F843618F480934903D6CF34
:102790001092490310925103109252031092530366
:1027A00010925403CBCF1092C402609134011A826C
:1027B0001982CE0101960E94A71060916B0381E0FF
:1027C00090E09A838983CE0101960E94A7106091C0
:1027D000470382E090E09A838983CE0101960E94AC
:1027E000A7106091330183E090E09A838983CE0142
:1027F00001960E94A7106091320184E090E09A83D4
:102800008983CE0101960E94A7106091310185E075
:1028100090E09A838983CE0101960E94A71060916F
:10282000300186E090E09A838983CE0101960E9470
:10283000A71093CE1F920F920FB60F9211242F93D1
:102840008F939F93AF93BF9380911B0390911C0331
:10285000019649F080911B0390911C03019690937F
:102860001C0380931B038091510390915203A0910C
:102870005303B09154030196A11DB11D80935103E0
:1028800090935203A0935303B09354038837984D09
:10289000A544B64060F087E798EDA5E4B6E08093E4
:1028A000510390935203A0935303B0935403809128
:1028B000450390914603449730F484E190E090936F
:1028C00046038093450380914703811107C080919F
:1028D000C302811103C081E08093C302BF91AF9115
:1028E0009F918F912F910F900FBE0F901F90189571
:1028F0001F920F920FB60F9211248F939F93AF9355
:10290000BF938091C2028130D1F160F18230F1F148
:10291000833009F443C09091CD028091BF02992386
:1029200009F4ACC0813009F45CC008F457C08230AF
:1029300009F46CC0833009F487C08091C3028823F6
:1029400009F4A3C0419A809133018093B60210929A
:10295000C302BF91AF919F918F910F900FBE0F90C7
:102960001F901895809134018230A9F2809145031F
:1029700090914603892B79F281E08093C2025B9AA1
:102980008091C2028F5F8093C202C5CF5B9883E6BD
:1029900090E09093C1028093C002F2CF8091C00278
:1029A0009091C10201979093C1028093C002892B3C
:1029B00009F0B1CF1092C602809145039091460371
:1029C000892B49F08091450390914603019790939C
:1029D0004603809345031092C2029DCF81E080930D
:1029E000BF02419A8091BD029091BE02B0E0A0E08A
:1029F0008093B9029093BA02A093BB02B093BC0239
:102A00008091BF028F5F8093BF0297CF8091B90200
:102A10009091BA02A091BB02B091BC020197A109AA
:102A2000B1098093B9029093BA02A093BB02B0930C
:102A3000BC02892B8A2B8B2B09F07FCF4198809188
:102A4000B7029091B802D2CF8091B9029091BA02A8
:102A5000A091BB02B091BC020197A109B10980937A
:102A6000B9029093BA02A093BB02B093BC02892B27
:102A70008A2B8B2B09F061CF81E0C5CF882309F425
:102A80005CCF41981092BF0258CF8091B602882344
:102A900009F45FCF81508093B60281115ACF4198DB
:102AA00058CF0F931F93CF93DF93E3EEF3E013829E
:102AB000128288EE93E0A0E0B0E084839583A68341
:102AC000B7832FE531E03183208325EC30E0358773
:102AD000248724EC30E03787268720EC30E0318BE8
:102AE000208B21EC30E0338B228B22EC30E0358BD5
:102AF000248B26EC30E0378B268B118E128E138EB2
:102B0000148E00E814E0E8011B821A828C839D83F6
:102B1000AE83BF8381E791E099838883C7ECD4E0DB
:102B20001B821A8283E991E0998388831F82188629
:102B300080ED97E0A0E0B0E0888B998BAA8BBB8BEF
:102B400086E290E0A0E0B0E08C8B9D8BAE8BBF8BDB
:102B50001C861D861E861F861B860E94DD04688FCC
:102B6000798F8A8F9B8F1C8E1D8E1E8E1F8E89EAF9
:102B700091E09983888388E088A389E08AA38FEF16
:102B800089A384E08BA385E08CA386E08DA387E0F6
:102B90008EA38AE08FA318A6EEE9F4E0108E118EC2
:102BA000128E138E148E158E168E178E10A211A2F1
:102BB00012A213A214A215A2A0EAB4E086E1ED01CC
:102BC00019928A95E9F717A306A387E780A783E8F8
:102BD00091E091838083ECE8F4E0158614861786F3
:102BE0001686118A108ADF91CF911F910F91089557
:102BF000CF93DF93CDB7DEB7C856D1090FB6F8949F
:102C0000DEBF0FBECDBF789484B5826084BD84B52D
:102C1000816084BD85B5826085BD85B5816085BDD7
:102C200080916E00816080936E001092810080918F
:102C30008100826080938100809181008160809317
:102C40008100809180008160809380008091B1003C
:102C500084608093B1008091B00081608093B00067
:102C600080917A00846080937A0080917A008260FB
:102C700080937A0080917A00816080937A008091BD
:102C80007A00806880937A001092C100259A2D986E
:102C9000539A5B98399A419852985A9A0E9495098A
:102CA00016BC12E014BD83E085BD8AEF87BD80911C
:102CB0006E00826080936E001092B2001093B0009C
:102CC0001093B10084E18093B30080917000826022
:102CD0008093700090E080E00E94A5108093340102
:102CE000833010F01093340181E090E00E94A51031
:102CF00080936B0382E090E00E94A51080934703CD
:102D000083E090E00E94A5108093330181508530CC
:102D100018F085E08093330184E090E00E94A510D4
:102D2000809332018150853018F085E08093320124
:102D300085E090E00E94A510809331018852833D88
:102D400018F082E38093310186E090E00E94A510A4
:102D500080933001863018F084E0809330018091B8
:102D6000D30481110CC08091D404811108C08091DA
:102D7000D504811104C08091D604882321F080916C
:102D8000CE048F7E59F01092D30480E48093D40453
:102D900080E18093D50480E58093D60482E080931F
:102DA000CF0480E18093CE0464E670E080E090E0A0
:102DB0000E9402051092CB0487EC94E00E94350A31
:102DC000892B09F059C08091CF04823028F080917E
:102DD000CB0488608093CB0440E362E070E087EC32
:102DE00094E00E944D0C65E070E080E090E00E946D
:102DF000020540E362E070E087EC94E00E944D0C35
:102E000061E070E080E090E00E94020540E362E053
:102E100070E087EC94E00E944D0C61E070E080E08F
:102E200090E00E9402058091CB0484FD07C040E23F
:102E300062E070E087EC94E00E944D0C6091CB045E
:102E4000606287EC94E00E94D60884E08093CC0412
:102E50006CE087EC94E00E94D6080E940E0982E0A4
:102E60008093CD0466E087EC94E00E94D6086FEF73
:102E700087EC94E00E94EF090E94260A40E060E09F
:102E800087EC94E00E94130982EE91E00E94960D77
:102E900041E060E087EC94E00E94130981EF91E04B
:102EA0000E94960D0E94B0056FEF80ED0E94A70B67
:102EB000853509F0ECC022E04FEF5FEF60E070E095
:102EC0008AEA0E944C0B2D966CAF7DAF8EAF9FAF00
:102ED0002D9722E04FEF5FEF60E070E08CEA0E94F8
:102EE0004C0B61966CAF7DAF8EAF9FAF619722E0C8
:102EF0004FEF5FEF60E070E08EEA0E944C0B65964A
:102F00006CAF7DAF8EAF9FAF659722E04FEF5FEF65
:102F100060E070E080EB0E944C0B69966CAF7DAF77
:102F20008EAF9FAF699722E04FEF5FEF60E070E0F8
:102F300082EB0E944C0B6D966CAF7DAF8EAF9FAF56
:102F40006D9722E04FEF5FEF60E070E084EB0E944E
:102F50004C0BA1966CAF7DAF8EAF9FAFA19722E0D7
:102F60004FEF5FEF60E070E086EB0E944C0BA596A0
:102F70006CAF7DAF8EAF9FAFA59722E04FEF5FEFB5
:102F800060E070E088EB0E944C0B2B0122E04FEFD9
:102F90005FEF60E070E08AEB0E944C0BA9966CAF8B
:102FA0007DAF8EAF9FAFA99722E04FEF5FEF60E05C
:102FB00070E08CEB0E944C0B6B0122E04FEF5FEF57
:102FC00060E070E08EEB0E944C0B2B962EAD3FAD77
:102FD0002B973093A1042093A0042F96EEADFFAD64
:102FE0002F97F093A304E093A20463962EAD3FAD18
:102FF00063973093A5042093A4046796EEADFFADCC
:103000006797F093A704E093A6046B962EAD3FADAF
:103010006B973093A9042093A8046F96EEADFFAD93
:103020006F97F093AB04E093AA04A3962EAD3FAD47
:10303000A3973093AD042093AC045092AF04409218
:10304000AE04A796EEADFFADA797F093B104E09361
:10305000B004D092B304C092B2047093B5046093EC
:10306000B4048091500381608093500383E0809387
:10307000B7040E943C0C0E94250C8AE090E00E945C
:10308000A9090E94C30B8823C1F30E94620264E174
:1030900070E080E090E00E94020580919804909199
:1030A0009904009711F00E94DB2286E090E00E94D4
:1030B0003F228C0188E3F801808380E894E09283CA
:1030C0008183138280E290E0958384831093990436
:1030D000009398040E94B005FF24F394F801F38252
:1030E000C8010E942307882309F488C08AEB8983DA
:1030F0008091980490919904FC0124813581232BBF
:1031000009F47CC02081F092BF032093E103109268
:10311000C0031092E20341E050E0BE016F5F7F4FB9
:103120000E94D806882309F469C064E170E080E059
:1031300090E00E94020581EE898388E08A831B82E9
:103140008091980490919904FC0124813581233069
:10315000310508F453C02081F092BF032093E103AE
:103160001092C0031092E20343E050E0BE016F5F93
:103170007F4F0E94D806882309F440C08CE894E071
:103180000E94DB0A87FF07C06AE070E080E090E001
:103190000E940205F3CF8CE894E00E94DB0A83FFD3
:1031A0002DC087E090E00E943F22FC0181E591E084
:1031B0009183808380E290E1948383830CE814E020
:1031C00016830583F0939D04E0939C0487E090E0D0
:1031D0000E943F22FC0183E491E09183808381E29D
:1031E00090E19483838316830583F0939B04E0939B
:1031F0009A0480915003826080935003809134013F
:10320000823041F088EE93E090934603809345032B
:103210000E94A9090E940E098AE090E00E94A90973
:1032200068E271E080E00E94550D60E271E081E0AB
:103230000E94550D68E171E082E00E94550D60E149
:1032400071E083E00E94550D68E071E084E00E9427
:10325000550D60E071E085E00E94550D83E080939C
:10326000690081E08DBB30E3432E3AE2532E612C9E
:10327000712C40E8E42E42E0F42E5EE6C52E52E0CA
:10328000D52E80916C03882331F080916B038111DE
:1032900002C00E94FB0E80913501882309F45EC0B4
:1032A0001092350180913401813009F491C008F405
:1032B00073C0823009F4A3C040E060E087EC94E082
:1032C0000E94130985E593E00E94960D80913401D8
:1032D000813009F4FFC008F4E1C0823009F411C163
:1032E0008091340141E0823009F494C168E087ECB8
:1032F00094E00E94130985E593E00E94960D48E052
:1033000050E060E270E085E593E00E9469238091DF
:103310006B03882309F471C180914803882309F461
:103320006AC183E0809356038093550380914703DD
:10333000882309F468C180E280935903809358037D
:1033400041E060E087EC94E00E94130948E050E01F
:1033500065E573E087EC94E00E94A2030E94B60941
:10336000833009F4E8C108F05FC1813009F42CC250
:10337000823009F4CDC18AE090E00E94A90980E082
:1033800090E0892B09F47DCF0E948C03882309F4F7
:1033900078CF0E94000075CF8091670390916803F9
:1033A000A0916903B0916A03BF93AF939F938F93EA
:1033B0008AEF91E09F938F9385E593E09F938F939E
:1033C0000E9491230FB6F894DEBF0FBECDBF74CF1D
:1033D0002091510330915203409153035091540373
:1033E000A5E1B0E00E941722A30192010E94D6211C
:1033F0005F934F933F932F9389E092E0DBCF8091CF
:10340000500380FD07C068E172E085E593E00E940B
:103410007B2352CF0E94250C8823A9F38AE090E0F9
:103420000E94A9090E94C30B8823C1F30E9439019D
:103430004B015C0120E836EE45EC57E40E949E1FEC
:103440000E94DC20905823EC35EF44E051E40E94C8
:10345000242120E030E842E953E40E94242128E6B8
:1034600031E94DEE5CE30E949E1F23EC35EF4CE109
:1034700051E40E949E1F0E9410207F936F9323EFC0
:103480003AEC45EF5BE3C501B4010E9424210E94A0
:1034900010207F936F9389E292E08CCF80914C0350
:1034A00090914D03A0914E03B0914F03BF93AF9302
:1034B0009F938F9388E392E09F938F9385E593E0AA
:1034C0009F938F930E9491230FB6F894DEBF0FBE97
:1034D000CDBF06CF80914B031F928F9380914A03FB
:1034E0001F928F93809149031F928F938FE392E0F5
:1034F0009F938F9385E593E09F938F930E949123F1
:10350000E3CF8091500381FF30C0AE014F5F5F4F2A
:10351000BE016B5D7F4F8CE894E00E94A30D69AD06
:103520007AAD8BAD9CAD05E513E021E045E00E944E
:103530008F1C6EE472E0C8010E9470236D897E8941
:103540008F89988D0DE513E021E046E00E948F1CE5
:1035500062E572E085E593E00E94702364E572E025
:1035600085E593E00E947023BBCE80FD07C066E531
:1035700072E085E593E00E947B23B2CE0E943C0C72
:103580008823A9F38AE090E00E94A9090E94C30B56
:103590008823C1F320E030E048EC52E4C501B401D7
:1035A0000E949E1F0E9410207F936F9381E692E0FD
:1035B0009F938F9385E593E09F938F930E94912330
:1035C0000E9462020DE513E021E046E00E948F1C9C
:1035D00062E572E085E593E00E94702364E572E0A5
:1035E00085E593E00E9470230F900F900F900F904D
:1035F0000F900F9075CE80E295CE1092550381E02A
:103600008093560393CE84E08093580385E08093A3
:10361000590396CE60E087EC94E00E94130985E59B
:1036200093E00E94960D9ACE843009F4B7C085309D
:1036300009F0A1CE0E940E098AE090E00E94A9093B
:1036400081E08093350110E085E5282E83E0382E57
:1036500080916C03882331F080916B03811102C04B
:103660000E94FB0E80913501882309F43FC010921F
:10367000350141E060E087EC94E00E94130962E0CC
:1036800087EC94E00E943A0941E062E087EC94E024
:103690000E941309812F90E001969F938F93E9E692
:1036A000F2E0FF93EF933F922F920E94912385E5E2
:1036B00093E00E94960D0F900F900F900F900F9037
:1036C0000F90113009F499C008F486C0123009F443
:1036D0009BC0133009F4A1C040E060E087EC94E0A7
:1036E0000E94130985E593E00E94960D0E94B60999
:1036F000833009F4D9C008F099C0813009F4ACC016
:10370000823009F4A2C08AE090E00E94A909A0CF0B
:10371000809134018F5F80933401833040F01092A8
:10372000340188EE93E0909346038093450381E053
:103730008093350120CE80913401882389F0813037
:10374000B1F710925103109252031092530310924A
:10375000540310924B0310924A0310924903E7CF8F
:1037600090E080E0FC01EE0FFF1FE55EFC4F118250
:103770001082019685319105A9F710926703109286
:1037800068031092690310926A0310924C0310921E
:103790004D0310924E0310924F03C9CF90916B03CB
:1037A00080916C03882351F0913009F681E090916B
:1037B0004803911180E080934803B9CF81E09111D3
:1037C00080E080936B03B3CF81E090914703911128
:1037D00080E080934703ABCF809133011F928F939A
:1037E000DF92CF923F922F920E9491230F900F90E1
:1037F0000F900F900F900F906FCF809132011F921A
:103800008F93FF92EF92EECF809131011F928F93B1
:1038100082E992E09F938F93E5CF809130011F92D0
:103820008F9323EA32E03F932F93DCCF8430A1F0D3
:10383000853009F068CF1F5F143070F00E940E09C8
:103840008AE090E00E94A90972CF113089F040F01F
:103850001230C1F01330F1F081E08093350153CF85
:10386000809133018530C0F78F5F80933301F4CFAF
:1038700080913201853080F78F5F809332010E9402
:103880009509EACF809131018A3F30F7865F8093B6
:103890003101E2CF80913001853018F48F5F809341
:1038A00030010E94260AD8CF113089F050F0123032
:1038B000A1F0133089F680913001882391F3815073
:1038C000EECF80913301823038F28150CECF80919B
:1038D0003201823008F28150D0CF8091310189329B
:1038E00008F4BACF8A50D3CF80919A0490919B0468
:1038F000009739F0DC01ED91FC910280F381E02D1D
:10390000099580919C0490919D04009739F0DC0109
:10391000ED91FC910280F381E02D09940895EF92DE
:103920000F931F93CF93DF93E80134E047FD34E119
:10393000042E000C550B57FF03C0519541955109BA
:10394000E32E022F242FAE010E94AD1CCE01DF9189
:10395000CF911F910F91EF900895A9E0B0E0E3EBB4
:10396000FCE10C94001F6A01F22EB02E102FFBE335
:10397000AF2EA01608F41BE31F5F012F27E0AE0156
:103980004F5F5F4F0E940C1EBC018981982F997078
:10399000913009F43FC09BE2E1FC04C09E2D917080
:1039A000E0FC3AC05E2D5071E82FE87083FF46C0FE
:1039B00084E0911101C083E0EF2DE81B8F1508F022
:1039C000E0E0D6018E2F20E2552351F1992329F012
:1039D000D6019C93C60101966C0196012D5F3F4F65
:1039E000E2FE24C08EE4D6018C9391E411969C9360
:1039F000119712968C93D9018E2F90E281111BC0E2
:103A0000E20FF32FF11D10828EEF9FEF2996ECE06D
:103A10000C941C1F9DE2C6CF90E2C4CF2D93815021
:103A20008111FCCFCE0ED11CE0E0D0CF8EE6D601C6
:103A30008C9391E6DBCF9D938150E0CF482F44706B
:103A400082FF3DC084E0911101C083E08F1510F426
:103A5000EF2DE81BD6018E2F20E2552309F1992383
:103A600029F0D6019C93C60101966C0196012D5F49
:103A70003F4FE2FE1BC089E4D6018C938EE4119681
:103A80008C93119786E412968C93D9018E2F90E235
:103A9000882309F4B5CF9D938150FACF2D9381509F
:103AA0008111FCCFCE0ED11CE0E0D9CF89E6D60142
:103AB0008C938EE611968C93119786E6E4CF9B014A
:103AC00077FF02C030E020E0A1E0B0E0911102C039
:103AD000B0E0A0E0F9013196AE0FBF1F8B2C912C06
:103AE000BB2009F461C05401EFEFAE1ABE0AAA0D63
:103AF000BB1DFA161B0619F014F04F2D4A1B51116D
:103B000088C0E3FC59C07601A42FB0E2A1114FC0D8
:103B1000C40ED11C992309F45BC040E0D601119674
:103B2000F60190836D01552309F448C0012F060F5B
:103B30009A81582F507184FF03C0913309F40150CA
:103B400010160CF047C0093008F008E0EEE2FE2E37
:103B50005B01A01AB10885019194819491082F3FCF
:103B6000320729F4D601FC92F60131966F016217F3
:103B7000730794F1021713077CF5DB01A21BB30B4B
:103B8000AA24A394B12CAC0EBD1EAA0DBB1D119688
:103B90008C9121503109D601119628153905F4F080
:103BA000F60180836D01DBCFB12CA12CA0CFF701F2
:103BB000B1937F01A150AACF9111B0CFD601942F1C
:103BC00050E302C05D9391509111FCCFC40ED11C03
:103BD00040E0ACCF01E0BACF80E3DBCF62177307E0
:103BE00031F4963388F4953311F4552369F0F601D6
:103BF0008083FD01842F90E2811108C0A40FB11DC4
:103C00001C9290E080E002CF81E3F1CF919381504C
:103C1000F3CF911183CF8ACF283008F027E03327E4
:103C2000DA01990F311D87FD9160009661057105DC
:103C300039F432602E5F3D9330E32A95E1F7089521
:103C40009F3F30F080387105610509F03C5F3C5FB3
:103C50003D93913008F08068911DDF93CF931F93BF
:103C60000F93FF92EF92192F987F9695E92F9695D3
:103C70009695E90FFF27E45EFE4F99273327EE2440
:103C8000FF24A701E70105900894079428F4360F54
:103C9000E71EF81E491F511D660F771F881F991FC9
:103CA0000694A1F70590079428F4E70EF81E491F23
:103CB000561FC11D770F881F991F661F0694A1F715
:103CC0000590079428F4F80E491F561FC71FD11DF1
:103CD000880F991F661F771F0694A1F70590079418
:103CE00020F4490F561FC71FD81F990F661F771F53
:103CF000881F0694A9F784911095177041F0D69506
:103D0000C79557954795F794E7941A95C1F7E2EC54
:103D1000F0E0689415901591359165919591059015
:103D20007FE27395E118F10A430B560BC90BD009DA
:103D3000C0F7E10CF11E431F561FC91FD01D7EF4B2
:103D4000703311F48A95E6CFE894015030F0080FF3
:103D50000AF40027021708F4202F2395022F7A3344
:103D600028F079E37D932A95E9F710C07D932A9591
:103D700089F6069497956795379517951794E118E6
:103D8000F10A430B560BC90BD00998F023957E918D
:103D900073957A3308F070E37C932013B8F77E9123
:103DA00070617D9330F0839571E37D9370E32A9584
:103DB000E1F71124EF90FF900F911F91CF91DF91C8
:103DC000992787FD90950895F999FECF92BD81BD01
:103DD000F89A992780B50895262FF999FECF1FBA32
:103DE00092BD81BD20BD0FB6F894FA9AF99A0FBE24
:103DF000019608952F923F924F925F926F927F9219
:103E00008F929F92AF92BF92CF92DF92EF92FF92EA
:103E10000F931F93CF93DF93CDB7DEB7CA1BDB0B96
:103E20000FB6F894DEBF0FBECDBF09942A8839883B
:103E300048885F846E847D848C849B84AA84B98442
:103E4000C884DF80EE80FD800C811B81AA81B9814E
:103E5000CE0FD11D0FB6F894DEBF0FBECDBFED0162
:103E600008955058BB27AA270E94491F0C949A20F6
:103E70000E948C2038F00E94932020F039F49F3F5C
:103E800019F426F40C9489200EF4E095E7FB0C94C9
:103E90008320E92F0E94AB2058F3BA1762077307FB
:103EA0008407950720F079F4A6F50C94CD200EF444
:103EB000E0950B2EBA2FA02D0B01B90190010C013A
:103EC000CA01A0011124FF27591B99F0593F50F452
:103ED000503E68F11A16F040A22F232F342F4427AA
:103EE000585FF3CF469537952795A795F0405395A2
:103EF000C9F77EF41F16BA0B620B730B840BBAF072
:103F00009150A1F0FF0FBB1F661F771F881FC2F7DC
:103F10000EC0BA0F621F731F841F48F487957795F0
:103F20006795B795F7959E3F08F0B0CF9395880FAA
:103F300008F09927EE0F9795879508950E94B21F74
:103F40000C949A200E94932058F00E948C2040F0FC
:103F500029F45F3F29F00C94832051110C94CE205A
:103F60000C9489200E94AB2068F39923B1F3552368
:103F700091F3951B550BBB27AA276217730784077C
:103F800038F09F5F5F4F220F331F441FAA1FA9F312
:103F900035D00E2E3AF0E0E832D091505040E69500
:103FA000001CCAF72BD0FE2F29D0660F771F881F61
:103FB000BB1F261737074807AB07B0E809F0BB0B54
:103FC000802DBF01FF2793585F4F3AF09E3F510568
:103FD00078F00C9483200C94CE205F3FE4F3983E5D
:103FE000D4F3869577956795B795F7959F5FC9F751
:103FF000880F911D9695879597F90895E1E0660FD2
:10400000771F881FBB1F621773078407BA0720F04A
:10401000621B730B840BBA0BEE1F88F7E0950895B3
:104020000E9417206894B1110C94CE2008950E942C
:10403000B32088F09F5798F0B92F9927B751B0F067
:10404000E1F0660F771F881F991F1AF0BA95C9F71C
:1040500014C0B13091F00E94CD20B1E008950C94CD
:10406000CD20672F782F8827B85F39F0B93FCCF380
:10407000869577956795B395D9F73EF49095809599
:10408000709561957F4F8F4F9F4F0895E89409C0B9
:1040900097FB3EF490958095709561957F4F8F4F7B
:1040A0009F4F9923A9F0F92F96E9BB279395F69591
:1040B000879577956795B795F111F8CFFAF4BB0F0F
:1040C00011F460FF1BC06F5F7F4F8F4F9F4F16C073
:1040D000882311F096E911C0772321F09EE8872FFD
:1040E000762F05C0662371F096E8862F70E060E0B9
:1040F0002AF09A95660F771F881FDAF7880F969532
:10410000879597F9089597F99F6780E870E060E0D8
:1041100008959FEF80EC089500240A941616170660
:1041200018060906089500240A94121613061406A8
:1041300005060895092E0394000C11F4882352F00B
:10414000BB0F40F4BF2B11F460FF04C06F5F7F4FC3
:104150008F4F9F4F089557FD9058440F551F59F0AA
:104160005F3F71F04795880F97FB991F61F09F3F64
:1041700079F087950895121613061406551FF2CF8D
:104180004695F1DF08C0161617061806991FF1CFDD
:1041900086957105610508940895E894BB27662704
:1041A0007727CB0197F9089516F00C9491210C9480
:1041B000892068940C9483200E94B320A8F399234B
:1041C000C1F3AEF3DF93CF931F930F93FF92C92FE9
:1041D000DD2788232AF02197660F771F881FDAF7DB
:1041E00020E030E040E85FEB9FE3883920F0803E3C
:1041F00038F021968F770E94321FE8E6F0E004C085
:104200000E94321FE5E9F0E00E949F218B01BE0170
:10421000EC01FB2E6F5771097595771F880B990B71
:104220000E94482028E132E741E35FE30E94372102
:10423000AF2D9801AE01FF900F911F91CF91DF91AB
:104240000E94491F0C949A200E9437210C949A20B6
:104250000E948C2038F00E94932020F0952311F0CA
:104260000C9483200C94892011240C94CE200E945D
:10427000AB2070F3959FC1F3950F50E0551F629FDF
:10428000F001729FBB27F00DB11D639FAA27F00DAF
:10429000B11DAA1F649F6627B00DA11D661F829FD6
:1042A0002227B00DA11D621F739FB00DA11D621FBB
:1042B000839FA00D611D221F749F3327A00D611DD8
:1042C000231F849F600D211D822F762F6A2F1124BA
:1042D0009F5750409AF0F1F088234AF0EE0FFF1FED
:1042E000BB1F661F771F881F91505040A9F79E3F44
:1042F000510580F00C9483200C94CE205F3FE4F3B2
:10430000983ED4F3869577956795B795F795E79599
:104310009F5FC1F7FE2B880F911D9695879597F9A2
:1043200008959F3F31F0915020F4879577956795D8
:10433000B795880F911D9695879597F90895DF9306
:10434000CF931F930F93FF92EF92DF927B018C012B
:10435000689406C0DA2EEF010E943721FE01E8942E
:10436000A5912591359145915591A6F3EF010E94B4
:10437000491FFE019701A801DA9469F7DF90EF90D9
:10438000FF900F911F91CF91DF910895DB018F93E3
:104390009F930E941722BF91AF91A29F800D911D04
:1043A000A39F900DB29F900D11240895A1E21A2EA3
:1043B000AA1BBB1BFD010DC0AA1FBB1FEE1FFF1FC9
:1043C000A217B307E407F50720F0A21BB30BE40B19
:1043D000F50B661F771F881F991F1A9469F7609560
:1043E0007095809590959B01AC01BD01CF0108951A
:1043F000052E97FB1EF400940E940F2257FD07D054
:104400000E94D62107FC03D04EF40C940F22509545
:104410004095309521953F4F4F4F5F4F08959095B0
:104420008095709561957F4F8F4F9F4F08950E94A3
:104430003022A59F900DB49F900DA49F800D911DDB
:1044400011240895B7FF0C9417220E941722821B93
:10445000930B0895EE0FFF1F0590F491E02D099442
:10446000A29FB001B39FC001A39F700D811D1124B5
:10447000911DB29F700D811D1124911D08950F9300
:104480001F93CF93DF938230910510F482E090E088
:10449000E091F204F091F30430E020E0B0E0A0E01D
:1044A000309799F42115310509F44AC0281B390BBE
:1044B00024303105D8F58A819B816115710589F118
:1044C000FB0193838283FE0111C0408151810281EF
:1044D000138148175907E0F04817590799F41097C6
:1044E00061F012960C93129713961C933296CF019B
:1044F000DF91CF911F910F9108950093F2041093D3
:10450000F304F4CF2115310551F04217530738F069
:10451000A901DB019A01BD01DF01F801C1CFEF0163
:10452000F9CF9093F3048093F204CDCFFE01E20F14
:10453000F31F819391932250310939832883D7CF78
:104540002091F0043091F104232B41F420913801A3
:10455000309139013093F1042093F0042091360119
:10456000309137012115310541F42DB73EB7409107
:104570003A0150913B01241B350BE091F004F0917E
:10458000F104E217F307A0F42E1B3F0B281739079D
:1045900078F0AC014E5F5F4F2417350748F04E0F9F
:1045A0005F1F5093F1044093F004819391939FCF48
:1045B000F0E0E0E09CCFCF93DF930097E9F0FC01BF
:1045C000329713821282A091F204B091F304ED01AC
:1045D00030E020E01097A1F420813181820F931FF9
:1045E0002091F0043091F1042817390709F061C0D7
:1045F000F093F104E093F004DF91CF910895EA0184
:10460000CE17DF07E8F54A815B819E014115510510
:10461000B1F7E901FB83EA8349915991C40FD51F92
:10462000EC17FD0761F4808191810296840F951F3C
:10463000E90199838883828193819B838A83F0E057
:10464000E0E012968D919C9113970097B9F52D910A
:104650003C911197CD010296820F931F2091F00497
:104660003091F1042817390739F6309751F5109237
:10467000F3041092F204B093F104A093F004BCCFC1
:10468000D383C28340815181840F951FC817D907F6
:1046900061F44E5F5F4F88819981480F591F5183A4
:1046A00040838A819B81938382832115310509F0A0
:1046B000B0CFF093F304E093F2049ECFFD01DC0150
:1046C000C0CF13821282D7CF81E090E0F8940C948F
:1046D0003226DC0101C06D9341505040E0F708954F
:1046E000FB01DC010D900020E9F7119701900D927C
:1046F0000020E1F70895FB01DC0101900D920020FC
:10470000E1F70895FB01DC014150504048F0019071
:104710000D920020C9F701C01D9241505040E0F7B2
:104720000895AEE0B0E0E7E9F3E20C94081F0D89CC
:104730001E8986E08C831A8309838FEF9FE79E830F
:104740008D83AE01475E5F4F6F89788DCE010196F4
:104750000E94B4232F813885020F131FF8011082A5
:104760002E96E4E00C94241FABE0B0E0EAEBF3E219
:104770000C94FA1E7C013B018A01FC01178216820F
:10478000838181FFC8C1CE0101965C01F70193814D
:10479000F30193FD859193FF81913F01882309F4F3
:1047A00053C1853239F493FD859193FF81913F0187
:1047B000853229F4B70190E00E94A425E7CF912C1F
:1047C000212C312CFFE1F31538F08B3211F190F4EC
:1047D000803209F1833229F137FC3CC020ED280FEB
:1047E0002A3050F536FE20C08AE0989E200D112414
:1047F000922E06C08D3291F0803371F7689430F8B4
:10480000F30193FD859193FF81913F018111DACFEF
:1048100021C0689431F8689432F8F2CF689433F884
:10482000EFCF689434F8ECCFEAE02E9E200D1124EF
:10483000222E689435F8E4CF8E3229F436FC04C178
:10484000689436F8DDCF8C3619F4689437F8D8CFF1
:104850008836B1F2982F9F7D95549330E0F08336DF
:10486000A1F18337C1F1833509F063C02801F2E07B
:104870004F0E511CF801C080D180692D70E036FCCC
:1048800002C06FEF7FEFC6010E948E254C01689435
:1048900037F882010AC00C5F1F4FFFE3F9838824B9
:1048A0008394912C6501E89437F833FE2DC0522C87
:1048B0008114910471F5552009F468CFB70180E2A5
:1048C00090E00E94A4255A94F6CFF8018081898354
:1048D0000E5F1F4FE4CF2801F2E04F0E511CF8018C
:1048E000C080D180692D70E036FC02C06FEF7FEF91
:1048F000C6010E9499254C018201D5CFB70180E203
:1049000090E00E94A4252A942814190409F0B0F715
:10491000CECFF60137FC859137FE81916F01B7014B
:1049200090E00E94A42551105A94F1E08F1A91084A
:10493000BFCF843619F0893609F077C0F80137FE09
:104940006BC060817181828193810C5F1F4FF32D59
:10495000FF763F2E97FF09C09095809570956195E1
:104960007F4F8F4F9F4F689437F82AE030E0A501C2
:104970000E94D425C82ECA188C2C432C36FE0CC09D
:10498000E89440F8C91440F434FE05C032FC03C07A
:10499000F32DFE7E4F2E892C44FE95C0FE01EC0DBA
:1049A000F11D8081803309F087C0242D297E422E9D
:1049B000842D8870582E43FC95C040FE8FC09C2CDF
:1049C000821418F42C0C922C981844FE91C0B70154
:1049D00080E390E00E94A42542FE09C088E790E0B1
:1049E00041FE02C088E590E0B7010E94A425C914E9
:1049F00008F48AC0CA94D12C9FEFC91AD90ACA0CEC
:104A0000DB1CF60182916F01B70190E00E94A425A2
:104A1000AC14BD04B1F74FCF60817181072E000C3B
:104A2000880B990B0E5F1F4F92CFD32CE894D4F8CC
:104A30002AE030E0853739F1232D297FD22E8F36B9
:104A400001F148F48835A9F0F701868197812B960A
:104A5000E2E10C94161F803749F08837A9F7D4FE9D
:104A600002C06894D2F820E130E00DC06894D4F818
:104A7000F6CF34FE03C0822F8660D82E20E132E0CC
:104A800002C028E030E0F801D7FE0FC060817181DC
:104A9000828193810C5F1F4FA5010E94D425C82EEF
:104AA000CA183D2CE89437F867CF6081718190E097
:104AB00080E00E5F1F4FF0CF42FC02C0839478CF9E
:104AC0008394839475CF842D867809F471CFF6CFC3
:104AD000B70180E290E00E94A42583948214C0F381
:104AE000512C73CF522C5818821408F46ECFF8CF83
:104AF000842D867809F47BCF8BE241FE80E247FC6F
:104B00008DE2B70190E071CFB70180E390E00E94A1
:104B1000A4259A946CCF8FEF9FEF99CFFC0105905D
:104B2000615070400110D8F7809590958E0F9F1FAF
:104B30000895FC016150704001900110D8F78095F4
:104B400090958E0F9F1F08950F931F93CF93DF9320
:104B5000182F092FEB018B8181FD09C01FEF0FEF8B
:104B6000812F902FDF91CF911F910F91089582FF98
:104B700014C02E813F818C819D81281739073CF418
:104B8000E881F981CF0101969983888310838E8112
:104B90009F8101969F838E83E3CFE885F985812FDE
:104BA0000995892BA1F3DACFFA01AA27283051F110
:104BB000203181F1E8946F936E7F6E5F7F4F8F4F4E
:104BC0009F4FAF4FB1E03ED0B4E03CD0670F781FAD
:104BD000891F9A1FA11D680F791F8A1F911DA11D92
:104BE0006A0F711D811D911DA11D20D009F46894CB
:104BF0003F912AE0269F11243019305D3193DEF673
:104C0000CF010895462F4770405D4193B3E00FD028
:104C1000C9F7F6CF462F4F70405D4A3318F0495D13
:104C200031FD4052419302D0A9F7EACFB4E0A695F6
:104C30009795879577956795BA95C9F70097610518
:104C4000710508959B01AC010A2E0694579547956E
:104C500037952795BA95C9F7620F731F841F951F63
:104C6000A01D089511E0CCE0D1E004C0FE010E9437
:104C70002A222196CD30D107C9F7F894FFCF000042
:104C80000E0A0A1B00000001030F0F0301000000C1
:104C9000000000000015001F001F001F000000049E
:104CA000120A0A12040000040E0E0E1F0400043241
:104CB000030302010000F4048000AC330000000094
:104CC000003405CB0F3505E80ED30F00000000348B
:104CD00005C90F3505F20E2210000000001F03A2C7
:104CE00003C0026C03F102CF02E302000000007770
:104CF000084A08610920084308300821080000001C
:104D0000006A05CF0FA003750BF30AF3060000003D
:104D1000003A09A20361099B0A61095E09D10F9853
:104D20000A980A000000003A09A20361099B0A35AB
:104D30000AAC0C4D0CEF09980A5741524E694E4788
:104D400000416C41524D2044695341626C456400FE
:104D500041485478305F540041485478305F4800EF
:104D600047456947455220434F554E7445520053BD
:104D700074415274694E4700524174452025366C87
:104D8000752075522F680044305345202020253669
:104D90006C75207552006230305374203066662086
:104DA00020202020202000253464206D6D486720BD
:104DB000253464206D00202025366C7500253032A6
:104DC000753A253032753A25303275002572480023
:104DD000DF0043006E6F2073656E736F7273002582
:104DE00034642068506100253031750042555A5AAC
:104DF00020564F4C554D4520202025327500414C02
:104E000041524D20564F4C554D45202025327500BE
:104E1000414C41524D204C4556454C202025337580
:104E2000004252494748544E4553532020202025E4
:044E300032750000D7
:107E0000112484B714BE81FFF0D085E080938100F7
:107E100082E08093C00088E18093C10086E0809377
:107E2000C20080E18093C4008EE0C9D0259A86E02C
:107E300020E33CEF91E0309385002093840096BBD3
:107E4000B09BFECF1D9AA8958150A9F7CC24DD24C4
:107E500088248394B5E0AB2EA1E19A2EF3E0BF2EE7
:107E6000A2D0813461F49FD0082FAFD0023811F036
:107E7000013811F484E001C083E08DD089C08234E0
:107E800011F484E103C0853419F485E0A6D080C0E4
:107E9000853579F488D0E82EFF2485D0082F10E0AE
:107EA000102F00270E291F29000F111F8ED06801E7
:107EB0006FC0863521F484E090D080E0DECF843638
:107EC00009F040C070D06FD0082F6DD080E0C81688
:107ED00080E7D80618F4F601B7BEE895C0E0D1E017
:107EE00062D089930C17E1F7F0E0CF16F0E7DF06D8
:107EF00018F0F601B7BEE89568D007B600FCFDCFD4
:107F0000A601A0E0B1E02C9130E011968C91119780
:107F100090E0982F8827822B932B1296FA010C0160
:107F200087BEE89511244E5F5F4FF1E0A038BF0790
:107F300051F7F601A7BEE89507B600FCFDCF97BE46
:107F4000E89526C08437B1F42ED02DD0F82E2BD052
:107F50003CD0F601EF2C8F010F5F1F4F84911BD097
:107F6000EA94F801C1F70894C11CD11CFA94CF0C13
:107F7000D11C0EC0853739F428D08EE10CD085E9AC
:107F80000AD08FE07ACF813511F488E018D01DD067
:107F900080E101D065CF982F8091C00085FFFCCF94
:107FA0009093C60008958091C00087FFFCCF809118
:107FB000C00084FD01C0A8958091C6000895E0E648
:107FC000F0E098E1908380830895EDDF803219F02E
:107FD00088E0F5DFFFCF84E1DECF1F93182FE3DFCA
:107FE0001150E9F7F2DF1F91089580E0E8DFEE27F6
:047FF000FF270994CA
:027FFE00040479
:00000001FF
