:100000000C9421010C9424110C9449010C94490185
:100010000C9449010C9449010C9449010C948211EF
:100020000C9449010C9449010C9449010C94490128
:100030000C9449010C9449010C9449010C94490118
:100040000C94BB0F0C9449010C94890F0C94630F12
:100050000C9449010C9449010C9449010C944901F8
:100060000C9405100C94490107634236B79BD8A73E
:100070001A39685618AEBAAB558C1D3CB7CC5763CD
:10008000BD6DEDFD753EF6177231BF000000803F7B
:1000900008000000BE922449123EABAAAA2ABECD97
:1000A000CCCC4C3E00000080BEABAAAAAA3E000009
:1000B0000000BF000000803F000000000008417801
:1000C000D3BB4387D1133D190E3CC3BD4282AD2B38
:1000D0003E68EC8276BED98FE1A93E4C80EFFFBE30
:1000E00001C4FF7F3F000000000000407A10F35A77
:1000F00000A0724E18090010A5D4E80000E8764868
:10010000170000E40B54020000CA9A3B000000E113
:10011000F505000080969800000040420F000000A6
:10012000A08601000000102700000000E803000086
:1001300000006400000000000A0000000000010050
:10014000000000002C76D888DC674F0823DFC1DF71
:10015000AE59E1B1B796E5E3E453C63AE651997674
:1001600096E8E6C28426EB898C9B62ED407C6FFCAE
:10017000EFBC9C9F40F2BAA56FA5F490055A2AF7F0
:100180005C936B6CF9676DC11BFCE0E40D47FEF5F9
:1001900020E6B500D0ED902E030094357705008061
:1001A000841E080000204E0A000000C80C333333C0
:1001B000330F986E12831141EF8D2114893BE65560
:1001C00016CFFEE6DB18D1844B381BF77C1D901D43
:1001D000A4BBE424203284725E228100C9F124ECA5
:1001E000A1E53D2700000000250028002B000000AD
:1001F0000000230026002900000000080002010082
:1002000000030407000000000000000000000000E0
:10021000240027002A000102040810204080010267
:10022000040810200102040810200404040404043B
:1002300004040202020202020303030303038F13F6
:10024000901B11241FBECFEFD8E0DEBFCDBF12E060
:10025000A0E0B1E0E4E8FDE402C005900D92AE3606
:10026000B107D9F724E0AEE6B2E001C01D92AB3C85
:10027000B207E1F711E0C0E2D1E004C02197FE012E
:100280000E94D423CF31D107C9F70E941A140C94CD
:10029000B5260C9400008CBD9DBD0895FC01538DC6
:1002A000448D252F30E0842F90E0821B930B541750
:1002B00010F0CF96089501970895FC01918D828DDD
:1002C000981761F0A28DAE0FBF2FB11D5D968C9176
:1002D000928D9F5F9F73928F90E008958FEF9FEFB5
:1002E0000895FC01918D828D981731F0828DE80F71
:1002F000F11D858D90E008958FEF9FEF0895FC012B
:10030000918D228D892F90E0805C9F4F821B9109F7
:100310008F7399270895FC01A48DA80FB92FB11DE3
:10032000A35ABF4F2C91848D90E001968F7399272B
:10033000848FA689B7892C93A089B1898C91837009
:1003400080648C93938D848D981306C00288F38902
:10035000E02D80818F7D80830895EF92FF920F932F
:100360001F93CF93DF93EC0181E0888F9B8D8C8D61
:1003700098131AC0E889F989808185FF15C09FB755
:10038000F894EE89FF896083E889F9898081837018
:10039000806480839FBF81E090E0DF91CF911F91C7
:1003A0000F91FF90EF900895F62E0B8D10E00F5FE8
:1003B0001F4F0F731127E02E8C8D8E110CC00FB6BE
:1003C00007FCFACFE889F989808185FFF5CFCE0156
:1003D0000E948B01F1CFEB8DEC0FFD2FF11DE35A45
:1003E000FF4FF0829FB7F8940B8FEA89FB898081D9
:1003F0008062CFCFCF93DF93EC01888D8823B9F053
:10040000AA89BB89E889F9898C9185FD03C080811F
:1004100086FD0DC00FB607FCF7CF8C9185FFF2CF9C
:10042000808185FFEDCFCE010E948B01E9CFDF9166
:10043000CF9108958AEB93E00E947F0121E0892B00
:1004400009F420E0822F089580E090E0892B29F0C4
:100450000E941A0281110C940000089508950895D5
:10046000AF92BF92CF92DF92EF92FF920F931F93C2
:10047000CF93DF936C017B018B01040F151FEB0100
:100480005E01AE18BF08C017D10759F06991D601B7
:10049000ED91FC910190F081E02DC6010995892B29
:1004A00079F7C501DF91CF911F910F91FF90EF90E8
:1004B000DF90CF90BF90AF900895833081F028F403
:1004C000813099F08230A9F008958730A9F0883002
:1004D000C9F08430B1F4809180008F7D03C0809199
:1004E00080008F7780938000089584B58F7784BDD6
:1004F000089584B58F7DFBCF8091B0008F77809376
:10050000B00008958091B0008F7DF9CFCF93DF9335
:10051000282F30E0F901E850FE4F8491F901EA5E9E
:10052000FD4FD491F901E65DFD4FC491CC23A1F0BC
:1005300081110E945D02EC2FF0E0EE0FFF1FE251EF
:10054000FE4FA591B491EC91ED2381E090E009F488
:1005500080E0DF91CF91089580E090E0FACF1F9383
:10056000CF93DF93282F30E0F901E850FE4F8491BC
:10057000F901EA5EFD4FD491F901E65DFD4FC491AA
:10058000CC23A9F0162F81110E945D02EC2FF0E020
:10059000EE0FFF1FEC51FE4FA591B4918FB7F89469
:1005A000EC91111108C0D095DE23DC938FBFDF9151
:1005B000CF911F910895DE2BF8CFEF92FF920F930A
:1005C0001F93CF93DF93909179049F3F71F48EBD79
:1005D00000000DB407FEFDCFCEB58C2FDF91CF917B
:1005E0001F910F91FF90EF900895D82FC0E007E082
:1005F00010E0EE24E394F12CCC0F60E080917904BC
:100600000E94AF02B701002E01C0660F0A94EAF7FC
:100610006D23809177040E94AF0261E0809179049C
:100620000E94AF02809178040E948602892B09F013
:10063000C1600150110900F7D0CFCF93DF9390E054
:10064000FC01EA5EFD4F2491865D9D4FFC01849183
:100650008823D1F090E0880F991FFC01E45FFD4FE3
:10066000A591B491FC01EC51FE4FC591D49161115B
:100670000EC09FB7F8948C91E22FE0958E238C9357
:100680002881E223E8839FBFDF91CF9108958FB740
:10069000F894EC91E22BEC938FBFF6CF1F93CF939E
:1006A000DF93182FEB0161E00E941D03209739F4BE
:1006B00060E0812FDF91CF911F910C94AF02CF3F6B
:1006C000D10511F461E0F5CFE12FF0E0E850FE4FE5
:1006D000E491E33031F140F4E130B1F0E230E1F0A7
:1006E000C038D1057CF7E4CFE73029F1E83059F183
:1006F000E430B1F780918000806280938000D093D5
:100700008B00C0938A0004C084B5806884BDC7BDD7
:10071000DF91CF911F91089584B5806284BDC8BDDB
:10072000F7CF80918000806880938000D09389000B
:10073000C0938800EDCF8091B00080688093B000B6
:10074000C093B300E5CF8091B00080628093B00089
:10075000C093B400DDCF3FB7F8948091EE02909142
:10076000EF02A091F002B091F10226B5A89B05C05E
:100770002F3F19F00196A11DB11D3FBFBA2FA92F20
:10078000982F8827BC01CD01620F711D811D911D1D
:1007900042E0660F771F881F991F4A95D1F7089589
:1007A0008F929F92AF92BF92CF92DF92EF92FF9281
:1007B0004B015C010E94AB036B017C010E94AB0307
:1007C0006C197D098E099F09683E7340810591056A
:1007D000A8F321E0821A9108A108B10888EEC80E9A
:1007E00083E0D81EE11CF11C81149104A104B10422
:1007F00029F7FF90EF90DF90CF90BF90AF909F9040
:100800008F9008952091C602260F3327331F21327F
:100810003105ECF42091B003FC0190E080E024303D
:1008200069F082E00895A091C6022191AC014A5579
:100830005D4FA40FB52FB11D2C930196861798F329
:100840008091C602680F6093C60280E0089581E03F
:1008500008951092B00381E080938F0310928A0371
:1008600061E082E10E94AF0261E083E10E94AF0299
:10087000E9EBF0E080818E7F808380818D7F8083B3
:1008800088E48093B80085E48093BC000895CF93FA
:10089000DF9391E09093A5028823B9F0C091B8004E
:1008A000D091BA008091BC008A7B8093BC0060E04C
:1008B00082E10E94AF0260E083E10E94AF020E94E9
:1008C0002904D093BA00C093B800DF91CF91089566
:1008D000CF92DF92EF92FF920F931F93CF93DF930C
:1008E000D82FC62F613208F098C00E94AB036B016D
:1008F0007C018091B00381116BC081E08093B003D3
:1009000080938F039FEF90938E0310928D039C0F23
:1009100090938C0380938B0380918B03DD0FD82BF6
:10092000D0938B0380918A03813009F078C01092B4
:100930008A030E94AB036B017C0180918B0380933F
:10094000BB008091B2039091B303A091B403B09126
:10095000B503892B8A2B8B2BA1F00E94AB0300914E
:10096000B2031091B3032091B4033091B5036C1915
:100970007D098E099F09061717072807390708F40C
:1009800048C08091BC0083FDD8CF85EC8093BC002B
:100990000E94AB036B017C018091B003813009F4AC
:1009A00040C080918D038C1710F4C0918D03EAE64E
:1009B000F3E0A0E9B3E080E08C1355C08C2FDF9109
:1009C000CF911F910F91FF90EF90DF90CF900895FE
:1009D0008091B2039091B303A091B403B091B50399
:1009E000892B8A2B8B2B09F484CF0E94AB030091B7
:1009F000B2031091B3032091B4033091B5036C1985
:100A00007D098E099F09061717072807390708F07F
:100A100070CF8091B1030E944704C0E0CFCF85EE34
:100A2000B5CF8091B2039091B303A091B403B0917C
:100A3000B503892B8A2B8B2B09F4AECF0E94AB0315
:100A40000091B2031091B3032091B4033091B50328
:100A50006C197D098E099F090617170728073907A2
:100A600008F09ACFD6CF91919D938F5FA5CF08952F
:100A7000E091690380916803E81730F4F0E0E057F3
:100A8000FC4F808190E008958FEF9FEF0895909143
:100A90006903809168032FEF3FEF981748F4E92F1F
:100AA000F0E0E057FC4F208130E09F5F90936903B6
:100AB000C90108958091680390916903891B990B7E
:100AC0000895CF92DF92EF92FF920F931F93CF93EF
:100AD000DF937C01CB018A012091B903222389F0A5
:100AE000EB016B01C40ED51ECC15DD0569F06991D3
:100AF000D701ED91FC910190F081E02DC70109959E
:100B0000F3CF642F0E940204C801DF91CF911F919F
:100B10000F91FF90EF90DF90CF900895CF93DF93E8
:100B20001F92CDB7DEB769832091B9032223F9F074
:100B30002091B603203258F021E030E0FC013383ED
:100B4000228390E080E00F90DF91CF910895809113
:100B5000B703E82FF0E0EB57FD4F998190838F5F4B
:100B60008093B7038093B60381E090E0ECCF61E01F
:100B7000CE0101960E940204F7CFCF92DF92EF924E
:100B8000FF920F931F93CF93DF93D091B60381E031
:100B9000D13208F09CC0C091B8030E94AB036B0136
:100BA0007C018091B00381116CC082E08093B0031E
:100BB00081E080938F038FEF80938E0310928D03DB
:100BC000D0938C03A5E8B2E0EAE6F3E080E0D81326
:100BD0008DC010928B0380918B03CC0FC82BC093D8
:100BE0008B0380918A03813009F084C010928A03BC
:100BF0000E94AB036B017C0180918B038093BB004F
:100C00008091B2039091B303A091B403B091B50366
:100C1000892B8A2B8B2BA1F00E94AB030091B2038E
:100C20001091B3032091B4033091B5036C197D0981
:100C30008E099F09061717072807390708F442C0CD
:100C40008091BC0083FDD8CF85EC8093BC000E94CE
:100C5000AB036B017C018091B003823009F44CC07E
:100C600080918E038F3F09F469C080918E0380329A
:100C700009F466C080918E03803309F463C084E078
:100C800026C08091B2039091B303A091B403B091B8
:100C9000B503892B8A2B8B2B09F483CF0E94AB03DE
:100CA0000091B2031091B3032091B4033091B503C6
:100CB0006C197D098E099F09061717072807390740
:100CC00008F06FCF8091B1030E94470485E0109235
:100CD000B7031092B6031092B903DF91CF911F9121
:100CE0000F91FF90EF90DF90CF9008959D91919399
:100CF0008F5F6DCF85EEA9CF8091B2039091B30342
:100D0000A091B403B091B503892B8A2B8B2B09F4E6
:100D1000A2CF0E94AB030091B2031091B3032091C4
:100D2000B4033091B5036C197D098E099F0906172C
:100D300017072807390708F08ECFC4CF80E0C7CF48
:100D400082E0C5CF83E0C3CF0895CF93DF93D82F40
:100D5000C62F809176048F3F59F58091630490915E
:100D6000640420916D0431E03093B9032093B803FB
:100D70001092B7031092B603DC01ED91FC91019043
:100D8000F081E02D6D2F09958091630490916404AA
:100D9000DC01ED91FC910190F081E02D6C2F099523
:100DA0008091630490916404DF91CF910C94BD0510
:100DB000809179048F3F21F482E591E00E944B01FC
:100DC00060E0809176040E94AF028D2F8F770E94A1
:100DD000DD028C2F0E94DD0261E080917604DF91BC
:100DE000CF910C94AF02CF92DF92EF92FF920F93CC
:100DF0001F93CF93DF93EC01462FE881F9810484A0
:100E0000F585E02D61E070E009958C01CC88DD88E6
:100E1000EE88FF880E94AB03688F798F8A8F9B8F43
:100E2000CC8EDD8EEE8EFF8E81E090E0012B11F0F6
:100E300090E080E0DF91CF911F910F91FF90EF90B4
:100E4000DF90CF9008958F929F92AF92BF92EF92D2
:100E5000FF921F93CF93DF93EC01162FE881F98166
:100E60000484F585E02D462F70E060E009957C0153
:100E700011501230D8F419861A8688889988AA8861
:100E8000BB880E94AB03688F798F8A8F9B8F8C8E73
:100E90009D8EAE8EBF8EC701DF91CF911F91FF90C7
:100EA000EF90BF90AF909F908F9008958C889D8811
:100EB000AE88BF88E6CF61E082EA94E00C94230715
:100EC000DC0118968C911897481710F04FEF480FD7
:100ED0001B969C911B97992389F017969C911797C5
:100EE000691730F0691B4F5F4817D0F340E0F8CF27
:100EF00019966C9319971A964C931A97FD01E40F63
:100F0000F11D8485680F6068CD010C9423070F9351
:100F10001F93CF93DF93EC010E94F3068C018B8526
:100F2000882399F089858F5F89879F81891768F069
:100F300019868A858F5F8A879885891708F01A86AF
:100F40004A8560E0CE010E946007C801DF91CF9121
:100F50001F910F9108958DEF9FEF089590E080E02D
:100F6000089580E480937C0080917A00806480936F
:100F70007A0080917A0086FDFCCF90917800809174
:100F800079008927982789278233910588F0883C42
:100F9000910580F0803921E0920770F0883522E0D9
:100FA000920760F08032934058F484E08F5F089598
:100FB00080E0FCCF81E0FACF82E0F8CF83E0F6CF8B
:100FC00080E00895CF930E94B107C0918102C813B9
:100FD00003C080E0CF91089565E070E080E090E08C
:100FE0000E94D0030E94B107C81799F38093810231
:100FF000F1CF8091320190E090937A028093790250
:101000002091790230917A0282E390E0821B930B67
:10101000909374028093730208950F931F93CF935C
:101020008C01C62FFC0183A161E0C0FF60E00E943B
:10103000AF02F80184A161E0C1FF60E00E94AF024D
:10104000F80185A161E0C2FF60E00E94AF02F801F3
:1010500086A161E0C3FF60E0CF911F910F910C94D6
:10106000AF02FC0187A18F3F81F190A59E3F51F413
:10107000662331F060E00E941D0390E080E0089557
:1010800061E0F9CF833041F02BEF280F223020F0C0
:1010900027EF280F233068F470E0913019F40E9494
:1010A0004E03EBCF2FEF30E0A901461B570BBA01DF
:1010B000F6CF662331F0913031F461E00E94AF0247
:1010C000DCCF9923D1F360E0F9CF8DEF9FEF089546
:1010D000609130018EEC689F602D1124615082EA8E
:1010E00094E00E9431086AE070E080E090E00C94A7
:1010F000D003EF92FF921F93CF93DF93EC0161E057
:1011000088A10E941D0389A18F3F39F061E00E94F0
:101110001D0360E089A10E94AF0261E08AA10E94E4
:101120001D0360E08AA10E94AF0261E08BA10E94D2
:101130001D0361E08CA10E941D0361E08DA10E944E
:101140001D0361E08EA10E941D031FA11F3F61F1DD
:1011500088A5813029F560E0812F0E94AF0260E010
:10116000812F0E941D0361E0812F0E941D0361E019
:10117000812F0E94AF028FE090E00197F1F7812F5D
:101180000E9486027C0160E0812F0E94AF0260E035
:10119000812F0E941D03EA94EF2811F08EEF88A79B
:1011A00061E08FA10E941D0390E080E0DF91CF916C
:1011B0001F91FF90EF9008958DEF9FEF0895089590
:1011C0008F929F92AF92BF92CF92DF92EF92FF9257
:1011D000F82E809176048F3F09F070C080916304EF
:1011E0009091640420916D0431E03093B903209311
:1011F000B8031092B7031092B603DC01ED91FC9195
:101200000190F081E02D6F2D0995809163049091FC
:1012100064040E94BD0563E080916D040E9468042F
:101220001092690380936803809163049091640431
:10123000DC01ED91FC910284F385E02D09954C01D0
:10124000990FAA08BB08BA2CA92C982C8824809145
:10125000630490916404DC01ED91FC910284F385B8
:10126000E02D0995092E000CAA0BBB0B882A992AA0
:10127000AA2ABB2ABA2CA92C982C88248091630412
:1012800090916404DC01ED91FC910284F385E02DE2
:101290000995092E000CAA0BBB0B6C017D01C82817
:1012A000D928EA28FB28C701B601FF90EF90DF900C
:1012B000CF90BF90AF909F908F90089580917904C8
:1012C0008F3F21F482E591E00E944B0160E0809124
:1012D00076040E94AF028F2D0E94DD0280E00E9402
:1012E000DD0290E0B0E0A0E0CC24D82EE92EFA2E6A
:1012F00080E00E94DD02C82AFE2CED2CDC2CCC24E0
:1013000080E00E94DD02C82A61E0809176040E949C
:10131000AF02C9CF8F929F92AF92BF92CF92DF92CE
:10132000EF92FF928AEF0E94E0086115710520E8B4
:101330008207910509F485C080907E0490907F0417
:10134000B12CA12CC72ED82EE92EFF24E7FCFA944D
:10135000C818D908EA08FB0837E09595879577956E
:1013600067953A95D1F7880C991CAA1CBB1C9B0168
:10137000AC01281939094A095B09A0918004B09190
:1013800081040E9480224B015C015BE0B594A7942C
:10139000979487945A95D1F7A7019601C701B60192
:1013A0000E9443229B01AC016CE05595479537950F
:1013B00027956A95D1F7A0918204B09183040E9489
:1013C00080229B01AC017EE0559547953795279586
:1013D0007A95D1F7280D391D4A1D5B1D80917A043D
:1013E00090917B04A0917C04B0917D04280F391F5B
:1013F0004A1F5B1F2093720430937304409374045C
:1014000050937504A5E0B0E00E94752260587F4FAC
:101410008F4F9F4F672F782F892F992787FD9A9598
:101420000E94771F20E030E048EC52E40E94C71E83
:10143000FF90EF90DF90CF90BF90AF909F908F90F4
:10144000089560E070E080EC9FE7F2CF2F923F922A
:101450004F925F926F927F928F929F92AF92BF92C4
:10146000CF92DF92EF92FF920F931F93CF93DF9370
:10147000CDB7DEB768970FB6F894DEBF0FBECDBF0D
:101480000E948A0987EF0E94E0086B877C878D871E
:101490009E87611571058048910509F4BDC1809151
:1014A000720490917304A0917404B09175046C015E
:1014B0007D01FF0CCC08DC2C76019C01AD016C2D6C
:1014C0007C2D8C2D9C2D345F41405109610971099F
:1014D0008109910929833A834B835C836D837E83E1
:1014E000888F9F8B59016A017B018C010E948822A1
:1014F0002F83388749875A876B8B7C8B8D8B9E8B8C
:101500003091870420918604932F990F990B492FCE
:10151000592F692F792F892F0E9488220CE00E9471
:1015200080231901942E852E762E672E582E492E53
:101530003091890420918804932F990F990BAF80E3
:10154000B884C984DA84EB88FC880D891E89492F08
:10155000592F692F792F892F0E94882208E00E9435
:1015600099235101C92CD82CE72CF62C052D142DCC
:101570000E94B62370588F4F9F4F20908404309064
:1015800085045101C12CD12CE12CF12C00E010E09C
:101590000E94882201E20E949923322E232E4F8737
:1015A000588B698B472E582E9A8BA0E00E94C82337
:1015B00009F437C130918F0420918E04932F990F35
:1015C000990BAF80B884C984DA84EB88FC880D89D4
:1015D0001E89492F592F692F792F892F0E94882220
:1015E0002F8338873A014B0189879A8730918D0480
:1015F00020918C04932F990F990BA980BA80CB80EE
:10160000DC80ED80FE80088D1F89492F592F692FBE
:10161000792F892F0E94882201E10E948023AF80C8
:10162000B8846301740109851A850E94B6235901A3
:101630006A017B018983192F4B855C856D857E85C9
:1016400084E075956795579547958A95D1F780E021
:1016500090E0A0E1B0E0841B950BA60BB70B3C011A
:101660004D01990C6608762C43019C01AD01662D55
:10167000762D862D962D0FE10E94802349014B8304
:101680005A83B62FA72FF82FE92F30918B04209182
:101690008A04932F990F990B492F592F692F792F6E
:1016A000892F03E20E94802309810E94B6235901F9
:1016B0006A017B018C0194014B815A816B2F7A2F37
:1016C0008F2F9E2F0E94BF23E5E3AE2EFCE0BF2E9E
:1016D000C12CD12CE12CF12C00E010E00E948822DA
:1016E000A32CB22CCF84D888E988F42C052D1A8934
:1016F0000E94E22228873F8349835A836B837C833D
:101700008D839E830DE00E949923922E832E742E4A
:10171000652E562E472E382E292E30919504209175
:101720009404932F990F990BA92CB82CC72CD62C65
:10173000E52CF42C032D122D492F592F692F792FC9
:10174000892F0E9488220E94882209E10E94992301
:10175000A884BF80C980DA80EB80FC800D811E8167
:101760000E94B62319012A013B014C0130919304D8
:1017700020919204932F990F990B492F592F692F7C
:10178000792F892F0E94882203E10E949923590111
:101790006A017B018C019101A201B301C4010E9485
:1017A000B62308E00E94992359016A017B01E82FC2
:1017B000192F3091910420919004932F990F990B38
:1017C000492F592F692F792F892F04E00E948023F8
:1017D0000E2F0E94B6230E946F1F20E030E040E8E9
:1017E0005BE30E94512068960FB6F894DEBF0FBEEF
:1017F000CDBFDF91CF911F910F91FF90EF90DF90C0
:10180000CF90BF90AF909F908F907F906F905F90A0
:101810004F903F902F90089560E070E080EC9FE73C
:10182000E2CF60E070E0CB01DECFCF93C82F809194
:1018300076048F3FA9F58091630490916404209110
:101840006D0431E03093B9032093B8031092B703CD
:101850001092B603DC01ED91FC910190F081E02D36
:101860006C2F099580916304909164040E94BD05DA
:1018700061E080916D040E94680410926903809376
:1018800068038091630490916404DC01ED91FC9104
:101890000284F385E02D0995C82F8C2FCF910895F0
:1018A000809179048F3F21F482E591E00E944B0101
:1018B00060E0809176040E94AF028C2F0E94DD02CE
:1018C00080E00E94DD02C82F61E0809176040E94D2
:1018D000AF02E3CFCF93DF93C82F809176048F3F81
:1018E00009F046C0809163049091640420916D04D6
:1018F00031E03093B9032093B8031092B7031092EC
:10190000B603DC01ED91FC910190F081E02D6C2F8C
:10191000099580916304909164040E94BD0562E082
:1019200080916D040E94680410926903809368039B
:101930008091630490916404DC01ED91FC91028438
:10194000F385E02D0995C82F80916304909164047C
:10195000DC01ED91FC910284F385E02D099520E0F6
:101960003C2FE901C82BD92BCE01DF91CF910895EF
:10197000809179048F3F21F482E591E00E944B0130
:1019800060E0809176040E94AF028C2F0E94DD02FD
:1019900080E00E94DD02C82F80E00E94DD02DC2F83
:1019A000C82F61E0809176040E94AF02DDCF0E94D3
:1019B0006A0C98278927982708954F925F926F9213
:1019C0007F928F929F92AF92BF92EF92FF921F935E
:1019D000CF93DF93EC017B01142F88A161E091E0AC
:1019E000E916F10409F060E00E94AF02612F70E097
:1019F00084E0759567958A95E1F7CE010E940D0800
:101A00008C8C9D8CAE8CBF8C488C598C6A8C7B8C5A
:101A10000E94AB0364197509860997096815790551
:101A20008A059B05A8F361E08AA10E94AF0260E0ED
:101A30008AA10E94AF0282E0E816F10469F0612FEA
:101A40006F70CE010E940D0861E08AA10E94AF0272
:101A500060E08AA10E94AF0290E080E0DF91CF9128
:101A60001F91FF90EF90BF90AF909F908F907F90CD
:101A70006F905F904F9008958F929F92AF92BF9218
:101A8000CF92DF92EF92FF920F931F93CF93DF934A
:101A9000FC0121A12F3F09F495C08B01EC01C48CFE
:101AA000D58CE68CF78C808C918CA28CB38C0E94A8
:101AB000AB03681979098A099B096C157D058E05A8
:101AC0009F05A8F360E08BA10E941D0360E08CA13C
:101AD0000E941D0360E08DA10E941D0360E08EA1A5
:101AE0000E941D0361E00130110509F060E088A14A
:101AF0000E94AF0261E089A10E94AF0261E08AA169
:101B00000E94AF028BA10E94860210E1019709F0AA
:101B100010E08CA10E948602019709F410628DA149
:101B20000E948602019709F410648EA10E94860229
:101B3000019709F4106860E08AA10E94AF0261E099
:101B40008AA10E94AF028BA10E948602019709F42C
:101B500011608CA10E948602019709F412608DA188
:101B60000E948602019709F414608EA10E948602E9
:101B7000019709F4186060E08AA10E94AF0261E059
:101B80008BA10E941D0361E08CA10E941D0361E0F6
:101B90008DA10E941D0361E08EA10E941D0360E0E3
:101BA00089A10E94AF02812F90E0DF91CF911F9118
:101BB0000F91FF90EF90DF90CF90BF90AF909F90EC
:101BC0008F9008958DEF9FEFF0CFEF92FF920F93DC
:101BD0001F93CF93DF93C82F7B0170E060E082EA10
:101BE00094E00E943C0D8C010F77112797FD00E0D7
:101BF00088E0C89FB0011124606482EA94E00E94EA
:101C000023070097E1F4E70188E0E80EF11C6991F1
:101C100082EA94E00E94F306019779F4CE15DF057D
:101C2000B1F740E0602F82EA94E0DF91CF911F91FD
:101C30000F91FF90EF900C9460078FEF9FEFDF9173
:101C4000CF911F910F91FF90EF900895FC010190AB
:101C50000020E9F73197AF01481B590BBC0182EA1C
:101C600094E00C9430026F927F928F929F92AF9289
:101C7000BF92CF92DF92EF92FF920F931F93CF9379
:101C8000DF93D0912303C1E0C09323030E945B073D
:101C90006AE070E080E090E00E94D00341E060E004
:101CA00082EA94E00E94600787E891E00E94260E95
:101CB000C0933601C12CD12C7601C0E00FEB11E0AE
:101CC00081E1982E92E4A92E93E0B92E2FE0822E86
:101CD0007724739433E2632E809136018823A9F12F
:101CE000109236018091620390916303A091640386
:101CF000B0916503C816D906EA06FB0640F4C09009
:101D00006203D0906303E0906403F0906503FF9258
:101D1000EF92DF92CF921F930F931F929F92BF92E9
:101D2000AF920E94072440E065E082EA94E00E94BE
:101D3000600782E493E00E94260E8DB79EB70A9654
:101D40000FB6F8949EBF0FBE8DBFC13009F44BC0D3
:101D500008F441C0C23009F453C00E94E207843045
:101D600009F055C01092840241E060E082EA94E0FC
:101D70000E9460078FE891E00E94260E1092820276
:101D800086E98093830280918202811104C00E94BF
:101D9000E2078430C1F70E945B076AE070E080E0F0
:101DA00090E00E94D003D093230381E080936603E8
:101DB0001092350180933601DF91CF911F910F91E1
:101DC000FF90EF90DF90CF90BF90AF909F908F905B
:101DD0007F906F90089570928402609283021092B7
:101DE0008202C1E0BACF80918202882309F4B5CF84
:101DF000109284028092830210928202C2E0ADCFE0
:101E000080918202882309F4A8CFC0E0A6CF6AE0BF
:101E100070E080E090E00E94D0035ECF0E94E92352
:101E200085ED8093BC008091B2039091B303A091A3
:101E3000B403B091B5030796A11DB11D23E0B6957B
:101E4000A795979587952A95D1F72091BC0024FDF9
:101E500003C01092B00308954091B2035091B303B0
:101E60006091B4037091B503452B462B472B69F362
:101E70000097A105B10541F025E32A95F1F700008F
:101E80000197A109B109E1CF8091B1030C944704F6
:101E90000C940D1EFF920F931F93CF93DF93EC01D1
:101EA000F62E08811981C8010E940D1EF81621F036
:101EB0006F2DC8010E94151ECE01DF91CF911F9199
:101EC0000F91FF9008951F920F920FB60F92112459
:101ED0002F933F934F935F936F937F938F939F9332
:101EE000AF93BF93EF93FF938AEB93E00E948B0134
:101EF000FF91EF91BF91AF919F918F917F916F91E2
:101F00005F914F913F912F910F900FBE0F901F90B7
:101F100018951F920F920FB60F9211242F938F9343
:101F20009F93EF93FF93E091CA03F091CB038081DD
:101F3000E091D003F091D10382FD1BC0908180918C
:101F4000D3038F5F8F732091D403821741F0E09108
:101F5000D303F0E0E654FC4F958F8093D303FF91B9
:101F6000EF919F918F912F910F900FBE0F901F9027
:101F700018958081F4CF1F920F920FB60F92112403
:101F80002F933F938F939F93AF93BF938091EA02D8
:101F90009091EB02A091EC02B091ED023091E90238
:101FA00023E0230F2D3758F50196A11DB11D209375
:101FB000E9028093EA029093EB02A093EC02B093C3
:101FC000ED028091EE029091EF02A091F002B091AB
:101FD000F1020196A11DB11D8093EE029093EF02D4
:101FE000A093F002B093F102BF91AF919F918F91B6
:101FF0003F912F910F900FBE0F901F90189526E8DC
:10200000230F0296A11DB11DD2CF1F920F920FB6C2
:102010000F9211242F933F934F935F936F937F936E
:102020008F939F93AF93BF93EF93FF938091B900EA
:10203000887F803609F44AC0F0F5883209F4A7C0D9
:1020400018F5803109F49BC0B8F4882309F4F9C06D
:10205000883009F494C0FF91EF91BF91AF919F91A7
:102060008F917F916F915F914F913F912F910F9041
:102070000FBE0F901F901895883109F488C08032E8
:1020800051F780938E0314C0803409F49DC040F44E
:102090008033B9F38833F9F680938E0385ECB0C0B2
:1020A000803509F485C0883509F496C0883499F6DE
:1020B0000E94100FD0CF883909F48CC038F58837CA
:1020C00029F050F4883611F0803729F683E08093A8
:1020D000B0031092E80257C0883809F47BC08039F9
:1020E00019F0803809F0B7CF8091E802803208F00B
:1020F00071C0E091E80281E08E0F8093E802809148
:10210000BB00F0E0E853FD4F80833DC0803B39F0D9
:10211000E0F4803A09F479C0883A09F09CCF84E071
:102120008093B0031092C7021092C602E091F502AC
:10213000F091F60209958091C60281110FC081E0ED
:102140008093C6021092A60209C0803C09F4A6CF73
:10215000883C09F4A3CF883B09F07DCFE091C7020A
:1021600081E08E0F8093C702F0E0EA55FD4F808139
:102170008093BB009091C7028091C60229C08091D4
:102180008B038093BB0085EC8093BC0064CF90915F
:102190008D0380918C03981758F5E0918D0381E0B1
:1021A0008E0F80938D03F0E0E659FC4F8081E9CFDC
:1021B000E0918D0381E08E0F80938D038091BB00B1
:1021C000F0E0E659FC4F808390918D0380918C0361
:1021D0009817C8F285E8D8CFE0918D0381E08E0F83
:1021E00080938D038091BB00F0E0E659FC4F808323
:1021F00080918F0381115CCF81E080938A0384EA10
:102200008093BC001092B00326CF85EC8093BC0075
:102210001092B0038091E802803230F4E091E8023D
:10222000F0E0E853FD4F10826091E80270E0E09129
:10223000F302F091F40288EC92E009951092E80222
:102240000ACF10928E0334CF1F920F920FB60F92C7
:1022500011242F938F939F93AF93BF938091F70295
:102260009091F802019649F08091F7029091F8025E
:1022700001969093F8028093F70280913E0390912B
:102280003F03A0914003B09141030196A11DB11DF0
:1022900080933E0390933F03A0934003B093410388
:1022A0008837984DA544B64060F087E798EDA5E4DF
:1022B000B6E080933E0390933F03A0934003B09316
:1022C00041038091210390912203449730F484E1EB
:1022D00090E0909322038093210380912303811146
:1022E00007C080918002811103C081E08093800249
:1022F000BF91AF919F918F912F910F900FBE0F9033
:102300001F9018951F920F920FB60F9211242F93C2
:102310003F934F935F936F937F938F939F93AF936D
:10232000BF93EF93FF9380917F02813009F44CC0FB
:10233000E8F1823009F44FC0833009F454C0909121
:10234000840280917B02992309F4BDC0813009F495
:102350006DC008F468C0823009F47DC0833009F490
:1023600098C080918002882309F4B4C0419A80917A
:1023700033018093720210928002809171028F5F0C
:10238000843609F4B3C080937102FF91EF91BF913D
:10239000AF919F918F917F916F915F914F913F91FD
:1023A0002F910F900FBE0F901F90189580913501BF
:1023B000823029F28091210390912203892B09F424
:1023C000BECF81E080937F025B9A80917F028F5F16
:1023D00080937F02B4CF5B9883E690E090937E0277
:1023E00080937D02F2CF80917D0290917E020197D1
:1023F00090937E0280937D02892B09F0A0CF1092EA
:102400007C028091210390912203892B49F08091D5
:10241000210390912203019790932203809321033B
:1024200010927F028CCF81E080937B02419A809151
:10243000790290917A02B0E0A0E0809375029093C7
:102440007602A0937702B093780280917B028F5F2F
:1024500080937B0286CF8091750290917602A09145
:102460007702B09178020197A109B10980937502B2
:1024700090937602A0937702B0937802892B8A2BEF
:102480008B2B09F06ECF419880917302909174026A
:10249000D2CF8091750290917602A0917702B0918F
:1024A00078020197A109B109809375029093760291
:1024B000A0937702B0937802892B8A2B8B2B09F09B
:1024C00050CF81E0C5CF882309F44BCF41981092BB
:1024D0007B0247CF80917202882309F44ECF81504E
:1024E00080937202811149CF419847CF10927102B7
:1024F000809170028F5F8A3019F08093700245CF0F
:102500001092700280917C028F5F80937C028431F4
:1025100060F08091210390912203449730F484E18C
:1025200090E090932203809321038091830288237B
:1025300051F080918302815080938302811103C006
:1025400081E08093820280916F028F5F843619F060
:1025500080936F021ACF10926F0210926203109252
:102560006303109264031092650390E080E0FC0125
:10257000EE0FFF1FE950FD4F208131814091620332
:10258000509163036091640370916503420F531F80
:10259000611D711D40936203509363036093640354
:1025A0007093650301968531910509F785E1809364
:1025B0006E02609162037091630380916403909155
:1025C000650323E030E040E050E00E945322209376
:1025D00062033093630340936403509365038091D7
:1025E000620390916303A0916403B091650380340A
:1025F0009244AF40B10560F08FE392E4AFE0B0E009
:102600008093620390936303A0936403B093650384
:10261000409162035091630360916403709165037C
:102620008091300390913103A0913203B091330334
:1026300084179507A607B70780F4809162039091ED
:102640006303A0916403B09165038093300390937A
:102650003103A0933203B09333034091620350914E
:10266000630360916403709165038091310190E090
:10267000B0E0A0E0481759076A077B0730F181E016
:102680008093670383E190E0FC01EE0FFF1FE950A8
:10269000FD4F20813181FC01EE0FFF1FE750FD4F00
:1026A00031832083019780F710926E021092F80216
:1026B0001092F70280912F038F5F8C3388F4809300
:1026C0002F0381E08093360160CE109267038091E2
:1026D00024038823B9F21092240310926603D2CF08
:1026E00010922F0380912E038F5F8C3318F4809308
:1026F0002E03E7CF10922E0380912D038F5F843637
:1027000018F480932D03DDCF10922D0310923E0319
:1027100010923F031092400310924103D2CFCF9307
:10272000DF93EAEBF3E01382128288EE93E0A0E0FD
:10273000B0E084839583A683B7832BE331E03183B4
:10274000208325EC30E03587248724EC30E0378780
:10275000268720EC30E0318B208B21EC30E0338B6E
:10276000228B22EC30E0358B248B26EC30E0378B4B
:10277000268B118E128E138E148EE7E5F4E01382F1
:10278000128284839583A683B7838DE491E091833D
:102790008083C2EAD4E01B821A828FE591E099839C
:1027A00088831F82188680ED97E0A0E0B0E0888BD8
:1027B000998BAA8BBB8B86E290E0A0E0B0E08C8B7B
:1027C0009D8BAE8BBF8B1C861D861E861F861B862F
:1027D0000E94AB03688F798F8A8F9B8F1C8E1D8E12
:1027E0001E8E1F8E85E791E09983888388E088A3F9
:1027F00089E08AA38FEF89A394E09BA395E09CA333
:1028000096E09DA397E09EA39AE09FA318A6E3E617
:10281000F4E0158214821782168211861086838B4B
:10282000848B858B868B178A108E118E128EDF918A
:10283000CF910895CF93DF9300D0CDB7DEB77894D2
:1028400084B5826084BD84B5816084BD85B58260B5
:1028500085BD85B5816085BD80916E008160809366
:102860006E001092810080918100826080938100CF
:1028700080918100816080938100809180008160DF
:10288000809380008091B10084608093B10080913A
:10289000B00081608093B00080917A008460809362
:1028A0007A0080917A00826080937A0080917A0029
:1028B000816080937A0080917A00806880937A00AA
:1028C0001092C100259A2D98539A5B98399A419895
:1028D00052985A9A0E94F9071092B20012E010938F
:1028E000B0001093B10084E18093B3008091700038
:1028F00082608093700090E080E00E94480F809397
:102900003501833010F01093350181E090E00E9492
:10291000480F8093660382E090E00E94480F809306
:10292000230383E090E00E94480F8093330181509D
:10293000853018F085E08093330184E090E00E94B8
:10294000480F809332018150853018F085E08093E4
:10295000320185E090E00E94480F80933101885257
:10296000833D18F082E38093310186E090E00E947D
:10297000480F80933001863018F084E08093300156
:102980008091AE0481110CC08091AF04811108C008
:102990008091B004811104C08091B104882321F09A
:1029A0008091A9048F7E59F01092AE0480E4809348
:1029B000AF0480E18093B00480E58093B10482E0AD
:1029C0008093AA0480E18093A90464E670E080E02B
:1029D00090E00E94D0031092A60482EA94E00E9444
:1029E0007908892B09F059C08091AA04823028F017
:1029F0008091A60488608093A60440E362E070E0C2
:102A000082EA94E00E94DD0C65E070E080E090E0F6
:102A10000E94D00340E362E070E082EA94E00E940A
:102A2000DD0C61E070E080E090E00E94D00340E3C4
:102A300062E070E082EA94E00E94DD0C61E070E008
:102A400080E090E00E94D0038091A60484FD07C03E
:102A500040E262E070E082EA94E00E94DD0C609166
:102A6000A604606282EA94E00E94230784E08093D7
:102A7000A7046CE082EA94E00E9423070E945B07AF
:102A800082E08093A80466E082EA94E00E94230733
:102A90006FEF82EA94E00E9431080E94680840E0EB
:102AA00060E082EA94E00E9460078EE991E00E9473
:102AB000260E41E060E082EA94E00E9460078DEA21
:102AC00091E00E94260E86E780936D0487E594E0EE
:102AD0009093640480936304809176048F3F09F09F
:102AE00002C210926903109268031092B703109209
:102AF000B6030E9429048EE292E09093F60280933E
:102B0000F5028FE292E09093F4028093F30280ED5D
:102B10000E94150C90E0B0E0A0E080936E049093CA
:102B20006F04A0937004B093710480369105A105E1
:102B3000B10509F0F9C066EB80EE0E94A5066AE0D7
:102B400070E080E090E00E94D00383EF0E94150CBB
:102B500080FDF5CF88E80E94D70C90937F04809386
:102B60007E048AE80E94D70C9093810480938004AD
:102B70008CE80E94D70C90938304809382048EE8A3
:102B80000E94D70C909385048093840480E90E946E
:102B9000D70C909387048093860482E90E94D70C17
:102BA000909389048093880484E90E94D70C9093C1
:102BB0008B0480938A0486E90E94D70C90938D043D
:102BC00080938C0488E90E94D70C90938F048093A3
:102BD0008E048AE90E94D70C90939104809390040C
:102BE0008CE90E94D70C90939304809392048EE911
:102BF0000E94D70C909395048093940481EA0E94DC
:102C0000150C8093960481EE0E94D70C9093980443
:102C10008093970483EE0E94150C8093990484EEB0
:102C20000E94150C182F85EE0E94150C90E11902D8
:102C3000900111248F70282B30939B0420939A04C9
:102C400086EE0E94150C182F85EE0E94150C90E15F
:102C500019029001112490E044E0959587954A95DA
:102C6000E1F7822B932B90939D0480939C0487EE35
:102C70000E94150C80939E048DEE8093A004809199
:102C8000A1048F71806A8093A10480919F04807C4D
:102C900080939F0460E084EF0E94A5066091A104E8
:102CA00062956695677082EF0E94A50680919F04E9
:102CB000682F677020E2629FB0011124282F2695AB
:102CC00026952695277094E0299F90011124622B68
:102CD00087FB882780F9682B85EF0E94A5068091E5
:102CE000A004682F677020E2629FB0011124282F92
:102CF000269526952695277094E0299F900111240A
:102D0000622B8295869586958370682B84EF0E944E
:102D1000A50664E670E080E090E00E94D003809118
:102D20003D03816080933D0380913501823031F015
:102D300088EE93E0909322038093210368EE73E082
:102D400080E090E00E94D0030E945B076AE070E0A0
:102D500080E090E00E94D00368E271E080E00E9491
:102D6000E50D60E271E081E00E94E50D68E171E04F
:102D700082E00E94E50D60E171E083E00E94E50DD4
:102D800068E071E084E00E94E50D60E071E085E0BC
:102D90000E94E50D83E08093690081E08DBB8AE4A9
:102DA000282E82E0382E80916703882331F08091AD
:102DB0006603811102C00E94330E80913601882380
:102DC00009F471C01092360180913501813009F407
:102DD000F8C008F4D7C0823009F40CC140E060E0CC
:102DE00082EA94E00E94600782E493E00E94260E4B
:102DF00080913501813009F480C108F45FC18230CF
:102E000009F495C180913D03882341F080913C03F2
:102E10008F5F823009F4B5C280933C038091350105
:102E200041E0823009F4BFC268E082EA94E00E9487
:102E3000600782E493E00E94260E48E050E060E2E2
:102E400070E082E493E00E94EE2380916603882381
:102E500009F49CC280912403882309F495C283E07D
:102E6000809343038093420380912303882309F4D2
:102E700093C280E2809346038093450341E060E083
:102E800082EA94E00E94600748E050E062E473E068
:102E900082EA94E00E94300280913401815009F46A
:102EA0008CC2809334010E94E207833009F45EC330
:102EB00008F0CBC2813009F4A2C3823009F443C3C5
:102EC0006AE070E080E090E00E94D00380E090E053
:102ED000892B09F468CF0E941A02882309F45FCF76
:102EE0000E9400005CCF61E00E94AF0261E080912F
:102EF00076040E941D03809179048F3F09F034C04D
:102F00001FB7F8948091F202811127C0E4E3F2E048
:102F10008491E0E2F2E09491E82FF0E0EE0FFF1FE1
:102F2000E45FFD4FA591B491EC91E92321F461E0B8
:102F30008AE00E94AF0261E08AE00E941D038CB526
:102F400080618CBD8CB580648CBD61E08DE00E9499
:102F50001D0361E08BE00E941D038091F2028F5FF0
:102F60008093F2021FBFD3CD61E00E941D0361E098
:102F7000809177040E941D0360E0809178040E9494
:102F80001D03C5CD8091620390916303A0916403FA
:102F9000B0916503BF93AF939F938F938AEB91E0BA
:102FA0009F938F931F9281E18F9382E493E09F938D
:102FB0008F930E9407240FB6F894DEBF0FBECDBFDB
:102FC0000DCF20913E0330913F034091400350913B
:102FD0004103A5E1B0E00E94752220E33AE240E01F
:102FE00050E00E9453225F934F933F932F9389ECBD
:102FF00091E0D6CF80913D0380FF59C080913C0382
:10300000811134C00E94260A6093380370933903FB
:1030100080933A0390933B030E94260A20E030E01D
:1030200048EC52E40E94C71E20E030E54DE754E42E
:103030000E94C71E21E03EED42E45EE30E94BE20F6
:103040009B01AC0160E070E080E89FE30E945A1EA3
:1030500020E03AE24DE257E40E94512060933403AD
:103060007093350380933603909337036091340354
:103070007091350380913603909137030E94391F78
:103080007F936F9323EF3AEC45EF5BE36091380356
:103090007091390380913A0390913B030E94512033
:1030A0000E94391F7F936F9388ED91E079CF67EE8F
:1030B00071E082E493E00E94002490CE809130037E
:1030C00090913103A0913203B0913303BF93AF933A
:1030D0009F938F9388EF91E09F938F931F9281E14D
:1030E0008F9382E493E09F938F930E9407240FB6FF
:1030F000F894DEBF0FBECDBF85CE80912F031F9207
:103100008F9380912E031F928F9380912D031F9296
:103110008F938FEF91E09F938F931F9281E18F9315
:1031200082E493E09F938F930E940724E0CF8091E5
:103130003D0380FF1FC180913C038111E8C00E94C4
:103140008A098DEF0E946A0C6C01F12CE12CC114EC
:1031500090E8D906E104F10409F407C14090720433
:103160005090730460907404709075042CE2521AAD
:1031700021E0620A71084EE0CC0CDD1CEE1CFF1C45
:103180004A95D1F780919A0490919B04092E000CE6
:10319000AA0BBB0B54E1880F991FAA1FBB1F5A959E
:1031A000D1F7C81AD90AEA0AFB0AA0919C04B09187
:1031B0009D04A30192010E948022C61AD70AE80A40
:1031C000F90A80E4D80EE11CF11C6FE0F594E79455
:1031D000D794C7946A95D1F7A0919904B0E00E9462
:1031E00075224B015C017BE0B594A794979487947A
:1031F0007A95D1F790E8990EA11CB11CA0919E047C
:103200000A2E000CBB0B0E948022EAE09595879560
:1032100077956795EA95D1F7A50194010E9443221D
:103220009B01AC01FAE05595479537952795FA959E
:10323000D1F7405E5F4FA0919704B09198040E942F
:103240008022705E8F4F9F4FAEE095958795779562
:103250006795AA95D1F7A70196010E9443226B01B9
:103260007C01BFE09595879577956795BA95D1F7DD
:103270009B01AC010E9443229B01AC0117E05595D4
:103280004795379527951A95D1F7A0919604B0E008
:103290000E94752204E095958795779567950A9524
:1032A000D1F7C61AD70AE80AF90AF7FE03C0C12CFB
:1032B000D12C7601C701B60161307105810529E184
:1032C000920724F060E070E080E099E13CE09595A1
:1032D0008795779567953A95D1F70E94771F20E0FB
:1032E00030E040E85AE30E94512060932903709334
:1032F0002A0380932B0390932C030E948A096093E6
:1033000025037093260380932703909328036091ED
:10331000290370912A0380912B0390912C0302E4DE
:1033200013E021E045E00E94B81B6EE072E0C801A6
:103330000E94F52360912503709126038091270355
:10334000909128030AE413E021E046E00E94B81BB4
:1033500062E172E082E493E00E94F52364E172E0AE
:1033600082E493E00E94F5234DCD60E070E080ECB4
:103370009FE7BBCF66E172E082E493E00E94002405
:1033800041CD10923C034ACD80E26ACD10924203B7
:1033900081E08093430368CD84E08093450385E01A
:1033A000809346036BCD60E082EA94E00E94600760
:1033B00082E493E00E94260E6FCD85E08093340175
:1033C000609135011A821982CE0101960E944A0F3E
:1033D0006091660381E090E09A838983CE01019633
:1033E0000E944A0F6091230382E090E09A838983D0
:1033F000CE0101960E944A0F6091330183E090E074
:103400009A838983CE0101960E944A0F609132010E
:1034100084E090E09A838983CE0101960E944A0F4E
:103420006091310185E090E09A838983CE01019615
:103430000E944A0F6091300186E090E09A83898370
:10344000CE0101960E944A0F2ECD843009F4C1C0EE
:10345000853009F035CD0E945B076AE070E080E0BE
:1034600090E00E94D00381E08093360110E001E1FA
:1034700082E4C82E83E0D82E9BE5E92E92E0F92E57
:1034800080916703882331F080916603811102C027
:103490000E94330E80913601882309F440C01092B7
:1034A000360141E060E082EA94E00E94600762E059
:1034B00082EA94E00E94870741E062E082EA94E0B9
:1034C0000E946007812F90E001969F938F9381E285
:1034D00092E09F938F931F920F93DF92CF920E945F
:1034E000072482E493E00E94260E0FB6F894DEBF14
:1034F0000FBECDBF113009F49EC008F488C0123051
:1035000009F4A0C0133009F4A4C040E060E082EAEE
:1035100094E00E94600782E493E00E94260E0E94DD
:10352000E207833009F4DCC008F09AC0813009F466
:10353000AFC0823009F4A5C06AE070E080E090E09E
:103540000E94D0039DCF809135018F5F809335011C
:10355000833040F01092350188EE93E0909322037F
:103560008093210381E080933601AACC80913501BC
:10357000882389F08130B1F710923E0310923F0307
:10358000109240031092410310922F0310922E03C9
:1035900010922D03E7CF90E080E0FC01EE0FFF1FBB
:1035A000E950FD4F11821082019685319105A9F7EE
:1035B00010926203109263031092640310926503E9
:1035C00010923003109231031092320310923303A1
:1035D000C9CF9091660380916703882351F09130A1
:1035E00009F681E090912403911180E080932403F7
:1035F000B9CF81E0911180E080936603B3CF81E081
:1036000090912303911180E080932303ABCF8091AD
:1036100033011F928F9386E292E09F938F931F92C4
:103620000F93DF92CF920E9407240FB6F894DEBF6B
:103630000FBECDBF6ACF809132011F928F9388E376
:1036400092E0EBCF809131011F928F933F922F92A6
:10365000E6CF809130011F928F93FF92EF92DFCFE0
:103660008430B1F0853009F067CF1F5F143080F0EF
:103670000E945B076AE070E080E090E00E94D00367
:1036800071CF113089F040F01230C1F01330F1F0F9
:1036900081E08093360150CF809133018530C0F7AF
:1036A0008F5F80933301F4CF80913201853080F7B2
:1036B0008F5F809332010E94F907EACF8091310138
:1036C0008A3F30F7865F80933101E2CF80913001ED
:1036D000853018F48F5F809330010E946808D8CF3E
:1036E000113089F050F01230A1F0133089F680913A
:1036F0003001882391F38150EECF809133018230E5
:1037000038F28150CECF80913201823008F2815060
:10371000D0CF80913101893208F4BACF8A50D3CF0B
:103720008091670490916804009739F0DC01ED9175
:10373000FC910280F381E02D0995809169049091BC
:103740006A04009739F0DC01ED91FC910280F3816D
:10375000E02D099580916B0490916C04009739F0ED
:10376000DC01ED91FC910280F381E02D0994089534
:10377000EF920F931F93CF93DF93E80134E047FD5F
:1037800034E1042E000C550B57FF03C051954195B1
:103790005109E32E022F242FAE010E94D61BCE0129
:1037A000DF91CF911F910F91EF900895A9E0B0E0C4
:1037B000ECEDFBE10C94291E6A01F22EB02E102FC5
:1037C000FBE3AF2EA01608F41BE31F5F012F27E0D9
:1037D000AE014F5F5F4F0E94351DBC018981982F5C
:1037E0009970913009F43FC09BE2E1FC04C09E2D2A
:1037F0009170E0FC3AC05E2D5071E82FE87083FFB5
:1038000046C084E0911101C083E0EF2DE81B8F15C5
:1038100008F0E0E0D6018E2F20E2552351F19923E4
:1038200029F0D6019C93C60101966C0196012D5F8B
:103830003F4FE2FE24C08EE4D6018C9391E41196B2
:103840009C93119712968C93D9018E2F90E281113F
:103850001BC0E20FF32FF11D10828EEF9FEF299610
:10386000ECE00C94451E9DE2C6CF90E2C4CF2D93B0
:1038700081508111FCCFCE0ED11CE0E0D0CF8EE67E
:10388000D6018C9391E6DBCF9D938150E0CF482FFA
:10389000447082FF3DC084E0911101C083E08F1528
:1038A00010F4EF2DE81BD6018E2F20E2552309F1ED
:1038B000992329F0D6019C93C60101966C019601CB
:1038C0002D5F3F4FE2FE1BC089E4D6018C938EE44E
:1038D00011968C93119786E412968C93D9018E2FB2
:1038E00090E2882309F4B5CF9D938150FACF2D93B0
:1038F00081508111FCCFCE0ED11CE0E0D9CF89E6FA
:10390000D6018C938EE611968C93119786E6E4CFC0
:103910009B0177FF02C030E020E0A1E0B0E0911110
:1039200002C0B0E0A0E0F9013196AE0FBF1F8B2CB2
:10393000912CBB2009F461C05401EFEFAE1ABE0A0E
:10394000AA0DBB1DFA161B0619F014F04F2D4A1BC9
:10395000511188C0E3FC59C07601A42FB0E2A11137
:103960004FC0C40ED11C992309F45BC040E0D601BE
:103970001196F60190836D01552309F448C0012F7B
:10398000060F9A81582F507184FF03C0913309F4B8
:10399000015010160CF047C0093008F008E0EEE2C4
:1039A000FE2E5B01A01AB1088501919481949108C3
:1039B0002F3F320729F4D601FC92F60131966F01B0
:1039C0006217730794F1021713077CF5DB01A21B42
:1039D000B30BAA24A394B12CAC0EBD1EAA0DBB1D23
:1039E00011968C9121503109D6011196281539056F
:1039F000F4F0F60180836D01DBCFB12CA12CA0CFB8
:103A0000F701B1937F01A150AACF9111B0CFD60198
:103A1000942F50E302C05D9391509111FCCFC40EDE
:103A2000D11C40E0ACCF01E0BACF80E3DBCF62171E
:103A3000730731F4963388F4953311F4552369F004
:103A4000F6018083FD01842F90E2811108C0A40F4C
:103A5000B11D1C9290E080E002CF81E3F1CF919301
:103A60008150F3CF911183CF8ACF283008F027E01F
:103A70003327DA01990F311D87FD916000966105AA
:103A8000710539F432602E5F3D9330E32A95E1F7FA
:103A900008959F3F30F080387105610509F03C5F63
:103AA0003C5F3D93913008F08068911DDF93CF9388
:103AB0001F930F93FF92EF92192F987F9695E92FFE
:103AC00096959695E90FFF27EC5BFE4F99273327D4
:103AD000EE24FF24A701E70105900894079428F439
:103AE000360FE71EF81E491F511D660F771F881FEE
:103AF000991F0694A1F70590079428F4E70EF81E85
:103B0000491F561FC11D770F881F991F661F0694F6
:103B1000A1F70590079428F4F80E491F561FC71FF8
:103B2000D11D880F991F661F771F0694A1F7059076
:103B3000079420F4490F561FC71FD81F990F661FFF
:103B4000771F881F0694A9F784911095177041F08C
:103B5000D695C79557954795F794E7941A95C1F769
:103B6000EAEEF0E068941590159135916591959184
:103B700005907FE27395E118F10A430B560BC90BD0
:103B8000D009C0F7E10CF11E431F561FC91FD01DFD
:103B90007EF4703311F48A95E6CFE894015030F04A
:103BA000080F0AF40027021708F4202F2395022F8C
:103BB0007A3328F079E37D932A95E9F710C07D9355
:103BC0002A9589F6069497956795379517951794D2
:103BD000E118F10A430B560BC90BD00998F0239555
:103BE0007E9173957A3308F070E37C932013B8F7D5
:103BF0007E9170617D9330F0839571E37D9370E3E6
:103C00002A95E1F71124EF90FF900F911F91CF912A
:103C1000DF91992787FD90950895F999FECF92BD80
:103C200081BDF89A992780B50895262FF999FECF7E
:103C30001FBA92BD81BD20BD0FB6F894FA9AF99AC9
:103C40000FBE019608952F923F924F925F926F920E
:103C50007F928F929F92AF92BF92CF92DF92EF921C
:103C6000FF920F931F93CF93DF93CDB7DEB7CA1B9D
:103C7000DB0B0FB6F894DEBF0FBECDBF09942A88C8
:103C8000398848885F846E847D848C849B84AA8470
:103C9000B984C884DF80EE80FD800C811B81AA81FD
:103CA000B981CE0FD11D0FB6F894DEBF0FBECDBFC8
:103CB000ED0108955058BB27AA270E94721E0C944C
:103CC00017200E94092038F00E94102020F039F4BB
:103CD0009F3F19F426F40C94F61F0EF4E095E7FBD1
:103CE0000C94F01FE92F0E94282058F3BA1762079E
:103CF00073078407950720F079F4A6F50C944A2001
:103D00000EF4E0950B2EBA2FA02D0B01B9019001F6
:103D10000C01CA01A0011124FF27591B99F0593F3A
:103D200050F4503E68F11A16F040A22F232F342F82
:103D30004427585FF3CF469537952795A795F040D0
:103D40005395C9F77EF41F16BA0B620B730B840BE5
:103D5000BAF09150A1F0FF0FBB1F661F771F881F9D
:103D6000C2F70EC0BA0F621F731F841F48F48795F5
:103D700077956795B795F7959E3F08F0B0CF9395E7
:103D8000880F08F09927EE0F9795879508950E9460
:103D9000DB1E0C9417200E94102058F00E9409206E
:103DA00040F029F45F3F29F00C94F01F51110C945E
:103DB0004B200C94F61F0E94282068F39923B1F33E
:103DC000552391F3951B550BBB27AA276217730741
:103DD000840738F09F5F5F4F220F331F441FAA1FD5
:103DE000A9F335D00E2E3AF0E0E832D09150504091
:103DF000E695001CCAF72BD0FE2F29D0660F771F3F
:103E0000881FBB1F261737074807AB07B0E809F024
:103E1000BB0B802DBF01FF2793585F4F3AF09E3FA9
:103E2000510578F00C94F01F0C944B205F3FE4F3A5
:103E3000983ED4F3869577956795B795F7959F5FEC
:103E4000C9F7880F911D9695879597F90895E1E038
:103E5000660F771F881FBB1F621773078407BA0797
:103E600020F0621B730B840BBA0BEE1F88F7E095F2
:103E700008950E94401F6894B1110C944B2008953E
:103E80000E94302088F09F5798F0B92F9927B7519A
:103E9000B0F0E1F0660F771F881F991F1AF0BA95EE
:103EA000C9F714C0B13091F00E944A20B1E00895E2
:103EB0000C944A20672F782F8827B85F39F0B93FD4
:103EC000CCF3869577956795B395D9F73EF49095A1
:103ED0008095709561957F4F8F4F9F4F089597FB09
:103EE00016F40E94F91F0C94B31FE89409C097FBC5
:103EF0003EF490958095709561957F4F8F4F9F4FC1
:103F00009923A9F0F92F96E9BB279395F695879504
:103F100077956795B795F111F8CFFAF4BB0F11F4C7
:103F200060FF1BC06F5F7F4F8F4F9F4F16C088236E
:103F300011F096E911C0772321F09EE8872F762FA4
:103F400005C0662371F096E8862F70E060E02AF0E5
:103F50009A95660F771F881FDAF7880F96958795D1
:103F600097F90895E894F92F96EBFF2381F0121644
:103F700013061406440B9395F695879577956795E8
:103F800057954040FF23B9F71BC099270895882310
:103F900051F49850D2F7872B762F652F542F432F4B
:103FA000322F20E0B1F3121613061406440B8823B7
:103FB0003AF09A95440F551F661F771F881FCAF75E
:103FC00055234AF4440F551F11F460FF04C06F5F7E
:103FD0007F4F8F4F9F4F880F9695879597F908953C
:103FE00097F99F6780E870E060E008959FEF80ECAC
:103FF0000895909580957095609550954095309571
:1040000021953F4F4F4F5F4F6F4F7F4F8F4F9F4FC8
:10401000089500240A94161617061806090608952E
:1040200000240A9412161306140605060895092E94
:104030000394000C11F4882352F0BB0F40F4BF2B03
:1040400011F460FF04C06F5F7F4F8F4F9F4F089543
:1040500057FD9058440F551F59F05F3F71F0479539
:10406000880F97FB991F61F09F3F79F0879508951E
:10407000121613061406551FF2CF4695F1DF08C03D
:10408000161617061806991FF1CF8695710561055A
:1040900008940895E894BB2766277727CB0197F902
:1040A00008950E9464200C9417200E94092038F083
:1040B0000E94102020F0952311F00C94F01F0C9416
:1040C000F61F11240C944B200E94282070F3959F1A
:1040D000C1F3950F50E0551F629FF001729FBB27FF
:1040E000F00DB11D639FAA27F00DB11DAA1F649F9B
:1040F0006627B00DA11D661F829F2227B00DA11D4E
:10410000621F739FB00DA11D621F839FA00D611DD3
:10411000221F749F3327A00D611D231F849F600DF4
:10412000211D822F762F6A2F11249F5750409AF01D
:10413000F1F088234AF0EE0FFF1FBB1F661F771FA9
:10414000881F91505040A9F79E3F510580F00C9474
:10415000F01F0C944B205F3FE4F3983ED4F3869518
:1041600077956795B795F795E7959F5FC1F7FE2B14
:10417000880F911D9695879597F90895FA01EE0F8E
:10418000FF1F309621053105A1F16115710561F41C
:104190008038BFE39B0749F168949038810561F04E
:1041A0008038BFEF9B0741F099234AF5FF3FE105B7
:1041B0003105210519F1E8940894E795D901AA235E
:1041C00029F4AB2FBE2FF85FD0F310C0FF5F70F45F
:1041D000A695E0F7F73950F019F0FF3A38F49F77D9
:1041E0009F930DD00F9007FC9058089546F00C94C3
:1041F000F61F60E070E080E89FE308954FE79F7747
:104200005F934F933F932F930E94B9212F913F913A
:104210004F915F910E9451200C94162129F416F0C1
:104220000C94F01F0C944A200C94F61F0E9430202E
:10423000A8F39638A0F707F80F92E8942BE33AEA30
:1042400048EB5FE70E9467200F920F920F924DB7E5
:104250005EB70F920E940122E8E6F0E00E9448213A
:104260004F915F91EF91FF91E595EE1FFF1F49F090
:10427000FE57E0684427EE0F441FFA95E1F7419599
:10428000550B0E947B210F9007FE0C946F2108951F
:10429000DF93CF931F930F93FF92EF92DF927B01F7
:1042A0008C01689406C0DA2EEF010E946420FE01A2
:1042B000E894A5912591359145915591A6F3EF018B
:1042C0000E94721EFE019701A801DA9469F7DF903F
:1042D000EF90FF900F911F91CF91DF9108959B0177
:1042E000AC0160E070E080E89FE30C94C71E0C9482
:1042F000F01F0C9435220E943020D8F39923C9F383
:10430000940F511DA3F39150504094F059F088231D
:1043100032F0660F771F881F91505040C1F79E3FC3
:1043200051052CF7880F911D9695879597F908955B
:104330005F3FACF0983E9CF0BB27869577956795DC
:10434000B79508F4B1609395C1F7BB0F58F711F416
:1043500060FFE8CF6F5F7F4F8F4F9F4FE3CF0C948D
:104360004B2016F00C9435220C94F61F68940C9494
:10437000F01F0E943020A8F39923C1F3AEF3DF931E
:10438000CF931F930F93FF92C92FDD2788232AF025
:104390002197660F771F881FDAF720E030E040E8AA
:1043A0005FEB9FE3883920F0803E38F021968F77CD
:1043B0000E945B1EE0E9F0E004C00E945B1EEDEB92
:1043C000F0E00E9448218B01BE01EC01FB2E6F57EB
:1043D00071097595771F880B990B0E94771F28E14B
:1043E00032E741E35FE30E946420AF2D9801AE0104
:1043F000FF900F911F91CF91DF910E94721E0C943C
:104400001720FA01DC01AA0FBB1F9B01AC01BF57AB
:1044100028F4222733274427507820C0B75190F43E
:10442000AB2F0024469537952795011CA395D2F311
:10443000002071F0220F331F441FB395DAF30ED022
:104440000C945A1E61307105A0E88A07B94630F411
:104450009B01AC016627772788279078309621F05A
:10446000208331834283538308959F3F31F09150DD
:1044700020F4879577956795B795880F911D969548
:10448000879597F90895DB018F939F930E9475227A
:10449000BF91AF91A29F800D911DA39F900DB29FE0
:1044A000900D11240895A1E21A2EAA1BBB1BFD0139
:1044B0000DC0AA1FBB1FEE1FFF1FA217B307E40703
:1044C000F50720F0A21BB30BE40BF50B661F771F5B
:1044D000881F991F1A9469F760957095809590953B
:1044E0009B01AC01BD01CF0108950E94DA23A59F75
:1044F000900DB49F900DA49F800D911D11240895DF
:10450000B7FF0C9475220E947522821B930B0895AD
:10451000DF93CF931F930F939A9DF02D219FF00D62
:104520008B9DF00D8A9DE02DF10D039FF00D029FF4
:10453000E00DF11D4E9DE00DF11D5E9DF00D4F9DB6
:10454000F00D7F936F93BF92AF925F934F93D5011E
:104550000E94DA238B01AC01D7010E94DA23EB0120
:10456000E80FF91FD6010E94D7222F913F91D60163
:104570000E94DA23C60FD71FE81FF91FAF91BF9122
:104580000E94D7222F913F910E94DA23C60FD71F96
:10459000E81FF91FD6010E94DA23E60FF71F9801E2
:1045A000BE01CF010F911F91CF91DF9108950E941D
:1045B000DA23460F571FC81FD91F08F431960895F4
:1045C000689401C0E894F92FF12B12F00C94142395
:1045D000A0E0B0E0EEEEF2E20C94291E092E059464
:1045E00022F40E947023112392F4F0E80F26FFEFCB
:1045F000E094F09400951095B094C094D094A19458
:10460000BF0ACF0ADF0AEF0AFF0A0F0B1F0B0E9437
:104610001F2307FC0E947023CDB7DEB7ECE00C949B
:10462000451E689401C0E8948F929F92CF93DF93C8
:104630000E941F23DF91CF919F908F90089588242F
:104640009924F401E401B0E49F93AA279A158B04FE
:104650009C04ED05FE05CF05D007A10798F4AD2F0A
:10466000DC2FCF2FFE2FE92D982C892E982F872F06
:10467000762F652F542F432F322F2227B85031F732
:10468000BF9127C01B2EBF91BB27220F331F441F92
:10469000551F661F771F881F991F881C991CEE1FC6
:1046A000FF1FCC1FDD1FAA1FBB1F8A149B04EC0534
:1046B000FD05CE05DF05A007B10748F08A189B0865
:1046C000EC09FD09CE09DF09A00BB10B21601A949A
:1046D000E1F62EF49401AF01BE01CD01000C089566
:1046E0006095709580959095309540955095219561
:1046F0003F4F4F4F5F4F6F4F7F4F8F4F9F4F0895EB
:10470000002E083090F0982F872F762F652F542F8A
:10471000432F322F22270850F4CF220F331F441F7C
:10472000551F661F771F881F991F0A95B2F7002D26
:10473000089597FD1094002E083098F00850232F0C
:10474000342F452F562F672F782F892F912DF4CF97
:1047500015949795879577956795579547953795CC
:1047600027950A95AAF71124002D08952A0D3B1DBF
:104770004C1D5D1D6E1D7F1D801F911F08952A1900
:104780003B094C095D096E097F09800B910B089567
:104790000024A7FD00942A17300540055005600548
:1047A0007005800590050895EE0FFF1F0590F491A8
:1047B000E02D0994A29FB001B39FC001A39F700D8B
:1047C000811D1124911DB29F700D811D1124911D19
:1047D000089581E090E0F8940C94B526DC0101C0C6
:1047E0006D9341505040E0F70895FB01DC010D90BE
:1047F0000020E9F7119701900D920020E1F708954C
:10480000FB01DC0101900D920020E1F70895AEE07C
:10481000B0E0EDE0F4E20C94311E0D891E898F8921
:10482000988D26E02C831A83098397FF02C080E0CD
:1048300090E801979E838D83AE01455E5F4F698D41
:104840007A8DCE0101960E9437244D815E8157FDFD
:104850000AC02F813885421753070CF49A01020FC2
:10486000131FF80110822E96E4E00C944D1EABE06D
:10487000B0E0EDE3F4E20C94231E7C013B018A01DD
:10488000FC0117821682838181FFC8C1CE01019687
:104890005C01F7019381F30193FD859193FF819171
:1048A0003F01882309F453C1853239F493FD859182
:1048B00093FF81913F01853229F4B70190E00E9476
:1048C0002726E7CF912C212C312CFFE1F31538F06E
:1048D0008B3211F190F4803209F1833229F137FCE7
:1048E0003CC020ED280F2A3050F536FE20C08AE06B
:1048F000989E200D1124922E06C08D3291F08033A7
:1049000071F7689430F8F30193FD859193FF8191DD
:104910003F018111DACF21C0689431F8689432F8F0
:10492000F2CF689433F8EFCF689434F8ECCFEAE034
:104930002E9E200D1124222E689435F8E4CF8E325D
:1049400029F436FC04C1689436F8DDCF8C3619F4AE
:10495000689437F8D8CF8836B1F2982F9F7D955458
:104960009330E0F08336A1F18337C1F1833509F04C
:1049700063C02801F2E04F0E511CF801C080D180C5
:10498000692D70E036FC02C06FEF7FEFC6010E9418
:1049900011264C01689437F882010AC00C5F1F4F42
:1049A000FFE3F98388248394912C6501E89437F818
:1049B00033FE2DC0522C8114910471F5552009F459
:1049C00068CFB70180E290E00E9427265A94F6CF84
:1049D000F801808189830E5F1F4FE4CF2801F2E048
:1049E0004F0E511CF801C080D180692D70E036FC5B
:1049F00002C06FEF7FEFC6010E941C264C018201AE
:104A0000D5CFB70180E290E00E9427262A9428148F
:104A1000190409F0B0F7CECFF60137FC859137FEC7
:104A200081916F01B70190E00E94272651105A949E
:104A3000F1E08F1A9108BFCF843619F0893609F05A
:104A400077C0F80137FE6BC06081718182819381EC
:104A50000C5F1F4FF32DFF763F2E97FF09C09095F7
:104A60008095709561957F4F8F4F9F4F689437F871
:104A70002AE030E0A5010E945726C82ECA188C2CC7
:104A8000432C36FE0CC0E89440F8C91440F434FEC0
:104A900005C032FC03C0F32DFE7E4F2E892C44FE50
:104AA00095C0FE01EC0DF11D8081803309F087C0B7
:104AB000242D297E422E842D8870582E43FC95C0CB
:104AC00040FE8FC09C2C821418F42C0C922C981849
:104AD00044FE91C0B70180E390E00E94272642FE89
:104AE00009C088E790E041FE02C088E590E0B70188
:104AF0000E942726C91408F48AC0CA94D12C9FEFBB
:104B0000C91AD90ACA0CDB1CF60182916F01B701E0
:104B100090E00E942726AC14BD04B1F74FCF60810E
:104B20007181072E000C880B990B0E5F1F4F92CFDF
:104B3000D32CE894D4F82AE030E0853739F1232DDE
:104B4000297FD22E8F3601F148F48835A9F0F7017C
:104B5000868197812B96E2E10C943F1E803749F0C5
:104B60008837A9F7D4FE02C06894D2F820E130E07B
:104B70000DC06894D4F8F6CF34FE03C0822F86604F
:104B8000D82E20E132E002C028E030E0F801D7FE64
:104B90000FC060817181828193810C5F1F4FA501DD
:104BA0000E945726C82ECA183D2CE89437F867CFC4
:104BB0006081718190E080E00E5F1F4FF0CF42FC7A
:104BC00002C0839478CF8394839475CF842D8678A4
:104BD00009F471CFF6CFB70180E290E00E9427265A
:104BE00083948214C0F3512C73CF522C5818821422
:104BF00008F46ECFF8CF842D867809F47BCF8BE252
:104C000041FE80E247FC8DE2B70190E071CFB70131
:104C100080E390E00E9427269A946CCF8FEF9FEF5D
:104C200099CFFC010590615070400110D8F7809534
:104C300090958E0F9F1F0895FC0161507040019068
:104C40000110D8F7809590958E0F9F1F08950F93B0
:104C50001F93CF93DF93182F092FEB018B8181FDD9
:104C600009C01FEF0FEF812F902FDF91CF911F9180
:104C70000F91089582FF14C02E813F818C819D8108
:104C8000281739073CF4E881F981CF01019699830F
:104C9000888310838E819F8101969F838E83E3CFCB
:104CA000E885F985812F0995892BA1F3DACFFA01DF
:104CB000AA27283051F1203181F1E8946F936E7F5B
:104CC0006E5F7F4F8F4F9F4FAF4FB1E03ED0B4E04C
:104CD0003CD0670F781F891F9A1FA11D680F791F8D
:104CE0008A1F911DA11D6A0F711D811D911DA11D9E
:104CF00020D009F468943F912AE0269F11243019AE
:104D0000305D3193DEF6CF010895462F4770405D48
:104D10004193B3E00FD0C9F7F6CF462F4F70405DF7
:104D20004A3318F0495D31FD4052419302D0A9F752
:104D3000EACFB4E0A6959795879577956795BA954C
:104D4000C9F700976105710508959B01AC010A2E12
:104D500006945795479537952795BA95C9F7620FE9
:104D6000731F841F951FA01D089511E0C0E2D1E0BC
:104D700004C0FE010E94D4232196C132D107C9F795
:044D8000F894FFCFD5
:104D840000000E0A0A1B00000001030F0F030100BC
:104D94000000000000000015001F001F001F00009D
:104DA4000004120A0A12040000040E0E0E1F04006E
:104DB4000432030305020100000000AD0130024E7D
:104DC40001FA017F015D017101000000008E05619F
:104DD40005AE0737055A054705380500000000876A
:104DE400073002AE07DF08AE07AB070E0FDC08DCA6
:104DF400080000000087073002AE07DF0879083C8E
:104E04000DDD0C3108DC085741524E694E47004114
:104E14006C41524D2044695341626C4564004745DE
:104E24006947455220434F554E74455200322E3344
:104E3400205374415274694E4700524174452025F1
:104E4400366C752075522F6800443053452020205D
:104E540025366C7520755200253464206D6D4867C5
:104E640020253464206D006230305374203066662F
:104E74002020202020202000202025366C750025AD
:104E84003032753A253032753A2530327500257244
:104E94004800DF0043006E6F2073656E736F72739A
:104EA40000253031750042555A5A20564F4C554D05
:104EB4004520202025327500414C41524D20564F4B
:104EC4004C554D45202025327500414C41524D2012
:104ED4004C4556454C2020253375004252494748DD
:0E4EE400544E455353202020202532750000E7
:00000001FF
