:100000000C9462000C94C6070C948A000C948A002D
:100010000C948A000C948A000C948A000C94240896
:100020000C948A000C948A000C948A000C948A0028
:100030000C948A000C948A000C9484060C948A0018
:100040000C943A060C948A000C948A000C948A0052
:100050000C948A000C948A000C948A000C948A00F8
:100060000C948A000C948A000000000024002700F1
:100070002A0000000000250028002B0000000000DE
:1000800023002600290004040404040404040202DA
:100090000202020203030303030301020408102007
:1000A0004080010204081020010204081020000012
:1000B0000008000201000003040700000000000027
:1000C0000000CE0C11241FBECFEFD8E0DEBFCDBFA5
:1000D00012E0A0E0B1E0E2E7F0E202C005900D928C
:1000E000AA32B107D9F722E0AAE2B2E001C01D921C
:1000F000A53CB207E1F710E0C2E6D0E004C02197CA
:10010000FE010E943E0DC136D107C9F70E94FD08CD
:100110000C9437100C940000AF92BF92CF92DF92F4
:10012000EF92FF920F931F93CF93DF936C017B01AC
:100130008B01040F151FEB015E01AE18BF08C0173D
:10014000D10759F06991D601ED91FC910190F081B0
:10015000E02DC6010995892B79F7C501DF91CF9173
:100160001F910F91FF90EF90DF90CF90BF90AF90D5
:100170000895833081F028F4813099F08230A9F01D
:1001800008958730A9F08830C9F08430B1F48091A7
:1001900080008F7D03C0809180008F7780938000E6
:1001A000089584B58F7784BD089584B58F7DFBCF86
:1001B0008091B0008F778093B00008958091B00057
:1001C0008F7DF9CFCF93DF93282F30E0F901E255EF
:1001D000FF4F8491F901E656FF4FD491F901EA5798
:1001E000FF4FC491CC23A1F081110E94B900EC2FE4
:1001F000F0E0EE0FFF1FE458FF4FA591B491EC9192
:10020000ED2381E090E009F480E0DF91CF91089543
:1002100080E090E0FACF1F93CF93DF93282F30E058
:10022000F901E255FF4F8491F901E656FF4FD49151
:10023000F901EA57FF4FC491CC23A9F0162F811181
:100240000E94B900EC2FF0E0EE0FFF1FEE58FF4FB9
:10025000A591B4918FB7F894EC91111108C0D09585
:10026000DE23DC938FBFDF91CF911F910895DE2BAA
:10027000F8CFCF93DF9390E0FC01E656FF4F249137
:100280008A579F4FFC0184918823D1F090E0880F1A
:10029000991FFC01E859FF4FA591B491FC01EE585C
:1002A000FF4FC591D49161110EC09FB7F8948C9106
:1002B000E22FE0958E238C932881E223E8839FBF71
:1002C000DF91CF9108958FB7F894EC91E22BEC93E6
:1002D0008FBFF6CF1F93CF93DF93182FEB0161E011
:1002E0000E943901209739F460E0812FDF91CF918E
:1002F0001F910C940B01CF3FD10511F461E0F5CFB4
:10030000E12FF0E0E255FF4FE491E33031F140F4AA
:10031000E130B1F0E230E1F0C038D1057CF7E4CF54
:10032000E73029F1E83059F1E430B1F780918000ED
:10033000806280938000D0938B00C0938A0004C0B9
:1003400084B5806884BDC7BDDF91CF911F910895AA
:1003500084B5806284BDC8BDF7CF8091800080687D
:1003600080938000D0938900C0938800EDCF809166
:10037000B00080688093B000C093B300E5CF809157
:10038000B00080628093B000C093B400DDCF3FB76F
:10039000F8948091460290914702A0914802B09152
:1003A000490226B5A89B05C02F3F19F00196A11D53
:1003B000B11D3FBFBA2FA92F982F8827BC01CD01AF
:1003C000620F711D811D911D42E0660F771F881F0E
:1003D000991F4A95D1F708958F929F92AF92BF923D
:1003E000CF92DF92EF92FF924B015C010E94C70116
:1003F0006B017C010E94C7016C197D098E099F0960
:10040000683E734081059105A8F321E0821A9108A6
:10041000A108B10888EEC80E83E0D81EE11CF11CCB
:1004200081149104A104B10429F7FF90EF90DF90AB
:10043000CF90BF90AF909F908F900895CF92DF9212
:10044000EF92FF920F931F93CF93DF93EC01462F10
:10045000E881F9810484F585E02D61E070E009957B
:100460008C01CC88DD88EE88FF880E94C701688FE8
:10047000798F8A8F9B8FCC8EDD8EEE8EFF8E81E002
:1004800090E0012B11F090E080E0DF91CF911F917F
:100490000F91FF90EF90DF90CF9008958F929F92F1
:1004A000AF92BF92EF92FF921F93CF93DF93EC0135
:1004B000162FE881F9810484F585E02D462F70E040
:1004C00060E009957C0111501230D8F419861A8623
:1004D00088889988AA88BB880E94C701688F798F0D
:1004E0008A8F9B8F8C8E9D8EAE8EBF8EC701DF91C3
:1004F000CF911F91FF90EF90BF90AF909F908F9002
:1005000008958C889D88AE88BF88E6CF61E08CE92D
:1005100092E00C944E02DC0118968C9118974817C3
:1005200010F04FEF480F1B969C911B97992389F071
:1005300017969C911797691730F0691B4F5F481702
:10054000D0F340E0F8CF19966C9319971A964C9314
:100550001A97FD01E40FF11D8485680F6068CD01D5
:100560000C944E020F931F93CF93DF93EC010E94E4
:100570001E028C018B85882399F089858F5F89877E
:100580009F81891768F019868A858F5F8A87988589
:10059000891708F01A864A8560E0CE010E948B0216
:1005A000C801DF91CF911F910F9108958DEF9FEFBB
:1005B000089590E080E0089580E480937C0080912D
:1005C0007A00806480937A0080917A0086FDFCCF67
:1005D0009091780080917900892798278927823324
:1005E000910588F0883C910580F0803921E09207E0
:1005F00070F0883522E0920760F08032934058F422
:1006000084E08F5F089580E0FCCF81E0FACF82E044
:10061000F8CF83E0F6CF80E008958091320190E03A
:100620009093320280933102209131023091320254
:1006300082E390E0821B930B90932C0280932B0219
:10064000089590933C0280933B0280913B029091ED
:100650003C02892B11F00000F8CF0895CF930E943F
:10066000DC02C0913D02C81303C080E0CF91089521
:1006700085E090E00E9421030E94DC02C817A9F3E4
:1006800080933D02F3CF0F931F93CF938C01C62F1E
:10069000FC0183A161E0C0FF60E00E940B01F80152
:1006A00084A161E0C1FF60E00E940B01F80185A117
:1006B00061E0C2FF60E00E940B01F80186A161E0E9
:1006C000C3FF60E0CF911F910F910C940B01FC01CF
:1006D00087A18F3F81F190A59E3F51F4662331F0B1
:1006E00060E00E94390190E080E0089561E0F9CF78
:1006F000833041F02BEF280F223020F027EF280F16
:10070000233068F470E0913019F40E946A01EBCF55
:100710002FEF30E0A901461B570BBA01F6CF662335
:1007200031F0913031F461E00E940B01DCCF99236C
:10073000D1F360E0F9CF8DEF9FEF08956091300124
:100740008EEC689F602D112461508CE992E00E942C
:1007500067038AE090E00C942103EF92FF921F93CD
:10076000CF93DF93EC0161E088A10E94390189A158
:100770008F3F39F061E00E94390160E089A10E9459
:100780000B0161E08AA10E94390160E08AA10E9408
:100790000B0161E08BA10E94390161E08CA10E94F4
:1007A000390161E08DA10E94390161E08EA10E94B2
:1007B00039011FA11F3F61F188A5813029F560E053
:1007C000812F0E940B0160E0812F0E94390161E0BE
:1007D000812F0E94390161E0812F0E940B018FE07F
:1007E00090E00197F1F7812F0E94E2007C0160E028
:1007F000812F0E940B0160E0812F0E943901EA9451
:10080000EF2811F08EEF88A761E08FA10E943901D7
:1008100090E080E0DF91CF911F91FF90EF900895DD
:100820008DEF9FEF08950895FC0101900020E9F7F6
:100830003197AF01481B590BBC018CE992E00C9435
:100840008C007F928F929F92AF92BF92CF92DF9255
:10085000EF92FF920F931F93CF93DF93D091760285
:10086000C1E0C09376020E9486028AE090E00E9476
:10087000210341E060E08CE992E00E948B0281E676
:1008800091E00E941404C0933401C12CD12C760154
:10089000C0E005E911E083E8A82E82E0B82E9FE0D1
:1008A000992E8824839423E2722E80913401882328
:1008B00099F1109234018091950290919602A09145
:1008C0009702B0919802C816D906EA06FB0640F4D2
:1008D000C0909502D0909602E0909702F090980216
:1008E000FF92EF92DF92CF921F930F93BF92AF923E
:1008F0000E945F0D40E065E08CE992E00E948B026F
:1009000083E892E00E9414048DB79EB708960FB654
:10091000F8949EBF0FBE8DBFC13009F447C0F0F1FF
:10092000C23009F450C00E942E03843009F052C036
:100930001092400241E060E08CE992E00E948B025C
:1009400089E691E00E94140410923E0286E98093A9
:100950003F0280913E02811104C00E942E03843028
:10096000C1F70E9486028AE090E00E942103D093A2
:10097000760281E080939A0210929902809334016A
:10098000DF91CF911F910F91FF90EF90DF90CF906B
:10099000BF90AF909F908F907F900895809240027B
:1009A00070923F0210923E02C1E0BDCF80913E02A4
:1009B000882309F4B8CF1092400290923F0210921F
:1009C0003E02C2E0B0CF80913E02882309F4ABCF53
:1009D000C0E0A9CF8AE090E00E94210366CF0E9488
:1009E000530D4F925F926F927F928F929F92AF9230
:1009F000BF92EF92FF921F93CF93DF93EC017B01A5
:100A0000142F88A161E091E0E916F10409F060E09B
:100A10000E940B01612F70E084E0759567958A95BF
:100A2000E1F7CE010E9443038C8C9D8CAE8CBF8C71
:100A3000488C598C6A8C7B8C0E94C701641975099B
:100A400086099709681579058A059B05A8F361E071
:100A50008AA10E940B0160E08AA10E940B0182E042
:100A6000E816F10469F0612F6F70CE010E94430314
:100A700061E08AA10E940B0160E08AA10E940B0143
:100A800090E080E0DF91CF911F91FF90EF90BF90B9
:100A9000AF909F908F907F906F905F904F90089550
:100AA0008F929F92AF92BF92CF92DF92EF92FF927E
:100AB0000F931F93CF93DF93FC0121A12F3F09F4E4
:100AC00095C08B01EC01C48CD58CE68CF78C808CA6
:100AD000918CA28CB38C0E94C701681979098A098C
:100AE0009B096C157D058E059F05A8F360E08BA121
:100AF0000E94390160E08CA10E94390160E08DA163
:100B00000E94390160E08EA10E94390161E001304C
:100B1000110509F060E088A10E940B0161E089A144
:100B20000E940B0161E08AA10E940B018BA10E942F
:100B3000E20010E1019709F010E08CA10E94E200B0
:100B4000019709F410628DA10E94E200019709F457
:100B500010648EA10E94E200019709F4106860E021
:100B60008AA10E940B0161E08AA10E940B018BA166
:100B70000E94E200019709F411608CA10E94E2003A
:100B8000019709F412608DA10E94E200019709F417
:100B900014608EA10E94E200019709F4186060E0E1
:100BA0008AA10E940B0161E08BA10E94390161E0E2
:100BB0008CA10E94390161E08DA10E94390161E0A0
:100BC0008EA10E94390160E089A10E940B01812F52
:100BD00090E0DF91CF911F910F91FF90EF90DF9008
:100BE000CF90BF90AF909F908F9008958DEF9FEF23
:100BF000F0CFEF92FF920F931F93CF93DF93C82F05
:100C00007B0170E060E08CE992E00E9450058C016D
:100C10000F77112797FD00E088E0C89FB0011124ED
:100C200060648CE992E00E944E020097E1F4E701D3
:100C300088E0E80EF11C69918CE992E00E941E02A6
:100C4000019779F4CE15DF05B1F740E0602F8CE90C
:100C500092E0DF91CF911F910F91FF90EF900C9454
:100C60008B028FEF9FEFDF91CF911F910F91FF903C
:100C7000EF9008951F920F920FB60F9211242F93A9
:100C80003F938F939F93AF93BF9380914202909134
:100C90004302A0914402B09145023091410223E009
:100CA000230F2D3758F50196A11DB11D2093410248
:100CB0008093420290934302A0934402B093450272
:100CC0008091460290914702A0914802B09149025A
:100CD0000196A11DB11D8093460290934702A093F7
:100CE0004802B0934902BF91AF919F918F913F917C
:100CF0002F910F900FBE0F901F90189526E8230F8D
:100D00000296A11DB11DD2CF1F920F920FB60F9266
:100D100011242F933F934F935F936F937F938F9300
:100D20009F93AF93BF93EF93FF9380913B0290917A
:100D30003C02892B49F080913B0290913C02019743
:100D400090933C0280933B0280913A028F5F8A30FD
:100D500099F080933A02FF91EF91BF91AF919F91EB
:100D60008F917F916F915F914F913F912F910F9054
:100D70000FBE0F901F90189510923A028091390281
:100D80008F5F80933902843160F08091740290917A
:100D90007502449730F484E190E09093750280935B
:100DA000740280913F02882351F080913F0281506C
:100DB00080933F02811103C081E080933E028091C5
:100DC00038028F5F843619F080933802C4CF1092B6
:100DD0003802109295021092960210929702109289
:100DE000980290E080E0FC01EE0FFF1FE65BFD4FF4
:100DF0002081318140919502509196026091970235
:100E000070919802420F531F611D711D409395020E
:100E100050939602609397027093980201968531E1
:100E2000910509F760919502709196028091970261
:100E30009091980223E030E040E050E00E94110DD4
:100E40002093950230939602409397025093980214
:100E50008091950290919602A0919702B09198028C
:100E600080349244AF40B10560F08FE392E4AFE08C
:100E7000B0E08093950290939602A0939702B0936E
:100E8000980240919502509196026091970270915C
:100E9000980280917B0290917C02A0917D02B0919A
:100EA0007E0284179507A607B70780F48091950204
:100EB00090919602A0919702B091980280937B0244
:100EC00090937C02A0937D02B0937E0240919502A4
:100ED0005091960260919702709198028091310131
:100EE00090E0B0E0A0E0481759076A077B0720F1BF
:100EF00081E080939B0283E190E0FC01EE0FFF1FF5
:100F0000E65BFD4F20813181FC01EE0FFF1FE45BAA
:100F1000FD4F31832083019780F710924B0210928E
:100F20004A0280917A028F5F8C3388F480937A0230
:100F300081E0809334010FCF10929B028091770261
:100F40008823C9F21092770210929A02D4CF10929D
:100F50007A02809179028F5F8C3318F48093790242
:100F6000E7CF10927902809178028F5F843618F46F
:100F700080937802DDCF1092780210927F02109257
:100F800080021092810210928202D2CF1F920F92A1
:100F90000FB60F9211242F938F939F93AF93BF930C
:100FA00080914A0290914B02019649F080914A0249
:100FB00090914B02019690934B0280934A0280914C
:100FC0007F0290918002A0918102B09182020196ED
:100FD000A11DB11D80937F0290938002A093810296
:100FE000B09382028837984DA544B64060F087E7F9
:100FF00098EDA5E4B6E080937F0290938002A093E1
:101000008102B0938202809174029091750244979C
:1010100030F484E190E090937502809374028091A3
:101020007602811107C080913702811103C081E0EF
:1010300080933702BF91AF919F918F912F910F9025
:101040000FBE0F901F9018951F920F920FB60F9220
:1010500011248F939F93AF93BF9380913602813079
:10106000D1F160F18230F1F1833009F443C0909105
:10107000400280913302992309F4ACC0813009F415
:101080005CC008F457C0823009F46CC0833009F4A6
:1010900087C080913702882309F4A3C0419A8091C8
:1010A000330180932A0210923702BF91AF919F9132
:1010B0008F910F900FBE0F901F90189580919902FD
:1010C0008230A9F28091740290917502892B79F295
:1010D00081E0809336025B9A809136028F5F809325
:1010E0003602C5CF5B9883E690E0909335028093FB
:1010F0003402F2CF8091340290913502019790939F
:10110000350280933402892B09F0B1CF1092390255
:101110008091740290917502892B49F0809174023C
:1011200090917502019790937502809374021092CA
:1011300036029DCF81E080933302419A8091310243
:1011400090913202B0E0A0E080932D0290932E02A5
:10115000A0932F02B0933002809133028F5F80936F
:10116000330297CF80912D0290912E02A0912F02F1
:10117000B09130020197A109B10980932D0290939B
:101180002E02A0932F02B0933002892B8A2B8B2B37
:1011900009F07FCF419880912B0290912C02D2CF01
:1011A00080912D0290912E02A0912F02B0913002D9
:1011B0000197A109B10980932D0290932E02A0936B
:1011C0002F02B0933002892B8A2B8B2B09F061CF31
:1011D00081E0C5CF882309F45CCF41981092330297
:1011E00058CF80912A02882309F45FCF81508093E1
:1011F0002A0281115ACF419858CF789484B58260E1
:1012000084BD84B5816084BD85B5826085BD85B5AA
:10121000816085BD80916E00816080936E00109228
:1012200081008091810082608093810080918100A3
:101230008160809381008091800081608093800034
:101240008091B10084608093B1008091B000816092
:101250008093B00080917A00846080937A008091BE
:101260007A00826080937A0080917A008160809316
:101270007A0080917A00806880937A001092C10091
:10128000259A2D98539A5B98399A419852985A9A70
:101290000E940D0316BC82E084BD93E095BD9AEFD9
:1012A00097BD90916E00926090936E001092B20084
:1012B0008093B0008093B10084E18093B30080916B
:1012C00070008260809370008091A80281110CC030
:1012D0008091A902811108C08091AA02811104C0E5
:1012E0008091AB02882321F08091A3028F7E59F078
:1012F0001092A80280E48093A90280E18093AA0260
:1013000080E58093AB0282E08093A40280E1809329
:10131000A30264E670E080E090E00E94EC0110928D
:10132000A0028CE992E00E94AD03892B09F059C01C
:101330008091A402823028F08091A002886080937E
:10134000A00240E362E070E08CE992E00E94F104C8
:1013500065E070E080E090E00E94EC0140E362E034
:1013600070E08CE992E00E94F10461E070E080E0BE
:1013700090E00E94EC0140E362E070E08CE992E0D2
:101380000E94F10461E070E080E090E00E94EC01D6
:101390008091A00284FD07C040E262E070E08CE929
:1013A00092E00E94F1046091A00260628CE992E0F8
:1013B0000E944E0284E08093A1026CE08CE992E0EE
:1013C0000E944E020E94860282E08093A20266E0A2
:1013D0008CE992E00E944E026FEF8CE992E00E944D
:1013E00067030E949E0340E060E08CE992E00E9467
:1013F0008B0288E791E00E94140441E060E08CE9F0
:1014000092E00E948B0287E891E00E94140488EE2B
:1014100093E090937502809374020E9421030E94CE
:1014200086028AE090E00E94210368E271E080E099
:101430000E94F90560E271E081E00E94F90568E12F
:1014400071E082E00E94F90560E171E083E00E94B2
:10145000F90568E071E084E00E94F90560E071E060
:1014600085E00E94F90582E08093690081E08DBBF0
:1014700040E3442E4AE2542E612C712C55EF852E08
:1014800051E0952E63EE262E61E0362E77E0E72EB2
:1014900072E0F72EE8E1CE2EE2E0DE2E3FEBA32E47
:1014A00031E0B32E80919B02882331F080919A0223
:1014B000811102C00E94210480913401882309F423
:1014C000E6C01092340180919902813009F45CC029
:1014D000E0F1823009F47FC040E060E08CE992E006
:1014E0000E948B0283E892E00E941404809199028A
:1014F000813009F494C008F475C0823009F4AEC09C
:1015000041E068E08CE992E00E948B0283E892E07F
:101510000E94140441E060E08CE992E00E948B029A
:1015200080919A02882309F4CAC0809177028823A7
:1015300009F49BC063E08CE992E00E94B20263E090
:101540008CE992E00E94B20294C080919502909141
:101550009602A0919702B0919802BF93AF939F9388
:101560008F9380E991E09F938F9383E892E09F931C
:101570008F930E945F0D8DB79EB708960FB6F894B3
:101580009EBF0FBE8DBFA8CF20917F0230918002F9
:101590004091810250918202A5E1B0E00E94330D9A
:1015A000A30192010E94110D5F934F933F932F93DC
:1015B0008FE991E09F938F9383E892E09F938F93BD
:1015C0000E945F0D8DB79EB708960FB6F8949EBF28
:1015D0000FBE8DBF81CF6EEA71E083E892E00E947A
:1015E000580D7ACF80917B0290917C02A0917D0270
:1015F000B0917E02BF93AF939F938F93BF92AF92B0
:1016000083E892E09F938F930E945F0D8DB79EB702
:1016100008960FB6F8949EBF0FBE8DBF71CF809114
:101620007A021F928F93809179021F928F938091FB
:1016300078021F928F9386EC91E09F938F9383E8BB
:1016400092E09F938F930E945F0D8DB79EB70A968D
:101650000FB6F8949EBF0FBE8DBF52CF65ED71E0FF
:1016600083E892E00E94580D4BCF8CEB91E00E94F2
:10167000140441E063E08CE992E00E948B028091C7
:101680007602882319F18CEB91E00E9414040E94E9
:101690002E03833009F4A9C020F5813009F4EEC08F
:1016A000823009F48FC08AE090E00E94210380E03C
:1016B00090E0892B09F4F6CE0E940000EFCE60E0A6
:1016C0008CE992E00E94B20261E03ACF64E08CE9DA
:1016D00092E00E94B20265E08CE992E00E94B202C0
:1016E000D6CF843009F4B4C08530E9F60E94860272
:1016F0008AE090E00E94210381E08093340110E0B1
:10170000C3E8D2E080919B02882331F080919A0255
:10171000811102C00E94210480913401882309F4C0
:101720003FC01092340141E060E08CE992E00E94F9
:101730008B0262E08CE992E00E94B20241E062E03A
:101740008CE992E00E948B02812F90E001969F939A
:101750008F938EED91E09F938F93DF93CF930E94B1
:101760005F0D83E892E00E9414040F900F900F9099
:101770000F900F900F90113009F491C008F486C0BB
:10178000123009F49DC0133009F4A3C040E060E0BA
:101790008CE992E00E948B0283E892E00E9414049C
:1017A0000E942E03833009F4D9C008F099C081301B
:1017B00009F4ACC0823009F4A2C08AE090E00E9433
:1017C0002103A0CF809199028F5F8093990283308B
:1017D00040F01092990288EE93E090937502809306
:1017E000740281E0809334015ECF80919902882356
:1017F00089F08130B1F710927F021092800210922E
:1018000081021092820210927A0210927902109252
:101810007802E7CF90E080E0FC01EE0FFF1FE65B6F
:10182000FD4F11821082019685319105A9F7109222
:1018300095021092960210929702109298021092BE
:101840007B0210927C0210927D0210927E02C9CF20
:1018500090919A0280919B02882351F0913009F671
:1018600081E090917702911180E080937702B9CF67
:1018700081E0911180E080939A02B3CF81E0909152
:101880007602911180E080937602ABCF8091330194
:101890001F928F933F922F92DF93CF9308C0809136
:1018A00032011F928F939F928F92DF93CF930E946A
:1018B0005F0D0F900F900F900F900F900F9066CFCD
:1018C000809131011F928F93FF92EF92DF93CF931C
:1018D000EECF809130011F928F93DF92CF92DCCFB9
:1018E0008430A1F0853009F068CF1F5F143070F0AC
:1018F0000E9486028AE090E00E94210372CF11309C
:1019000089F040F01230C1F01330F1F081E08093A3
:10191000340153CF809133018530C0F78F5F8093BE
:101920003301F4CF80913201853080F78F5F80934F
:1019300032010E940D03EACF809131018A3F30F7D6
:10194000865F80933101E2CF80913001853018F4B9
:101950008F5F809330010E949E03D8CF113089F0B1
:1019600050F01230A1F0133089F6809130018823B5
:1019700091F38150EECF80913301823038F2815063
:10198000CECF80913201823008F28150D0CF809149
:101990003101893208F4BACF8A50D3CFCF93DF9385
:1019A000CCE9D2E01B821A8289E391E09983888393
:1019B0001F82188680ED97E0A0E0B0E0888B998BBD
:1019C000AA8BBB8B86E290E0A0E0B0E08C8B9D8B75
:1019D000AE8BBF8B1C861D861E861F861B860E94B3
:1019E000C701688F798F8A8F9B8F1C8E1D8E1E8EEC
:1019F0001F8E8FE491E09983888388E088A389E033
:101A00008AA38FEF89A384E08BA385E08CA386E073
:101A10008DA387E08EA38AE08FA318A6DF91CF91D4
:101A20000895A1E21A2EAA1BBB1BFD010DC0AA1F1F
:101A3000BB1FEE1FFF1FA217B307E407F50720F037
:101A4000A21BB30BE40BF50B661F771F881F991FB2
:101A50001A9469F760957095809590959B01AC01FB
:101A6000BD01CF0108950E94440DA59F900DB49F24
:101A7000900DA49F800D911D11240895EE0FFF1F5E
:101A80000590F491E02D0994A29FB001B39FC0018D
:101A9000A39F700D811D1124911DB29F700D811D9A
:101AA0001124911D089581E090E0F8940C94371072
:101AB000FB01DC0101900D920020E1F70895AEE0FA
:101AC000B0E0E5E6FDE00C940E100D891E8986E07D
:101AD0008C831A8309838FEF9FE79E838D83AE01EA
:101AE000475E5F4F6F89788DCE0101960E94820D0F
:101AF0002F813885020F131FF80110822E96E4E023
:101B00000C942A10ABE0B0E0E8E8FDE00C94001083
:101B10007C013B018A01FC0117821682838181FFCF
:101B2000C8C1CE0101965C01F7019381F30193FDD9
:101B3000859193FF81913F01882309F453C1853238
:101B400039F493FD859193FF81913F01853229F40A
:101B5000B70190E00E94720FE7CF912C212C312C1D
:101B6000FFE1F31538F08B3211F190F4803209F176
:101B7000833229F137FC3CC020ED280F2A3050F584
:101B800036FE20C08AE0989E200D1124922E06C0B9
:101B90008D3291F0803371F7689430F8F30193FD42
:101BA000859193FF81913F018111DACF21C0689423
:101BB00031F8689432F8F2CF689433F8EFCF689434
:101BC00034F8ECCFEAE02E9E200D1124222E6894EA
:101BD00035F8E4CF8E3229F436FC04C1689436F827
:101BE000DDCF8C3619F4689437F8D8CF8836B1F247
:101BF000982F9F7D95549330E0F08336A1F1833781
:101C0000C1F1833509F063C02801F2E04F0E511C89
:101C1000F801C080D180692D70E036FC02C06FEF02
:101C20007FEFC6010E945C0F4C01689437F8820177
:101C30000AC00C5F1F4FFFE3F98388248394912C23
:101C40006501E89437F833FE2DC0522C81149104BD
:101C500071F5552009F468CFB70180E290E00E9449
:101C6000720F5A94F6CFF801808189830E5F1F4F5F
:101C7000E4CF2801F2E04F0E511CF801C080D18062
:101C8000692D70E036FC02C06FEF7FEFC6010E9445
:101C9000670F4C018201D5CFB70180E290E00E942E
:101CA000720F2A942814190409F0B0F7CECFF60168
:101CB00037FC859137FE81916F01B70190E00E945A
:101CC000720F51105A94F1E08F1A9108BFCF8436E9
:101CD00019F0893609F077C0F80137FE6BC06081D2
:101CE0007181828193810C5F1F4FF32DFF763F2E10
:101CF00097FF09C090958095709561957F4F8F4FA4
:101D00009F4F689437F82AE030E0A5010E94A20FA7
:101D1000C82ECA188C2C432C36FE0CC0E89440F810
:101D2000C91440F434FE05C032FC03C0F32DFE7E1E
:101D30004F2E892C44FE95C0FE01EC0DF11D8081D3
:101D4000803309F087C0242D297E422E842D88708F
:101D5000582E43FC95C040FE8FC09C2C821418F472
:101D60002C0C922C981844FE91C0B70180E390E0AF
:101D70000E94720F42FE09C088E790E041FE02C057
:101D800088E590E0B7010E94720FC91408F48AC078
:101D9000CA94D12C9FEFC91AD90ACA0CDB1CF601D0
:101DA00082916F01B70190E00E94720FAC14BD04E4
:101DB000B1F74FCF60817181072E000C880B990B12
:101DC0000E5F1F4F92CFD32CE894D4F82AE030E076
:101DD000853739F1232D297FD22E8F3601F148F432
:101DE0008835A9F0F701868197812B96E2E10C9462
:101DF0001C10803749F08837A9F7D4FE02C06894D8
:101E0000D2F820E130E00DC06894D4F8F6CF34FE6B
:101E100003C0822F8660D82E20E132E002C028E085
:101E200030E0F801D7FE0FC060817181828193811B
:101E30000C5F1F4FA5010E94A20FC82ECA183D2C8F
:101E4000E89437F867CF6081718190E080E00E5FA1
:101E50001F4FF0CF42FC02C0839478CF83948394C9
:101E600075CF842D867809F471CFF6CFB70180E263
:101E700090E00E94720F83948214C0F3512C73CFB0
:101E8000522C5818821408F46ECFF8CF842D86781F
:101E900009F47BCF8BE241FE80E247FC8DE2B70183
:101EA00090E071CFB70180E390E00E94720F9A94A6
:101EB0006CCF8FEF9FEF99CFFC0105906150704080
:101EC0000110D8F7809590958E0F9F1F0895FC0103
:101ED0006150704001900110D8F7809590958E0F59
:101EE0009F1F08950F931F93CF93DF93182F092FF0
:101EF000EB018B8181FD09C01FEF0FEF812F902F28
:101F0000DF91CF911F910F91089582FF14C02E8110
:101F10003F818C819D81281739073CF4E881F98144
:101F2000CF0101969983888310838E819F810196CA
:101F30009F838E83E3CFE885F985812F0995892BCF
:101F4000A1F3DACFFA01AA27283051F1203181F12B
:101F5000E8946F936E7F6E5F7F4F8F4F9F4FAF4FB1
:101F6000B1E03ED0B4E03CD0670F781F891F9A1FC4
:101F7000A11D680F791F8A1F911DA11D6A0F711D78
:101F8000811D911DA11D20D009F468943F912AE084
:101F9000269F11243019305D3193DEF6CF0108956C
:101FA000462F4770405D4193B3E00FD0C9F7F6CF9D
:101FB000462F4F70405D4A3318F0495D31FD405265
:101FC000419302D0A9F7EACFB4E0A69597958795FB
:101FD00077956795BA95C9F70097610571050895DA
:101FE0009B01AC010A2E0694579547953795279586
:101FF000BA95C9F7620F731F841F951FA01D08951E
:102000002F923F924F925F926F927F928F929F9208
:10201000AF92BF92CF92DF92EF92FF920F931F93F6
:10202000CF93DF93CDB7DEB7CA1BDB0B0FB6F894A7
:10203000DEBF0FBECDBF09942A88398848885F84E7
:102040006E847D848C849B84AA84B984C884DF8058
:10205000EE80FD800C811B81AA81B981CE0FD11D3C
:102060000FB6F894DEBF0FBECDBFED010895F89412
:02207000FFCFA0
:1020720000000E0A0A1B00000001030F0F030100FB
:102082000000000000000015001F001F001F0000DC
:102092000004120A0A12040000040E0E0E1F0400AD
:1020A200043203030100000000B2028C00D90213C3
:1020B20004D902D602EF041004100400000000B29A
:1020C200028C00D9021304AD035005F1046703101A
:1020D200045741524E694E4700416C41524D2044D3
:1020E200695341626C456400474569474552204344
:1020F2004F554E744552005374415274694E470015
:10210200524174452025366C752075522F68004463
:1021120030534520202025366C75207552006230E0
:10212200305374203066662020202020202000209A
:102132002025366C7500253032753A253032753AD5
:1021420025303275004368415247694E47002530B9
:1021520031750042555A5A20564F4C554D45202054
:102162002025327500414C41524D20564F4C554D61
:1021720045202025327500414C41524D204C455698
:10218200454C2020253375004252494748544E455C
:0A2192005353202020202532750051
:00000001FF
