:100000000C940C010C94BD0F0C9434010C9434012D
:100010000C9434010C9434010C9434010C941B1096
:100020000C9434010C9434010C9434010C9434017C
:100030000C9434010C9434010C947B0E0C94340118
:100040000C94120D0C9434010C9434010C94340172
:100050000C9434010C9434010C9434010C9434014C
:100060000C945C0D0C94340108000000BE922449ED
:10007000123EABAAAA2ABECDCCCC4C3E00000080DA
:10008000BEABAAAAAA3E00000000BF000000803F4D
:100090000000000000084178D3BB4387D1133D190D
:1000A0000E3CC3BD4282AD2B3E68EC8276BED98F3A
:1000B000E1A93E4C80EFFFBE01C4FF7F3F0000007E
:1000C000000000407A10F35A00A0724E1809001088
:1000D000A5D4E80000E87648170000E40B540200BD
:1000E00000CA9A3B000000E1F505000080969800E8
:1000F000000040420F000000A08601000000102711
:1001000000000000E80300000000640000000000A0
:100110000A00000000000100000000002C76D888D2
:10012000DC674F0823DFC1DFAE59E1B1B796E5E3E5
:10013000E453C63AE651997696E8E6C28426EB89FE
:100140008C9B62ED407C6FFCEFBC9C9F40F2BAA59B
:100150006FA5F490055A2AF75C936B6CF9676DC133
:100160001BFCE0E40D47FEF520E6B500D0ED902E37
:100170000300943577050080841E080000204E0A95
:10018000000000C80C333333330F986E12831141D3
:10019000EF8D2114893BE65516CFFEE6DB18D1849E
:1001A0004B381BF77C1D901DA4BBE42420328472C5
:1001B0005E228100C9F124ECA1E53D27000000008A
:1001C000240027002A0000000000250028002B0042
:1001D0000000000023002600290004040404040495
:1001E00004040202020202020303030303030102E6
:1001F00004081020408001020408102001020408B5
:1002000010200000000800020100000304070000A5
:10021000000000000000F41011241FBECFEFD8E052
:10022000DEBFCDBF12E0A0E0B1E0ECECFFE302C026
:1002300005900D92A636B107D9F723E0A6E6B2E005
:1002400001C01D92A53FB207E1F711E0CCE0D1E07B
:1002500004C02197FE010E94F21BCB30D107C9F7E1
:100260000E946B110C94E41F0C9400004F925F925B
:100270006F927F928F929F92AF92BF92CF92DF92B6
:10028000EF92FF924090C1035090C2036090C3036D
:100290007090C40380EA481A8FE0580A6108710818
:1002A000A3019201C301B2010E948E1B6B017C016C
:1002B000FCE0F594E794D794C794FA95D1F7E091D0
:1002C000B803A091A503B091A6030E94EA1B4B01BD
:1002D0005C01ADE0B594A79497948794AA95D1F763
:1002E000A091AD03B091AE03A70196010E94EA1B55
:1002F0009C01552737FD5095452F280D391D4A1D66
:100300005B1D2E5F3F4F4F4F5F4F82E055954795E6
:10031000379527958A95D1F730584F4F5F4FA09169
:10032000A703B091A8030E94DF1B4B015C019FE073
:10033000B694A794979487949A95D1F7A091AF0318
:10034000B091B003A70196010E94EA1B6B017C01EA
:100350002BE0F594E794D794C7942A95D1F7A09110
:10036000A303B091A403A30192010E94EA1B3BE006
:1003700095958795779567953A95D1F7C60ED71ECF
:10038000E81EF91E8091A1039091A203092E000C92
:10039000AA0BBB0B42E0880F991FAA1FBB1F4A95EF
:1003A000D1F78C0D9D1DAE1DBF1D6C017D010E2E64
:1003B00004C0CC0CDD1CEE1CFF1C0A94D2F782E0BA
:1003C000C80ED11CE11CF11C52E0F594E794D794BF
:1003D000C7945A95D1F72091B9033091BA0340914F
:1003E000BB035091BC032C193D094E095F0960E520
:1003F00073EC80E090E004C09595879577956795BC
:10040000EA95D2F70E948E1B97FD4EC0660F771FAC
:10041000881F991FA50194010E949E1B69017A0102
:100420009927F7FC9A958F2D7E2D6D2D9B01AC01A0
:100430000E948E1B9B01AC01AEEDBBE00E94DF1B56
:100440004B015C01A3E4B3EEA70196010E94ED1BF2
:10045000BC01992777FD9095892F4501BB2497FC16
:10046000B094AB2C680D791D8A1D9B1D6153714F93
:100470008F4F9F4F44E095958795779567954A955F
:10048000D1F76C0D7D1D8E1D9F1D0E94A319FF903D
:10049000EF90DF90CF90BF90AF909F908F907F9024
:1004A0006F905F904F900895A50194010E949E1B4C
:1004B00069017A01CC0CDD1CEE1CFF1CB1CFCF9280
:1004C000DF92EF92FF92CF93DF93CFE9D3E08C8559
:1004D0009D852E8D3F8D48A159A1281B390B4109BF
:1004E0005109AA85BB850E94DF1B6B017C018FE04F
:1004F000F594E794D794C7948A95D1F76C897D8950
:10050000072E000C880B990B2BE0660F771F881FB6
:10051000991F2A95D1F72E893F89032E000C440B91
:10052000550B2C0D3D1D4E1D5F1D0E94C01BC20EA4
:10053000D31EE41EF51ECAA2DBA2ECA2FDA2A701F7
:100540009601285F3F4F4F4F5F4FCA01B90134E01A
:1005500095958795779567953A95D1F70E94A31958
:100560002DEC3CEC4CEC5DE30E947F1ADF91CF91C7
:10057000FF90EF90DF90CF90089581E00895089567
:100580000895AF92BF92CF92DF92EF92FF920F93B6
:100590001F93CF93DF936C017B018B01040F151F19
:1005A000EB015E01AE18BF08C017D10759F0699181
:1005B000D601ED91FC910190F081E02DC6010995E5
:1005C000892B79F7C501DF91CF911F910F91FF9092
:1005D000EF90DF90CF90BF90AF900895833081F07F
:1005E00028F4813099F08230A9F008958730A9F07D
:1005F0008830C9F08430B1F4809180008F7D03C0D1
:10060000809180008F7780938000089584B58F77E4
:1006100084BD089584B58F7DFBCF8091B0008F7726
:100620008093B00008958091B0008F7DF9CFCF9373
:10063000DF93282F30E0F901EE5FFD4F8491F9013F
:10064000E251FE4FD491F901E652FE4FC491CC2302
:10065000A1F081110E94EE02EC2FF0E0EE0FFF1FDF
:10066000E053FE4FA591B491EC91ED2381E090E031
:1006700009F480E0DF91CF91089580E090E0FACF17
:100680001F93CF93DF93282F30E0F901EE5FFD4FEA
:100690008491F901E251FE4FD491F901E652FE4FE7
:1006A000C491CC23A9F0162F81110E94EE02EC2FE9
:1006B000F0E0EE0FFF1FEA53FE4FA591B4918FB704
:1006C000F894EC91111108C0D095DE23DC938FBF14
:1006D000DF91CF911F910895DE2BF8CFCF93DF9359
:1006E00090E0FC01E251FE4F249186529E4FFC01A6
:1006F00084918823D1F090E0880F991FFC01E45485
:10070000FE4FA591B491FC01EA53FE4FC591D491DF
:1007100061110EC09FB7F8948C91E22FE0958E2363
:100720008C932881E223E8839FBFDF91CF910895C6
:100730008FB7F894EC91E22BEC938FBFF6CF1F9319
:10074000CF93DF93182FEB0161E00E946E03209797
:1007500039F460E0812FDF91CF911F910C94400319
:10076000CF3FD10511F461E0F5CFE12FF0E0EE5F6E
:10077000FD4FE491E33031F140F4E130B1F0E2308B
:10078000E1F0C038D1057CF7E4CFE73029F1E8305B
:1007900059F1E430B1F7809180008062809380004D
:1007A000D0938B00C0938A0004C084B5806884BD58
:1007B000C7BDDF91CF911F91089584B5806284BD3C
:1007C000C8BDF7CF80918000806880938000D0936F
:1007D0008900C0938800EDCF8091B000806880933D
:1007E000B000C093B300E5CF8091B00080628093E9
:1007F000B000C093B400DDCF3FB7F8948091C6023B
:100800009091C702A091C802B091C90226B5A89BD9
:1008100005C02F3F19F00196A11DB11D3FBFBA2F92
:10082000A92F982F8827BC01CD01620F711D811D52
:10083000911D42E0660F771F881F991F4A95D1F7D7
:1008400008958F929F92AF92BF92CF92DF92EF92D4
:10085000FF924B015C010E94FC036B017C010E9432
:10086000FC036C197D098E099F09683E7340810560
:100870009105A8F321E0821A9108A108B10888EE39
:10088000C80E83E0D81EE11CF11C81149104A10460
:10089000B10429F7FF90EF90DF90CF90BF90AF9019
:1008A0009F908F9008950895BF92CF92DF92EF921C
:1008B000FF920F931F93CF93DF934530D8F4B42E5C
:1008C000062FEC0110E060E070E0CB01B116A9F05A
:1008D000CC24D62EE72EF82EE881F9810680F78108
:1008E000E02D602FCE0109959601282BC701B90193
:1008F0001F5FECCF60E070E0CB01DF91CF911F91E3
:100900000F91FF90EF90DF90CF90BF9008950895E2
:1009100020919E02260F3327331F21323105ECF43C
:1009200020916903FC0190E080E0243069F082E0CE
:100930000895A0919E022191AC0142585D4FA40FF1
:10094000B52FB11D2C930196861798F380919E02C6
:10095000680F60939E0280E0089581E008951092F0
:10096000690381E0809368031092430361E082E1B0
:100970000E94400361E083E10E944003E9EBF0E064
:1009800080818E7F808380818D7F808388E48093C7
:10099000B80085E48093BC000895CF93DF9391E085
:1009A00090937D028823B9F0C091B800D091BA002D
:1009B0008091BC008A7B8093BC0060E082E10E9451
:1009C000400360E083E10E9440030E94AF04D093A3
:1009D000BA00C093B800DF91CF9108958F929F9293
:1009E000AF92BF92CF92DF92EF92FF920F931F933D
:1009F000CF93DF93D0919203D13208F0D7C0182F54
:100A0000C09191030E94FC036B017C0180916903FA
:100A100081116BC082E080936903109368038FEFAC
:100A20008093670310926603D0936503A1E7B3E058
:100A3000E5E4F3E080E0D81391C010924403809184
:100A40004403CC0FC82BC0934403809143038130EF
:100A500009F088C0109243030E94FC036B017C01E3
:100A6000809144038093BB0080916B0390916C0351
:100A7000A0916D03B0916E03892B8A2B8B2BA1F073
:100A80000E94FC0300916B0310916C0320916D0395
:100A900030916E036C197D098E099F09061717079F
:100AA0002807390708F442C08091BC0083FDD8CFE5
:100AB00085EC8093BC000E94FC036B017C0180915B
:100AC0006903823009F450C0809167038F3F09F4B5
:100AD0006FC080916703803209F46CC08091670316
:100AE000803309F469C084E026C080916B03909143
:100AF0006C03A0916D03B0916E03892B8A2B8B2B15
:100B000009F484CF0E94FC0380906B0390906C03E7
:100B1000A0906D03B0906E036C197D098E099F093A
:100B200086169706A806B90608F070CF80916A036A
:100B30000E94CD0485E010927003109292031092EF
:100B40006F03DF91CF911F910F91FF90EF90DF9096
:100B5000CF90BF90AF909F908F9008959D9191936B
:100B60008F5F69CF85EEA5CF80916B0390916C0369
:100B7000A0916D03B0916E03892B8A2B8B2B09F406
:100B80009ECF0E94FC0300916B0310916C03209197
:100B90006D0330916E036C197D098E099F0906174C
:100BA00017072807390708F08ACFC0CF81E0C3CFE5
:100BB00080E0C1CF82E0BFCF83E0BDCF1F93CF9352
:100BC000DF93FC01A6A1B7A1109721F1142FEC012E
:100BD00080A591E090936F0380939103109270032E
:100BE00010929203ED91FC9111970190F081E02D0C
:100BF000CD0109958EA19FA1DC01ED91FC910190A1
:100C0000F081E02D612F099581E0DF91CF911F9157
:100C10000C94EE04DF91CF911F910895CF92DF9253
:100C2000EF92FF920F931F93CF93DF93D82FC62F8E
:100C3000613208F098C00E94FC036B017C01809136
:100C4000690381116BC081E080936903809368031D
:100C50009FEF90936703109266039C0F9093650338
:100C60008093440380914403DD0FD82BD093440339
:100C700080914303813009F078C0109243030E94B1
:100C8000FC036B017C01809144038093BB00809145
:100C90006B0390916C03A0916D03B0916E03892B4F
:100CA0008A2B8B2BA1F00E94FC0300916B03109107
:100CB0006C0320916D0330916E036C197D098E09D0
:100CC0009F09061717072807390708F448C08091BD
:100CD000BC0083FDD8CF85EC8093BC000E94FC0350
:100CE0006B017C0180916903813009F440C08091DF
:100CF00066038C1710F4C0916603E5E4F3E0A3E209
:100D0000B3E080E08C1355C08C2FDF91CF911F9101
:100D10000F91FF90EF90DF90CF90089580916B033B
:100D200090916C03A0916D03B0916E03892B8A2B77
:100D30008B2B09F484CF0E94FC0300916B0310916C
:100D40006C0320916D0330916E036C197D098E093F
:100D50009F09061717072807390708F070CF8091F9
:100D60006A030E94CD04C0E0CFCF85EEB5CF80915D
:100D70006B0390916C03A0916D03B0916E03892B6E
:100D80008A2B8B2B09F4AECF0E94FC0300916B03DE
:100D900010916C0320916D0330916E036C197D09E5
:100DA0008E099F09061717072807390708F09ACFF9
:100DB000D6CF91919D938F5FA5CF0895E091CF02FB
:100DC0008091CE02E81730F4F0E0ED5DFC4F8081B9
:100DD00090E008958FEF9FEF08959091CF0280915A
:100DE000CE022FEF3FEF981748F4E92FF0E0ED5DCA
:100DF000FC4F208130E09F5F9093CF02C90108959E
:100E00008091CE029091CF02891B990B0895CF92C9
:100E1000DF92EF92FF920F931F93CF93DF937C01AA
:100E2000CB018A0120916F03222389F0EB016B0132
:100E3000C40ED51ECC15DD0569F06991D701ED9181
:100E4000FC910190F081E02DC7010995F3CF642F4B
:100E50000E948804C801DF91CF911F910F91FF90EC
:100E6000EF90DF90CF900895CF93DF931F92CDB78F
:100E7000DEB7698320916F032223F9F0209192035A
:100E8000203258F021E030E0FC013383228390E0EF
:100E900080E00F90DF91CF91089580917003E82F4B
:100EA000F0E0EF58FC4F998190838F5F809370033F
:100EB0008093920381E090E0ECCF61E0CE01019657
:100EC0000E948804F7CFCF92DF92EF92FF920F93A8
:100ED0001F93CF93DF93EC01462FE881F9810484BF
:100EE000F585E02D61E070E009958C01CC88DD8806
:100EF000EE88FF880E94FC03688F798F8A8F9B8F12
:100F0000CC8EDD8EEE8EFF8E81E090E0012B11F015
:100F100090E080E0DF91CF911F910F91FF90EF90D3
:100F2000DF90CF9008958F929F92AF92BF92EF92F1
:100F3000FF921F93CF93DF93EC01162FE881F98185
:100F40000484F585E02D462F70E060E009957C0172
:100F500011501230D8F419861A8688889988AA8880
:100F6000BB880E94FC03688F798F8A8F9B8F8C8E41
:100F70009D8EAE8EBF8EC701DF91CF911F91FF90E6
:100F8000EF90BF90AF909F908F9008958C889D8830
:100F9000AE88BF88E6CF61E088EC93E00C949307BD
:100FA000DC0118968C911897481710F04FEF480FF6
:100FB0001B969C911B97992389F017969C911797E4
:100FC000691730F0691B4F5F4817D0F340E0F8CF46
:100FD00019966C9319971A964C931A97FD01E40F82
:100FE000F11D8485680F6068CD010C9493070F9301
:100FF0001F93CF93DF93EC010E9463078C018B85D5
:10100000882399F089858F5F89879F81891768F088
:1010100019868A858F5F8A879885891708F01A86CE
:101020004A8560E0CE010E94D007C801DF91CF91D0
:101030001F910F9108958DEF9FEF089590E080E04C
:10104000089580E480937C0080917A00806480938E
:101050007A0080917A0086FDFCCF90917800809193
:1010600079008927982789278233910588F0883C61
:10107000910580F0803921E0920770F0883522E0F8
:10108000920760F08032934058F484E08F5F0895B7
:1010900080E0FCCF81E0FACF82E0F8CF83E0F6CFAA
:1010A00080E008958091320190E090936E028093E9
:1010B0006D0220916D0230916E0282E390E0821BFE
:1010C000930B90936802809367020895909378023F
:1010D000809377028091770290917802892B11F0AA
:1010E0000000F8CF0895CF930E942108C0917902A3
:1010F000C81303C080E0CF91089585E090E00E947E
:1011000066080E942108C817A9F380937902F3CFDB
:101110000F931F93CF938C01C62FFC0183A161E035
:10112000C0FF60E00E944003F80184A161E0C1FFBC
:1011300060E00E944003F80185A161E0C2FF60E029
:101140000E944003F80186A161E0C3FF60E0CF91F7
:101150001F910F910C944003FC0187A18F3F81F1F7
:1011600090A59E3F51F4662331F060E00E946E032B
:1011700090E080E0089561E0F9CF833041F02BEFFB
:10118000280F223020F027EF280F233068F470E07A
:10119000913019F40E949F03EBCF2FEF30E0A901AB
:1011A000461B570BBA01F6CF662331F0913031F46C
:1011B00061E00E944003DCCF9923D1F360E0F9CFD6
:1011C0008DEF9FEF0895609130018EEC689F602D48
:1011D0001124615088EC93E00E94AC088AE090E012
:1011E0000C946608EF92FF921F93CF93DF93EC016C
:1011F00061E088A10E946E0389A18F3F39F061E010
:101200000E946E0360E089A10E94400361E08AA110
:101210000E946E0360E08AA10E94400361E08BA1FE
:101220000E946E0361E08CA10E946E0361E08DA1BB
:101230000E946E0361E08EA10E946E031FA11F3FFA
:1012400061F188A5813029F560E0812F0E9440037B
:1012500060E0812F0E946E0361E0812F0E946E0387
:1012600061E0812F0E9440038FE090E00197F1F749
:10127000812F0E9417037C0160E0812F0E944003B0
:1012800060E0812F0E946E03EA94EF2811F08EEF48
:1012900088A761E08FA10E946E0390E080E0DF915B
:1012A000CF911F91FF90EF9008958DEF9FEF0895DC
:1012B0000895CF92DF92EF92FF920F931F93CF93F7
:1012C000DF93FC01A6A1B7A11097F1F14530E0F53D
:1012D000142FEC0180A591E090936F03809391030C
:1012E0001092700310929203ED91FC91119701906E
:1012F000F081E02DCD01099580E00E94EE04612F80
:1013000088A50E940E061092CF028093CE0200E0C4
:1013100060E070E0CB011017D1F0CC24D62EE72E80
:10132000F82E8EA19FA1DC01ED91FC910284F38542
:10133000E02D0995BC01990F880B990B6C297D292B
:101340008E299F290F5FE7CF60E070E0CB01DF912E
:10135000CF911F910F91FF90EF90DF90CF90089564
:10136000CF92DF92EF92FF926A017B01422F682FAA
:101370008FE993E00E9459096C217D218E219F21E4
:10138000CC2059F020E04C2D50E0C0FC05C02F5F70
:101390006A01D594C794F7CFC22E04C0969587955D
:1013A00077956795CA94D2F7FF90EF90DF90CF9032
:1013B0000895CF93DF93EC018EA19FA1009741F197
:1013C00028A531E030936F032093910310927003AE
:1013D00010929203DC01ED91FC910190F081E02DDF
:1013E000099580E00E94EE0461E088A50E940E0647
:1013F0001092CF028093CE028EA19FA1DC01ED91CD
:10140000FC910284F385E02D0995DF91CF91089539
:1014100080E0FBCFCF93DF93C62F682F8FE993E057
:101420000E94D9098C2390E020E04C2F50E0C0FDB1
:1014300005C02F5FEA01D595C795F7CF02C09595F6
:1014400087952A95E2F7DF91CF91089560E284EFC6
:101450000E940A0A811136C08091B7038E3209F1C9
:10146000843381F523E04FEF5FEF6FEF70E086EF9D
:101470000E94B0094091B80328E030E0241B3109F4
:1014800004C095958795779567952A95D2F76093CF
:10149000B9037093BA038093BB039093BC0381E0BC
:1014A000089522E04FEF5FEF60E070E086EF0E946A
:1014B000B0096093BD037093BE038093BF03909304
:1014C000C003EDCF80E00895CF93DF93D82FC62FD0
:1014D00064EF8FE993E00E94D9095D2F2C2F90E0F3
:1014E0006D2F70E0D0FD05C09F5F75956795D62F75
:1014F000F7CF01C0220F9A95EAF7482F42274523DC
:10150000482764EF8FE993E0DF91CF910C94DE05DB
:1015100060E284EF0E940A0A81110FC084E3809385
:10152000B7036091B80380E4689FB001112464633D
:101530008FEF0E94640A81E0089580E0089560E2E0
:1015400084EF0E940A0A811109C08EE28093B703DA
:101550006EE28FE30E94640A81E0089580E00895BE
:101560004F925F926F927F928F929F92AF92BF92B3
:10157000EF92FF921F93CF93DF93EC017B01142F27
:1015800088A161E091E0E916F10409F060E00E94B1
:101590004003612F70E084E0759567958A95E1F7C7
:1015A000CE010E9488088C8C9D8CAE8CBF8C488CA0
:1015B000598C6A8C7B8C0E94FC036419750986091E
:1015C0009709681579058A059B05A8F361E08AA14A
:1015D0000E94400360E08AA10E94400382E0E81676
:1015E000F10469F0612F6F70CE010E94880861E0FC
:1015F0008AA10E94400360E08AA10E94400390E01B
:1016000080E0DF91CF911F91FF90EF90BF90AF905E
:101610009F908F907F906F905F904F9008958F92E2
:101620009F92AF92BF92CF92DF92EF92FF920F9371
:101630001F93CF93DF93FC0121A12F3F09F495C0A5
:101640008B01EC01C48CD58CE68CF78C808C918C52
:10165000A28CB38C0E94FC03681979098A099B0942
:101660006C157D058E059F05A8F360E08BA10E9497
:101670006E0360E08CA10E946E0360E08DA10E9469
:101680006E0360E08EA10E946E0361E001301105DF
:1016900009F060E088A10E94400361E089A10E94F6
:1016A000400361E08AA10E9440038BA10E941703BE
:1016B00010E1019709F010E08CA10E941703019737
:1016C00009F410628DA10E941703019709F41064B8
:1016D0008EA10E941703019709F4106860E08AA1A7
:1016E0000E94400361E08AA10E9440038BA10E94F6
:1016F0001703019709F411608CA10E941703019749
:1017000009F412608DA10E941703019709F4146077
:101710008EA10E941703019709F4186060E08AA166
:101720000E94400361E08BA10E946E0361E08CA1E6
:101730000E946E0361E08DA10E946E0361E08EA1A4
:101740000E946E0360E089A10E944003812F90E017
:10175000DF91CF911F910F91FF90EF90DF90CF908D
:10176000BF90AF909F908F9008958DEF9FEFF0CF37
:10177000EF92FF920F931F93CF93DF93C82F7B01BC
:1017800070E060E088EC93E00E940F0B8C010F7713
:10179000112797FD00E088E0C89FB0011124606424
:1017A00088EC93E00E9493070097E1F4E70188E05A
:1017B000E80EF11C699188EC93E00E9463070197A1
:1017C00079F4CE15DF05B1F740E0602F88EC93E0A7
:1017D000DF91CF911F910F91FF90EF900C94D00764
:1017E0008FEF9FEFDF91CF911F910F91FF90EF90BF
:1017F0000895FC0101900020E9F73197AF01481BE3
:10180000590BBC0188EC93E00C94C1027F928F923B
:101810009F92AF92BF92CF92DF92EF92FF920F937F
:101820001F93CF93DF93D091FC02C1E0C093FC02E1
:101830000E94CB078AE090E00E94660841E060E0E9
:1018400088EC93E00E94D00789E891E00E94F90BB0
:10185000C0933401C12CD12C7601C0E00DEB11E016
:101860008AE0A82E83E0B82E9FE0992E88248394E6
:1018700023E2722E80913401882399F11092340171
:1018800080911C0390911D03A0911E03B0911F0332
:10189000C816D906EA06FB0640F4C0901C03D09097
:1018A0001D03E0901E03F0901F03FF92EF92DF9262
:1018B000CF921F930F93BF92AF920E94431D40E0BF
:1018C00065E088EC93E00E94D0078AE093E00E94F4
:1018D000F90B8DB79EB708960FB6F8949EBF0FBE52
:1018E0008DBFC13009F447C0F0F1C23009F450C0D7
:1018F0000E947308843009F052C010927C0241E0CB
:1019000060E088EC93E00E94D00781E991E00E94BA
:10191000F90B10927A0286E980937B0280917A0219
:10192000811104C00E9473088430C1F70E94CB0764
:101930008AE090E00E946608D093FC0281E08093E8
:1019400021031092200380933401DF91CF911F91E6
:101950000F91FF90EF90DF90CF90BF90AF909F904E
:101960008F907F90089580927C0270927B021092FB
:101970007A02C1E0BDCF80917A02882309F4B8CF02
:1019800010927C0290927B0210927A02C2E0B0CF59
:1019900080917A02882309F4ABCFC0E0A9CF8AE016
:1019A00090E00E94660866CF0E942C1D0C94A31C38
:1019B0000C94A31C85ED8093BC0080916B039091E7
:1019C0006C03A0916D03B0916E030796A11DB11D2C
:1019D00023E0B695A795979587952A95D1F72091FD
:1019E000BC0024FD03C010926903089540916B036D
:1019F00050916C0360916D0370916E03452B462BE3
:101A0000472B69F30097A105B10541F025E32A951D
:101A1000F1F700000197A109B109E1CF80916A03B4
:101A20000C94CD041F920F920FB60F9211242F9396
:101A30003F938F939F93AF93BF938091C2029091F6
:101A4000C302A091C402B091C5023091C10223E04B
:101A5000230F2D3758F50196A11DB11D2093C1020A
:101A60008093C2029093C302A093C402B093C502B4
:101A70008091C6029091C702A091C802B091C9029C
:101A80000196A11DB11D8093C6029093C702A09339
:101A9000C802B093C902BF91AF919F918F913F91BE
:101AA0002F910F900FBE0F901F90189526E8230FCF
:101AB0000296A11DB11DD2CF1F920F920FB60F92A9
:101AC00011242F933F934F935F936F937F938F9343
:101AD0009F93AF93BF93EF93FF938091B900887F5B
:101AE000803609F44AC0F0F5883209F4A7C018F529
:101AF000803109F49BC0B8F4882309F4F9C0883018
:101B000009F494C0FF91EF91BF91AF919F918F9194
:101B10007F916F915F914F913F912F910F900FBEE9
:101B20000F901F901895883109F488C0803251F7C2
:101B30008093670314C0803409F49DC040F480335F
:101B4000B9F38833F9F68093670385ECB0C080352C
:101B500009F485C0883509F496C0883499F60E9446
:101B6000DA0CD0CF883909F48CC038F5883729F0E1
:101B700050F4883611F0803729F683E080936903AA
:101B80001092C00257C0883809F47BC0803919F020
:101B9000803809F0B7CF8091C002803208F071C060
:101BA000E091C00281E08E0F8093C0028091BB0063
:101BB000F0E0E056FD4F80833DC0803B39F0E0F41B
:101BC000803A09F479C0883A09F09CCF84E0809388
:101BD000690310929F0210929E02E091CC02F09154
:101BE000CD02099580919E0281110FC081E0809302
:101BF0009E0210927E0209C0803C09F4A6CF883C68
:101C000009F4A3CF883B09F07DCFE0919F0281E0EA
:101C10008E0F80939F02F0E0E258FD4F8081809309
:101C2000BB0090919F0280919E0229C08091440345
:101C30008093BB0085EC8093BC0064CF90916603D9
:101C400080916503981758F5E091660381E08E0F47
:101C500080936603F0E0EB5BFC4F8081E9CFE0917D
:101C6000660381E08E0F809366038091BB00F0E0F5
:101C7000EB5BFC4F8083909166038091650398171E
:101C8000C8F285E8D8CFE091660381E08E0F80939B
:101C900066038091BB00F0E0EB5BFC4F808380919A
:101CA000680381115CCF81E08093430384EA8093D1
:101CB000BC001092690326CF85EC8093BC00109283
:101CC00069038091C002803230F4E091C002F0E0FC
:101CD000E056FD4F10826091C00270E0E091CA02B0
:101CE000F091CB0280EA92E009951092C0020ACFEF
:101CF0001092670334CF1F920F920FB60F921124E8
:101D00002F933F934F935F936F937F938F939F9303
:101D1000AF93BF93EF93FF938091770290917802F6
:101D2000892B49F0809177029091780201979093E6
:101D3000780280937702809176028F5F8A3099F0E3
:101D400080937602FF91EF91BF91AF919F918F9118
:101D50007F916F915F914F913F912F910F900FBEA7
:101D60000F901F90189510927602809175028F5FE8
:101D700080937502843160F08091FA029091FB02A9
:101D8000449730F484E190E09093FB028093FA0250
:101D900080917B02882351F080917B028150809357
:101DA0007B02811103C081E080937A0280917402EA
:101DB0008F5F843619F080937402C4CF109274023E
:101DC00010921C0310921D0310921E0310921F0309
:101DD00090E080E0FC01EE0FFF1FE053FD4F2081FB
:101DE000318140911C0350911D0360911E0370913D
:101DF0001F03420F531F611D711D40931C0350931D
:101E00001D0360931E0370931F0301968531910596
:101E100009F760911C0370911D0380911E0390913E
:101E20001F0323E030E040E050E00E949E1B20931F
:101E30001C0330931D0340931E0350931F03809196
:101E40001C0390911D03A0911E03B0911F038034C9
:101E50009244AF40B10560F08FE392E4AFE0B0E0B0
:101E600080931C0390931D03A0931E03B0931F0344
:101E700040911C0350911D0360911E0370911F033C
:101E80008091010390910203A0910303B091040398
:101E900084179507A607B70780F480911C039091DB
:101EA0001D03A0911E03B0911F0380930103909323
:101EB0000203A0930303B093040340911C035091C9
:101EC0001D0360911E0370911F038091310190E00A
:101ED000B0E0A0E0481759076A077B0720F181E0CE
:101EE0008093220383E190E0FC01EE0FFF1FE0539B
:101EF000FD4F20813181FC01EE0FFF1FEE52FD4F9F
:101F000031832083019780F71092D1021092D00282
:101F1000809100038F5F8C3388F48093000381E00D
:101F2000809334010FCF109222038091FD02882309
:101F3000C9F21092FD0210922103D4CF1092000337
:101F40008091FF028F5F8C3318F48093FF02E7CFFC
:101F50001092FF028091FE028F5F843618F4809306
:101F6000FE02DDCF1092FE021092060310920703CC
:101F70001092080310920903D2CF1F920F920FB64E
:101F80000F9211242F938F939F93AF93BF938091C0
:101F9000D0029091D102019649F08091D0029091A7
:101FA000D10201969093D1028093D00280910603D2
:101FB00090910703A0910803B09109030196A11D18
:101FC000B11D8093060390930703A0930803B09379
:101FD00009038837984DA544B64060F087E798ED2F
:101FE000A5E4B6E08093060390930703A09308034B
:101FF000B09309038091FA029091FB02449730F468
:1020000084E190E09093FB028093FA028091FC02BD
:10201000811107C080917302811103C081E0809318
:102020007302BF91AF919F918F912F910F900FBE2F
:102030000F901F9018951F920F920FB60F921124B8
:102040008F939F93AF93BF93809172028130D1F1B0
:1020500060F18230F1F1833009F443C090917C0249
:1020600080916F02992309F4ACC0813009F45CC0FF
:1020700008F457C0823009F46CC0833009F487C07B
:1020800080917302882309F4A3C0419A809133019F
:102090008093660210927302BF91AF919F918F91CE
:1020A0000F900FBE0F901F901895809120038230E3
:1020B000A9F28091FA029091FB02892B79F281E0DA
:1020C000809372025B9A809172028F5F809372029A
:1020D000C5CF5B9883E690E0909371028093700285
:1020E000F2CF8091700290917102019790937102EA
:1020F00080937002892B09F0B1CF10927502809104
:10210000FA029091FB02892B49F08091FA0290919A
:10211000FB0201979093FB028093FA0210927202E5
:102120009DCF81E080936F02419A80916D029091E2
:102130006E02B0E0A0E08093690290936A02A093DF
:102140006B02B0936C0280916F028F5F80936F027D
:1021500097CF8091690290916A02A0916B02B09131
:102160006C020197A109B1098093690290936A02F8
:10217000A0936B02B0936C02892B8A2B8B2B09F0F6
:102180007FCF41988091670290916802D2CF809171
:10219000690290916A02A0916B02B0916C02019762
:1021A000A109B1098093690290936A02A0936B021E
:1021B000B0936C02892B8A2B8B2B09F061CF81E0C5
:1021C000C5CF882309F45CCF419810926F0258CF95
:1021D00080916602882309F45FCF81508093660264
:1021E00081115ACF419858CF0F931F93CF93DF930C
:1021F00003E913E0E8011B821A8288EE93E0A0E075
:10220000B0E08C839D83AE83BF838FE391E099839D
:102210008883C8ECD3E01B821A8281E691E099831F
:1022200088831F82188680ED97E0A0E0B0E0888B5D
:10223000998BAA8BBB8B86E290E0A0E0B0E08C8B00
:102240009D8BAE8BBF8B1C861D861E861F861B86B4
:102250000E94FC03688F798F8A8F9B8F1C8E1D8E46
:102260001E8E1F8E87E791E09983888388E088A37C
:1022700089E08AA38FEF89A384E08BA385E08CA3F8
:1022800086E08DA387E08EA38AE08FA318A6EFE9EE
:10229000F3E0108E118E128E138E148E158E168E04
:1022A000178E10A211A212A213A214A215A2A1EAC3
:1022B000B3E086E1ED0119928A95E9F717A306A329
:1022C00087E780A781E591E091838083DF91CF91BB
:1022D0001F910F910895CF93DF93CDB7DEB76C9721
:1022E0000FB6F894DEBF0FBECDBF789484B5826080
:1022F00084BD84B5816084BD85B5826085BD85B5AA
:10230000816085BD80916E00816080936E00109227
:1023100081008091810082608093810080918100A2
:102320008160809381008091800081608093800033
:102330008091B10084608093B1008091B000816091
:102340008093B00080917A00846080937A008091BD
:102350007A00826080937A0080917A008160809315
:102360007A0080917A00806880937A001092C10090
:10237000259A2D98539A5B98399A419852985A9A6F
:102380000E94520816BC82E084BD93E095BD9AEF8E
:1023900097BD90916E00926090936E001092B20083
:1023A0008093B0008093B10084E18093B30080916A
:1023B00070008260809370008091D40381110CC002
:1023C0008091D503811108C08091D603811104C08A
:1023D0008091D703882321F08091CF038F7E59F01D
:1023E0001092D40380E48093D50380E18093D603D8
:1023F00080E58093D70382E08093D00380E18093CF
:10240000CF0364E670E080E090E00E942104109227
:10241000CC0388EC93E00E94F208892B09F059C0A4
:102420008091D003823028F08091CC038860809323
:10243000CC0340E362E070E088EC93E00E94B00AD5
:1024400065E070E080E090E00E94210440E362E0FB
:1024500070E088EC93E00E94B00A61E070E080E0F8
:1024600090E00E94210440E362E070E088EC93E099
:102470000E94B00A61E070E080E090E00E942104D8
:102480008091CC0384FD07C040E262E070E088ECFC
:1024900093E00E94B00A6091CC03606288EC93E004
:1024A0000E94930784E08093CD036CE088EC93E076
:1024B0000E9493070E94CB0782E08093CE0366E0E0
:1024C00088EC93E00E9493076FEF88EC93E00E9402
:1024D000AC080E94E30840E060E088EC93E00E94D2
:1024E000D00780EA91E00E94F90B41E060E088ECBF
:1024F00093E00E94D0078FEA91E00E94F90B1092BE
:10250000CF021092CE0210927003109292030E949A
:10251000AF048FEB92E09093CD028093CC0280ECDD
:1025200092E09093CB028093CA026FEF80ED0E94FD
:102530000A0A853509F0C5C022E04FEF5FEF60E081
:1025400070E08AEA0E94B0092B0122E04FEF5FEFB2
:1025500060E070E08CEA0E94B00969837A838B8323
:102560009C8322E04FEF5FEF60E070E08EEA0E9414
:10257000B0096D837E838F83988722E04FEF5FEFF2
:1025800060E070E080EB0E94B00969877A878B87F2
:102590009C8722E04FEF5FEF60E070E082EB0E94EB
:1025A000B0096D877E878F87988B22E04FEF5FEFB2
:1025B00060E070E084EB0E94B009698B7A8B8B8BB2
:1025C0009C8B22E04FEF5FEF60E070E086EB0E94B3
:1025D000B0096D8B7E8B8F8B988F22E04FEF5FEF72
:1025E00060E070E088EB0E94B009698F7A8F8B8F72
:1025F0009C8F22E04FEF5FEF60E070E08AEB0E947B
:10260000B0094B0122E04FEF5FEF60E070E08CEB30
:102610000E94B0096B0122E04FEF5FEF60E070E0D5
:102620008EEB0E94B0095092A2034092A10329812F
:102630003A813093A4032093A3032D813E813093EC
:10264000A6032093A50329853A853093A8032093F8
:10265000A7032D853E853093AA032093A9032989DA
:102660003A893093AC032093AB032D893E89309394
:10267000AE032093AD03298D3A8D3093B0032093A0
:10268000AF039092B2038092B103D092B403C09290
:10269000B3037093B6036093B50381E080930503A1
:1026A00083E08093B8030E949F0A0E94880A8AE010
:1026B00090E00E9466080E94260A8823C1F30E94C7
:1026C0005F0288EE93E09093FB028093FA020E94EF
:1026D00066080E94CB078AE090E00E94660868E2E4
:1026E00071E080E00E94B80B60E271E081E00E943E
:1026F000B80B68E171E082E00E94B80B60E171E024
:1027000083E00E94B80B68E071E084E00E94B80B9F
:1027100060E071E085E00E94B80B83E0809369007F
:1027200081E08DBB40E3442E4AE2542E612C712C93
:1027300050E3252E52E0352E6EE1862E62E0962E75
:1027400036EFA32E31E0B32E80912203882331F09F
:1027500080912103811102C00E94060C80913401F6
:10276000882309F433C11092340180912003813011
:1027700009F459C0E0F1823009F46CC040E060E037
:1027800088EC93E00E94D0078AE093E00E94F90B66
:1027900080912003813009F4C6C008F4AAC08230B9
:1027A00009F4D8C041E068E088EC93E00E94D007CB
:1027B0008AE093E00E94F90B41E060E088EC93E04E
:1027C0000E94D00780912103882309F417C18091CA
:1027D000FD02882309F4E8C063E088EC93E00E94DE
:1027E000F70763E088EC93E00E94F707E1C080916F
:1027F0001C0390911D03A0911E03B0911F03BF9372
:10280000AF939F938F9388EB91E09F938F938AE090
:1028100093E09F938F930E94431D0FB6F894DEBF01
:102820000FBECDBFABCF209106033091070340917F
:10283000080350910903A5E1B0E00E94DF1BA3014A
:1028400092010E949E1B5F934F933F932F9387ECBF
:1028500091E0DBCF80910503811107C066ED71E047
:102860008AE093E00E943C1D89CF0E94880A882359
:10287000A9F38AE090E00E9466080E94260A882355
:10288000C1F30E9436016B017C0120E836EE45EC75
:1028900057E40E94F9180E94371A905823EC35EF3C
:1028A00044E051E40E947F1A20E030E842E953E41A
:1028B0000E947F1A28E631E94DEE5CE30E94F91888
:1028C00023EC35EF4CE151E40E94F9180E946B199A
:1028D0007F936F9323EF3AEC45EF5BE3C701B601BB
:1028E0000E947F1A0E946B197F936F9387EE91E08D
:1028F0008CCF8091010390910203A0910303B091CA
:102900000403BF93AF939F938F93BF92AF928AE0DC
:1029100093E09F938F930E94431D0FB6F894DEBF00
:102920000FBECDBF3FCF809100031F928F93809148
:10293000FF021F928F938091FE021F928F938DEF63
:1029400091E09F938F938AE093E09F938F930E94EF
:10295000431DE3CF80910503811107C06CE072E055
:102960008AE093E00E943C1D1DCF0E949F0A8823AD
:10297000A9F38AE090E00E9466080E94260A882354
:10298000C1F30E945F020AE013E021E046E00E94EA
:102990006D1665E172E0C8010E94311D67E172E0C9
:1029A000C8010E94311DFECE84EE91E00E94F90B19
:1029B00041E063E088EC93E00E94D0078091FC0244
:1029C000882319F184EE91E00E94F90B0E947308AC
:1029D000833009F4A9C020F5813009F4EEC08230BB
:1029E00009F48FC08AE090E00E94660880E090E0E1
:1029F000892B09F4A9CE0E940000A2CE60E088ECE9
:102A000093E00E94F70761E0EDCE64E088EC93E08C
:102A10000E94F70765E088EC93E00E94F707D6CFA5
:102A2000843009F4B4C08530E9F60E94CB078AE00F
:102A300090E00E94660881E08093340110E080916C
:102A40002203882331F080912103811102C00E946A
:102A5000060C80913401882309F441C0109234019E
:102A600041E060E088EC93E00E94D00762E088ECEF
:102A700093E00E94F70741E062E088EC93E00E9457
:102A8000D007812F90E001969F938F9329E132E048
:102A90003F932F932AE033E03F932F930E94431DEF
:102AA0008AE093E00E94F90B0F900F900F900F9027
:102AB0000F900F90113009F49BC008F486C01230BB
:102AC00009F49DC0133009F4A3C040E060E088EC35
:102AD00093E00E94D0078AE093E00E94F90B0E94E5
:102AE0007308833009F4D9C008F099C0813009F423
:102AF000ACC0823009F4A2C08AE090E00E9466086F
:102B00009ECF809120038F5F80932003833040F01D
:102B10001092200388EE93E09093FB028093FA02D8
:102B200081E0809334015ECF80912003882389F077
:102B30008130B1F710920603109207031092080338
:102B400010920903109200031092FF021092FE02ED
:102B5000E7CF90E080E0FC01EE0FFF1FE053FD4F58
:102B600011821082019685319105A9F710921C03FC
:102B700010921D0310921E0310921F031092010366
:102B8000109202031092030310920403C9CF909194
:102B9000210380912203882351F0913009F681E0CE
:102BA0009091FD02911180E08093FD02B9CF81E008
:102BB000911180E080932103B3CF81E09091FC02DA
:102BC000911180E08093FC02ABCF809133011F9282
:102BD0008F939F928F922AE033E03F932F930E942E
:102BE000431D0F900F900F900F900F900F906DCF8F
:102BF000809132011F928F933F922F92ECCF809160
:102C000031011F928F9322E432E03F932F93E3CF61
:102C1000809130011F928F9323E532E0F6CF84300C
:102C2000A1F0853009F068CF1F5F143070F00E946A
:102C3000CB078AE090E00E94660872CF113089F0DD
:102C400040F01230C1F01330F1F081E08093340194
:102C500053CF809133018530C0F78F5F809333016C
:102C6000F4CF80913201853080F78F5F80933201FD
:102C70000E945208EACF809131018A3F30F7865F87
:102C800080933101E2CF80913001853018F48F5F5D
:102C9000809330010E94E308D8CF113089F050F0C2
:102CA0001230A1F0133089F680913001882391F31E
:102CB0008150EECF80913301823038F28150CECFF7
:102CC00080913201823008F28150D0CF8091310161
:102CD000893208F4BACF8A50D3CFEF920F931F9363
:102CE000CF93DF93E80134E047FD34E1042E000C7C
:102CF000550B57FF03C0519541955109E32E022F03
:102D0000242FAE010E948B16CE01DF91CF911F912F
:102D10000F91EF900895A9E0B0E0E1E9F6E10C949D
:102D2000C8186A01F22EB02E102FFBE3AF2EA016AA
:102D300008F41BE31F5F012F27E0AE014F5F5F4FD9
:102D40000E94EA17BC018981982F9970913009F48B
:102D50003FC09BE2E1FC04C09E2D9170E0FC3AC0B4
:102D60005E2D5071E82FE87083FF46C084E091111A
:102D700001C083E0EF2DE81B8F1508F0E0E0D601DD
:102D80008E2F20E2552351F1992329F0D6019C93EF
:102D9000C60101966C0196012D5F3F4FE2FE24C0F3
:102DA0008EE4D6018C9391E411969C931197129620
:102DB0008C93D9018E2F90E281111BC0E20FF32F6B
:102DC000F11D10828EEF9FEF2996ECE00C94E41831
:102DD0009DE2C6CF90E2C4CF2D9381508111FCCFEC
:102DE000CE0ED11CE0E0D0CF8EE6D6018C9391E6DA
:102DF000DBCF9D938150E0CF482F447082FF3DC0D0
:102E000084E0911101C083E08F1510F4EF2DE81BD1
:102E1000D6018E2F20E2552309F1992329F0D601FE
:102E20009C93C60101966C0196012D5F3F4FE2FE17
:102E30001BC089E4D6018C938EE411968C93119774
:102E400086E412968C93D9018E2F90E2882309F4A0
:102E5000B5CF9D938150FACF2D9381508111FCCF36
:102E6000CE0ED11CE0E0D9CF89E6D6018C938EE658
:102E700011968C93119786E6E4CF9B0177FF02C0F1
:102E800030E020E0A1E0B0E0911102C0B0E0A0E0AD
:102E9000F9013196AE0FBF1F8B2C912CBB2009F48A
:102EA00061C05401EFEFAE1ABE0AAA0DBB1DFA169F
:102EB0001B0619F014F04F2D4A1B511188C0E3FC7A
:102EC00059C07601A42FB0E2A1114FC0C40ED11C8D
:102ED000992309F45BC040E0D6011196F601908376
:102EE0006D01552309F448C0012F060F9A81582F10
:102EF000507184FF03C0913309F4015010160CF097
:102F000047C0093008F008E0EEE2FE2E5B01A01A8F
:102F1000B10885019194819491082F3F320729F4DB
:102F2000D601FC92F60131966F016217730794F196
:102F3000021713077CF5DB01A21BB30BAA24A39491
:102F4000B12CAC0EBD1EAA0DBB1D11968C9121504B
:102F50003109D601119628153905F4F0F601808360
:102F60006D01DBCFB12CA12CA0CFF701B1937F0174
:102F7000A150AACF9111B0CFD601942F50E302C037
:102F80005D9391509111FCCFC40ED11C40E0ACCFA9
:102F900001E0BACF80E3DBCF6217730731F49633D9
:102FA00088F4953311F4552369F0F6018083FD010F
:102FB000842F90E2811108C0A40FB11D1C9290E0F3
:102FC00080E002CF81E3F1CF91938150F3CF911153
:102FD00083CF8ACF283008F027E03327DA01990F12
:102FE000311D87FD916000966105710539F43260ED
:102FF0002E5F3D9330E32A95E1F708959F3F30F02F
:1030000080387105610509F03C5F3C5F3D9391306C
:1030100008F08068911DDF93CF931F930F93FF9269
:10302000EF92192F987F9695E92F96959695E90F2F
:10303000FF27E45EFE4F99273327EE24FF24A701E4
:10304000E70105900894079428F4360FE71EF81E50
:10305000491F511D660F771F881F991F0694A1F7FE
:103060000590079428F4E70EF81E491F561FC11D4E
:10307000770F881F991F661F0694A1F70590079484
:1030800028F4F80E491F561FC71FD11D880F991F1E
:10309000661F771F0694A1F70590079420F4490F47
:1030A000561FC71FD81F990F661F771F881F0694CA
:1030B000A9F784911095177041F0D695C79557954B
:1030C0004795F794E7941A95C1F7E2ECF0E068941D
:1030D0001590159135916591959105907FE27395C5
:1030E000E118F10A430B560BC90BD009C0F7E10CEC
:1030F000F11E431F561FC91FD01D7EF4703311F4FB
:103100008A95E6CFE894015030F0080F0AF40027C2
:10311000021708F4202F2395022F7A3328F079E341
:103120007D932A95E9F710C07D932A9589F6069438
:1031300097956795379517951794E118F10A430B02
:10314000560BC90BD00998F023957E9173957A336D
:1031500008F070E37C932013B8F77E9170617D9343
:1031600030F0839571E37D9370E32A95E1F71124A4
:10317000EF90FF900F911F91CF91DF91992787FDDD
:10318000909508952F923F924F925F926F927F9207
:103190008F929F92AF92BF92CF92DF92EF92FF9267
:1031A0000F931F93CF93DF93CDB7DEB7CA1BDB0B13
:1031B0000FB6F894DEBF0FBECDBF09942A883988B8
:1031C00048885F846E847D848C849B84AA84B984BF
:1031D000C884DF80EE80FD800C811B81AA81B981CB
:1031E000CE0FD11D0FB6F894DEBF0FBECDBFED01DF
:1031F00008950E940D190C94F5190E94EE1958F0CB
:103200000E94E71940F029F45F3F29F00C94DE1981
:1032100051110C94291A0C94E4190E94061A68F3AF
:103220009923B1F3552391F3951B550BBB27AA277F
:1032300062177307840738F09F5F5F4F220F331FB9
:10324000441FAA1FA9F335D00E2E3AF0E0E832D081
:1032500091505040E695001CCAF72BD0FE2F29D084
:10326000660F771F881FBB1F261737074807AB0756
:10327000B0E809F0BB0B802DBF01FF2793585F4FCB
:103280003AF09E3F510578F00C94DE190C94291AFF
:103290005F3FE4F3983ED4F3869577956795B795AD
:1032A000F7959F5FC9F7880F911D9695879597F9B8
:1032B0000895E1E0660F771F881FBB1F6217730731
:1032C0008407BA0720F0621B730B840BBA0BEE1F46
:1032D00088F7E09508950E9472196894B1110C94D2
:1032E000291A08950E940E1A88F09F5798F0B92F56
:1032F0009927B751B0F0E1F0660F771F881F991F2B
:103300001AF0BA95C9F714C0B13091F00E94281A8A
:10331000B1E008950C94281A672F782F8827B85F9A
:1033200039F0B93FCCF3869577956795B395D9F782
:103330003EF490958095709561957F4F8F4F9F4F8C
:103340000895E89409C097FB3EF490958095709598
:1033500061957F4F8F4F9F4F9923A9F0F92F96E9E1
:10336000BB279395F695879577956795B795F11156
:10337000F8CFFAF4BB0F11F460FF1BC06F5F7F4FF3
:103380008F4F9F4F16C0882311F096E911C0772305
:1033900021F09EE8872F762F05C0662371F096E80E
:1033A000862F70E060E02AF09A95660F771F881FDD
:1033B000DAF7880F9695879597F9089597F99F679B
:1033C00080E870E060E008959FEF80EC08950024AD
:1033D0000A941616170618060906089500240A947A
:1033E00012161306140605060895092E0394000C00
:1033F00011F4882352F0BB0F40F4BF2B11F460FF8F
:1034000004C06F5F7F4F8F4F9F4F089557FD9058B7
:10341000440F551F59F05F3F71F04795880F97FB98
:10342000991F61F09F3F79F0879508951216130652
:103430001406551FF2CF4695F1DF08C01616170681
:103440001806991FF1CF86957105610508940895B6
:10345000E894BB2766277727CB0197F9089516F0E4
:103460000C94591B0C94E41968940C94DE190E9476
:103470000E1AA8F39923C1F3AEF3DF93CF931F93F2
:103480000F93FF92C92FDD2788232AF02197660F1B
:10349000771F881FDAF720E030E040E85FEB9FE31A
:1034A000883920F0803E38F021968F770E94ED1AFF
:1034B000E8E6F0E004C00E94ED1AE5E9F0E00E94C1
:1034C000671B8B01BE01EC01FB2E6F5771097595CF
:1034D000771F880B990B0E94A31928E132E741E37B
:1034E0005FE30E94921AAF2D9801AE01FF900F91F9
:1034F0001F91CF91DF910E94041B0C94F5190E943B
:10350000921A0C94F5190E94E71938F00E94EE19EE
:1035100020F0952311F00C94DE190C94E419112479
:103520000C94291A0E94061A70F3959FC1F3950F07
:1035300050E0551F629FF001729FBB27F00DB11D37
:10354000639FAA27F00DB11DAA1F649F6627B00DC7
:10355000A11D661F829F2227B00DA11D621F739FB0
:10356000B00DA11D621F839FA00D611D221F749FBE
:103570003327A00D611D231F849F600D211D822F05
:10358000762F6A2F11249F5750409AF0F1F088232C
:103590004AF0EE0FFF1FBB1F661F771F881F915059
:1035A0005040A9F79E3F510580F00C94DE190C9411
:1035B000291A5F3FE4F3983ED4F386957795679593
:1035C000B795F795E7959F5FC1F7FE2B880F911D83
:1035D0009695879597F908955058BB27AA270E947A
:1035E000041B0C94F5190E94E71938F00E94EE199B
:1035F00020F039F49F3F19F426F40C94E4190EF4EA
:10360000E095E7FB0C94DE19E92F0E94061A58F3A7
:10361000BA17620773078407950720F079F4A6F5B7
:103620000C94281A0EF4E0950B2EBA2FA02D0B0146
:10363000B90190010C01CA01A0011124FF27591BF7
:1036400099F0593F50F4503E68F11A16F040A22FFD
:10365000232F342F4427585FF3CF4695379527956E
:10366000A795F0405395C9F77EF41F16BA0B620B6D
:10367000730B840BBAF09150A1F0FF0FBB1F661FB4
:10368000771F881FC2F70EC0BA0F621F731F841FF7
:1036900048F4879577956795B795F7959E3F08F01D
:1036A000B0CF9395880F08F09927EE0F97958795DF
:1036B00008959F3F31F0915020F487957795679555
:1036C000B795880F911D9695879597F90895DF9383
:1036D000CF931F930F93FF92EF92DF927B018C01A8
:1036E000689406C0DA2EEF010E94921AFE01E89457
:1036F000A5912591359145915591A6F3EF010E9431
:10370000041BFE019701A801DA9469F7DF90EF909E
:10371000FF900F911F91CF91DF910895DB018F935F
:103720009F930E94DF1BBF91AF91A29F800D911DBF
:10373000A39F900DB29F900D11240895A1E21A2E1F
:10374000AA1BBB1BFD010DC0AA1FBB1FEE1FFF1F45
:10375000A217B307E407F50720F0A21BB30BE40B95
:10376000F50B661F771F881F991F1A9469F76095DC
:103770007095809590959B01AC01BD01CF01089596
:10378000052E97FB1EF400940E94D71B57FD07D00F
:103790000E949E1B07FC03D04EF40C94D71B50953F
:1037A0004095309521953F4F4F4F5F4F089590952D
:1037B0008095709561957F4F8F4F9F4F08950E9420
:1037C000F81BA59F900DB49F900DA49F800D911D97
:1037D00011240895B7FF0C94DF1B0E94DF1B821B8E
:1037E000930B0895EE0FFF1F0590F491E02D0994BF
:1037F000A29FB001B39FC001A39F700D811D112432
:10380000911DB29F700D811D1124911D08950F937C
:103810001F93CF93DF938230910510F482E090E004
:10382000E091F303F091F40330E020E0B0E0A0E099
:10383000309799F42115310509F44AC0281B390B3A
:1038400024303105D8F58A819B816115710589F194
:10385000FB0193838283FE0111C04081518102816B
:10386000138148175907E0F04817590799F4109742
:1038700061F012960C93129713961C933296CF0117
:10388000DF91CF911F910F9108950093F30310934F
:10389000F403F4CF2115310551F04217530738F0E6
:1038A000A901DB019A01BD01DF01F801C1CFEF01E0
:1038B000F9CF9093F4038093F303CDCFFE01E20F91
:1038C000F31F819391932250310939832883D7CFF5
:1038D0002091F1033091F203232B41F42091370121
:1038E000309138013093F2032093F1032091350198
:1038F000309136012115310541F42DB73EB7409185
:10390000390150913A01241B350BE091F103F091FC
:10391000F203E217F307A0F42E1B3F0B2817390719
:1039200078F0AC014E5F5F4F2417350748F04E0F1B
:103930005F1F5093F2034093F103819391939FCFC4
:10394000F0E0E0E09CCFCF93DF930097E9F0FC013B
:10395000329713821282A091F303B091F403ED0128
:1039600030E020E01097A1F420813181820F931F75
:103970002091F1033091F2032817390709F061C053
:10398000F093F203E093F103DF91CF910895EA0100
:10399000CE17DF07E8F54A815B819E01411551058D
:1039A000B1F7E901FB83EA8349915991C40FD51F0F
:1039B000EC17FD0761F4808191810296840F951FB9
:1039C000E90199838883828193819B838A83F0E0D4
:1039D000E0E012968D919C9113970097B9F52D9187
:1039E0003C911197CD010296820F931F2091F10314
:1039F0003091F2032817390739F6309751F51092B4
:103A0000F4031092F303B093F203A093F103BCCF3D
:103A1000D383C28340815181840F951FC817D90772
:103A200061F44E5F5F4F88819981480F591F518320
:103A300040838A819B81938382832115310509F01C
:103A4000B0CFF093F403E093F3039ECFFD01DC01CC
:103A5000C0CF13821282D7CF81E090E0F8940C940B
:103A6000E41FFB01DC010D900020E9F711970190A4
:103A70000D920020E1F70895FB01DC0101900D9209
:103A80000020E1F70895AEE0B0E0E9E4FDE10C9438
:103A9000D0180D891E8986E08C831A8309838FEFE5
:103AA0009FE79E838D83AE01475E5F4F6F89788D60
:103AB000CE0101960E94661D2F813885020F131FCB
:103AC000F80110822E96E4E00C94EC18ABE0B0E024
:103AD000ECE6FDE10C94C2187C013B018A01FC017B
:103AE00017821682838181FFC8C1CE0101965C01D5
:103AF000F7019381F30193FD859193FF81913F013C
:103B0000882309F453C1853239F493FD859193FFDD
:103B100081913F01853229F4B70190E00E94561F40
:103B2000E7CF912C212C312CFFE1F31538F08B32AB
:103B300011F190F4803209F1833229F137FC3CC055
:103B400020ED280F2A3050F536FE20C08AE0989EDE
:103B5000200D1124922E06C08D3291F0803371F722
:103B6000689430F8F30193FD859193FF81913F01B3
:103B70008111DACF21C0689431F8689432F8F2CF1D
:103B8000689433F8EFCF689434F8ECCFEAE02E9ED7
:103B9000200D1124222E689435F8E4CF8E3229F4BA
:103BA00036FC04C1689436F8DDCF8C3619F468947D
:103BB00037F8D8CF8836B1F2982F9F7D955493303F
:103BC000E0F08336A1F18337C1F1833509F063C09A
:103BD0002801F2E04F0E511CF801C080D180692D00
:103BE00070E036FC02C06FEF7FEFC6010E94401FFD
:103BF0004C01689437F882010AC00C5F1F4FFFE345
:103C0000F98388248394912C6501E89437F833FE76
:103C10002DC0522C8114910471F5552009F468CF00
:103C2000B70180E290E00E94561F5A94F6CFF80147
:103C3000808189830E5F1F4FE4CF2801F2E04F0E91
:103C4000511CF801C080D180692D70E036FC02C0A3
:103C50006FEF7FEFC6010E944B1F4C018201D5CF51
:103C6000B70180E290E00E94561F2A94281419049C
:103C700009F0B0F7CECFF60137FC859137FE819180
:103C80006F01B70190E00E94561F51105A94F1E065
:103C90008F1A9108BFCF843619F0893609F077C0A2
:103CA000F80137FE6BC060817181828193810C5F66
:103CB0001F4FF32DFF763F2E97FF09C090958095FB
:103CC000709561957F4F8F4F9F4F689437F82AE02A
:103CD00030E0A5010E94861FC82ECA188C2C432CE8
:103CE00036FE0CC0E89440F8C91440F434FE05C018
:103CF00032FC03C0F32DFE7E4F2E892C44FE95C06E
:103D0000FE01EC0DF11D8081803309F087C0242D68
:103D1000297E422E842D8870582E43FC95C040FE8B
:103D20008FC09C2C821418F42C0C922C981844FEF2
:103D300091C0B70180E390E00E94561F42FE09C087
:103D400088E790E041FE02C088E590E0B7010E945C
:103D5000561FC91408F48AC0CA94D12C9FEFC91AFF
:103D6000D90ACA0CDB1CF60182916F01B70190E001
:103D70000E94561FAC14BD04B1F74FCF6081718112
:103D8000072E000C880B990B0E5F1F4F92CFD32C80
:103D9000E894D4F82AE030E0853739F1232D297FE3
:103DA000D22E8F3601F148F48835A9F0F7018681CB
:103DB00097812B96E2E10C94DE18803749F0883722
:103DC000A9F7D4FE02C06894D2F820E130E00DC01B
:103DD0006894D4F8F6CF34FE03C0822F8660D82EC4
:103DE00020E132E002C028E030E0F801D7FE0FC049
:103DF00060817181828193810C5F1F4FA5010E94B8
:103E0000861FC82ECA183D2CE89437F867CF60810A
:103E1000718190E080E00E5F1F4FF0CF42FC02C046
:103E2000839478CF8394839475CF842D867809F416
:103E300071CFF6CFB70180E290E00E94561F8394C5
:103E40008214C0F3512C73CF522C5818821408F4EA
:103E50006ECFF8CF842D867809F47BCF8BE241FEBC
:103E600080E247FC8DE2B70190E071CFB70180E3BB
:103E700090E00E94561F9A946CCF8FEF9FEF99CFDE
:103E8000FC010590615070400110D8F78095909525
:103E90008E0F9F1F0895FC0161507040019001102A
:103EA000D8F7809590958E0F9F1F08950F931F93BD
:103EB000CF93DF93182F092FEB018B8181FD09C070
:103EC0001FEF0FEF812F902FDF91CF911F910F9157
:103ED000089582FF14C02E813F818C819D81281717
:103EE00039073CF4E881F981CF01019699838883F1
:103EF00010838E819F8101969F838E83E3CFE88517
:103F0000F985812F0995892BA1F3DACFFA01AA2728
:103F1000283051F1203181F1E8946F936E7F6E5F0C
:103F20007F4F8F4F9F4FAF4FB1E03ED0B4E03CD0BA
:103F3000670F781F891F9A1FA11D680F791F8A1F9D
:103F4000911DA11D6A0F711D811D911DA11D20D004
:103F500009F468943F912AE0269F11243019305DBE
:103F60003193DEF6CF010895462F4770405D4193AF
:103F7000B3E00FD0C9F7F6CF462F4F70405D4A33FC
:103F800018F0495D31FD4052419302D0A9F7EACFC4
:103F9000B4E0A6959795879577956795BA95C9F7F3
:103FA00000976105710508959B01AC010A2E0694E6
:103FB0005795479537952795BA95C9F7620F731F9F
:0C3FC000841F951FA01D0895F894FFCFEA
:103FCC0000000E0A0A1B00000001030F0F03010082
:103FDC000000000000000015001F001F001F000063
:103FEC000004120A0A12040000040E0E0E1F040034
:103FFC0004320303010000F50380000000000034CC
:10400C000707071E08DD060007ED06DE06000000A8
:10401C00008704D80CBD02D9095909DE050000003F
:10402C0000F707C1021E0858091E081B08D40C55BE
:10403C0009550900000000F707C1021E085809F2D3
:10404C00080F0BB00AAC0855095741524E694E4740
:10405C0000416C41524D2044695341626C456400EF
:10406C0047456947455220434F554E7445520053BE
:10407C0074415274694E4700524174452025366C88
:10408C00752075522F68004430534520202025366A
:10409C006C75207552006230305374203066662087
:1040AC0020202020202000253464206D6D486720BE
:1040BC00253464206D00202025366C7500253032A7
:1040CC00753A253032753A25303275006E6F2042C4
:1040DC004D31383000DF004300253031750042553A
:1040EC005A5A20564F4C554D4520202025327500EC
:1040FC00414C41524D20564F4C554D4520202532B8
:10410C007500414C41524D204C4556454C202025C4
:10411C003375004252494748544E45535320202092
:06412C00202532750000A1
:00000001FF
